{
  "abi": [
    {
      "inputs": [],
      "stateMutability": "nonpayable",
      "type": "constructor"
    },
    {
      "inputs": [
        {
          "internalType": "uint256",
          "name": "voterID",
          "type": "uint256"
        },
        {
          "internalType": "uint256",
          "name": "candidateID",
          "type": "uint256"
        }
      ],
      "name": "castVote",
      "outputs": [],
      "stateMutability": "nonpayable",
      "type": "function"
    },
    {
      "inputs": [],
      "name": "electionState",
      "outputs": [
        {
          "internalType": "enum BiometricVotingSystem.ElectionState",
          "name": "",
          "type": "uint8"
        }
      ],
      "stateMutability": "view",
      "type": "function"
    },
    {
      "inputs": [],
      "name": "endElection",
      "outputs": [],
      "stateMutability": "nonpayable",
      "type": "function"
    },
    {
      "inputs": [],
      "name": "getAllCandidates",
      "outputs": [
        {
          "components": [
            {
              "internalType": "uint256",
              "name": "id",
              "type": "uint256"
            },
            {
              "internalType": "string",
              "name": "name",
              "type": "string"
            },
            {
              "internalType": "uint256",
              "name": "voteCount",
              "type": "uint256"
            }
          ],
          "internalType": "struct BiometricVotingSystem.CandidateInfo[]",
          "name": "",
          "type": "tuple[]"
        }
      ],
      "stateMutability": "view",
      "type": "function"
    },
    {
      "inputs": [],
      "name": "getAllVoters",
      "outputs": [
        {
          "components": [
            {
              "internalType": "uint256",
              "name": "id",
              "type": "uint256"
            },
            {
              "internalType": "string",
              "name": "name",
              "type": "string"
            },
            {
              "internalType": "string",
              "name": "faceEncoding",
              "type": "string"
            },
            {
              "internalType": "string",
              "name": "fingerEncoding",
              "type": "string"
            },
            {
              "internalType": "bool",
              "name": "faceDisabled",
              "type": "bool"
            },
            {
              "internalType": "bool",
              "name": "fingerDisabled",
              "type": "bool"
            },
            {
              "internalType": "bool",
              "name": "hasVoted",
              "type": "bool"
            }
          ],
          "internalType": "struct BiometricVotingSystem.VoterInfo[]",
          "name": "",
          "type": "tuple[]"
        }
      ],
      "stateMutability": "view",
      "type": "function"
    },
    {
      "inputs": [],
      "name": "getElectionStatus",
      "outputs": [
        {
          "internalType": "string",
          "name": "",
          "type": "string"
        }
      ],
      "stateMutability": "view",
      "type": "function"
    },
    {
      "inputs": [],
      "name": "getTotalCandidateCount",
      "outputs": [
        {
          "internalType": "uint256",
          "name": "",
          "type": "uint256"
        }
      ],
      "stateMutability": "view",
      "type": "function"
    },
    {
      "inputs": [],
      "name": "getTotalVoterCount",
      "outputs": [
        {
          "internalType": "uint256",
          "name": "",
          "type": "uint256"
        }
      ],
      "stateMutability": "view",
      "type": "function"
    },
    {
      "inputs": [],
      "name": "getVoteCounts",
      "outputs": [
        {
          "components": [
            {
              "internalType": "uint256",
              "name": "id",
              "type": "uint256"
            },
            {
              "internalType": "string",
              "name": "name",
              "type": "string"
            },
            {
              "internalType": "uint256",
              "name": "voteCount",
              "type": "uint256"
            }
          ],
          "internalType": "struct BiometricVotingSystem.CandidateInfo[]",
          "name": "",
          "type": "tuple[]"
        }
      ],
      "stateMutability": "view",
      "type": "function"
    },
    {
      "inputs": [],
      "name": "getVoterVotingStatus",
      "outputs": [
        {
          "components": [
            {
              "internalType": "uint256",
              "name": "voterID",
              "type": "uint256"
            },
            {
              "internalType": "string",
              "name": "name",
              "type": "string"
            },
            {
              "internalType": "bool",
              "name": "hasVoted",
              "type": "bool"
            }
          ],
          "internalType": "struct BiometricVotingSystem.VotingStatus[]",
          "name": "",
          "type": "tuple[]"
        }
      ],
      "stateMutability": "view",
      "type": "function"
    },
    {
      "inputs": [],
      "name": "getWinner",
      "outputs": [
        {
          "components": [
            {
              "internalType": "uint256",
              "name": "id",
              "type": "uint256"
            },
            {
              "internalType": "string",
              "name": "name",
              "type": "string"
            },
            {
              "internalType": "string",
              "name": "partyName",
              "type": "string"
            }
          ],
          "internalType": "struct BiometricVotingSystem.Winner[]",
          "name": "",
          "type": "tuple[]"
        }
      ],
      "stateMutability": "view",
      "type": "function"
    },
    {
      "inputs": [],
      "name": "newElection",
      "outputs": [],
      "stateMutability": "nonpayable",
      "type": "function"
    },
    {
      "inputs": [
        {
          "internalType": "string",
          "name": "name",
          "type": "string"
        }
      ],
      "name": "registerCandidate",
      "outputs": [
        {
          "internalType": "uint256",
          "name": "",
          "type": "uint256"
        }
      ],
      "stateMutability": "nonpayable",
      "type": "function"
    },
    {
      "inputs": [
        {
          "internalType": "string",
          "name": "name",
          "type": "string"
        },
        {
          "internalType": "uint256",
          "name": "voterID",
          "type": "uint256"
        },
        {
          "internalType": "string",
          "name": "faceEncoding",
          "type": "string"
        },
        {
          "internalType": "string",
          "name": "fingerEncoding",
          "type": "string"
        },
        {
          "internalType": "bool",
          "name": "faceDisabled",
          "type": "bool"
        },
        {
          "internalType": "bool",
          "name": "fingerDisabled",
          "type": "bool"
        }
      ],
      "name": "registerVoter",
      "outputs": [],
      "stateMutability": "nonpayable",
      "type": "function"
    },
    {
      "inputs": [
        {
          "internalType": "uint256",
          "name": "candidateID",
          "type": "uint256"
        }
      ],
      "name": "removeCandidate",
      "outputs": [],
      "stateMutability": "nonpayable",
      "type": "function"
    },
    {
      "inputs": [
        {
          "internalType": "uint256",
          "name": "voterID",
          "type": "uint256"
        }
      ],
      "name": "removeVoter",
      "outputs": [],
      "stateMutability": "nonpayable",
      "type": "function"
    },
    {
      "inputs": [],
      "name": "startElection",
      "outputs": [],
      "stateMutability": "nonpayable",
      "type": "function"
    }
  ],
  "devdoc": {
    "details": "A decentralized blockchain-based biometric voting system with no admin privileges",
    "kind": "dev",
    "methods": {},
    "title": "BiometricVotingSystem",
    "version": 1
  },
  "evm": {
    "assembly": "    /* \"blockchain.sol\":188:9054  contract BiometricVotingSystem {... */\n  mstore(0x40, 0x80)\n    /* \"blockchain.sol\":455:456  1 */\n  0x01\n    /* \"blockchain.sol\":418:456  uint256 private candidateIdCounter = 1 */\n  dup1\n  sstore\n    /* \"blockchain.sol\":1190:1263  constructor() {... */\n  callvalue\n  dup1\n  iszero\n  tag_1\n  jumpi\n  0x00\n  dup1\n  revert\ntag_1:\n  pop\n    /* \"blockchain.sol\":1230:1256  ElectionState.Registration */\n  0x00\n    /* \"blockchain.sol\":1214:1256  electionState = ElectionState.Registration */\n  dup1\n  sload\n  not(0xff)\n  and\n  swap1\n  sstore\n    /* \"blockchain.sol\":188:9054  contract BiometricVotingSystem {... */\n  dataSize(sub_0)\n  dup1\n  dataOffset(sub_0)\n  0x00\n  codecopy\n  0x00\n  return\nstop\n\nsub_0: assembly {\n        /* \"blockchain.sol\":188:9054  contract BiometricVotingSystem {... */\n      mstore(0x40, 0x80)\n      callvalue\n      dup1\n      iszero\n      tag_1\n      jumpi\n      0x00\n      dup1\n      revert\n    tag_1:\n      pop\n      jumpi(tag_2, lt(calldatasize, 0x04))\n      shr(0xe0, calldataload(0x00))\n      dup1\n      0x62d73eb8\n      gt\n      tag_20\n      jumpi\n      dup1\n      0x91a59303\n      gt\n      tag_21\n      jumpi\n      dup1\n      0xd5f03555\n      gt\n      tag_22\n      jumpi\n      dup1\n      0xd5f03555\n      eq\n      tag_17\n      jumpi\n      dup1\n      0xf68a3b10\n      eq\n      tag_18\n      jumpi\n      dup1\n      0xffc97b20\n      eq\n      tag_19\n      jumpi\n      0x00\n      dup1\n      revert\n    tag_22:\n      dup1\n      0x91a59303\n      eq\n      tag_15\n      jumpi\n      dup1\n      0x9eb88db6\n      eq\n      tag_16\n      jumpi\n      0x00\n      dup1\n      revert\n    tag_21:\n      dup1\n      0x62d73eb8\n      eq\n      tag_11\n      jumpi\n      dup1\n      0x67a51396\n      eq\n      tag_12\n      jumpi\n      dup1\n      0x87ddc0ec\n      eq\n      tag_13\n      jumpi\n      dup1\n      0x8e7ea5b2\n      eq\n      tag_14\n      jumpi\n      0x00\n      dup1\n      revert\n    tag_20:\n      dup1\n      0x2e6997fe\n      gt\n      tag_23\n      jumpi\n      dup1\n      0x2e6997fe\n      eq\n      tag_7\n      jumpi\n      dup1\n      0x33db3eb6\n      eq\n      tag_8\n      jumpi\n      dup1\n      0x35bbe70e\n      eq\n      tag_9\n      jumpi\n      dup1\n      0x59f78468\n      eq\n      tag_10\n      jumpi\n      0x00\n      dup1\n      revert\n    tag_23:\n      dup1\n      0x09e9d7e2\n      eq\n      tag_3\n      jumpi\n      dup1\n      0x122902a6\n      eq\n      tag_4\n      jumpi\n      dup1\n      0x2280043d\n      eq\n      tag_5\n      jumpi\n      dup1\n      0x2c0a3f89\n      eq\n      tag_6\n      jumpi\n    tag_2:\n      0x00\n      dup1\n      revert\n        /* \"blockchain.sol\":4347:4820  function removeCandidate(uint256 candidateID) public duringRegistration {... */\n    tag_3:\n      tag_24\n      tag_25\n      calldatasize\n      0x04\n      tag_26\n      jump\t// in\n    tag_25:\n      tag_27\n      jump\t// in\n    tag_24:\n      stop\n        /* \"blockchain.sol\":7903:8168  function getElectionStatus() public view returns (string memory) {... */\n    tag_4:\n      tag_28\n      tag_29\n      jump\t// in\n    tag_28:\n      mload(0x40)\n      tag_30\n      swap2\n      swap1\n      tag_31\n      jump\t// in\n    tag_30:\n      mload(0x40)\n      dup1\n      swap2\n      sub\n      swap1\n      return\n        /* \"blockchain.sol\":339:373  ElectionState public electionState */\n    tag_5:\n      sload(0x00)\n      tag_32\n      swap1\n      0xff\n      and\n      dup2\n      jump\n    tag_32:\n      mload(0x40)\n      tag_30\n      swap2\n      swap1\n      tag_35\n      jump\t// in\n        /* \"blockchain.sol\":1703:2069  function castVote(uint256 voterID, uint256 candidateID) public duringVoting {... */\n    tag_6:\n      tag_24\n      tag_37\n      calldatasize\n      0x04\n      tag_38\n      jump\t// in\n    tag_37:\n      tag_39\n      jump\t// in\n        /* \"blockchain.sol\":7138:7679  function getAllCandidates() public view returns (CandidateInfo[] memory) {... */\n    tag_7:\n      tag_40\n      tag_41\n      jump\t// in\n    tag_40:\n      mload(0x40)\n      tag_30\n      swap2\n      swap1\n      tag_43\n      jump\t// in\n        /* \"blockchain.sol\":8559:9052  function getVoterVotingStatus() public view returns (VotingStatus[] memory) {... */\n    tag_8:\n      tag_44\n      tag_45\n      jump\t// in\n    tag_44:\n      mload(0x40)\n      tag_30\n      swap2\n      swap1\n      tag_47\n      jump\t// in\n        /* \"blockchain.sol\":6303:7030  function getAllVoters() public view returns (VoterInfo[] memory) {... */\n    tag_9:\n      tag_48\n      tag_49\n      jump\t// in\n    tag_48:\n      mload(0x40)\n      tag_30\n      swap2\n      swap1\n      tag_51\n      jump\t// in\n        /* \"blockchain.sol\":2327:3235  function endElection() public {... */\n    tag_10:\n      tag_24\n      tag_53\n      jump\t// in\n        /* \"blockchain.sol\":2075:2321  function startElection() public {... */\n    tag_11:\n      tag_24\n      tag_55\n      jump\t// in\n        /* \"blockchain.sol\":7685:7784  function getTotalVoterCount() public view returns (uint256) {... */\n    tag_12:\n        /* \"blockchain.sol\":7762:7770  voterIds */\n      0x06\n        /* \"blockchain.sol\":7762:7777  voterIds.length */\n      sload\n        /* \"blockchain.sol\":7685:7784  function getTotalVoterCount() public view returns (uint256) {... */\n    tag_56:\n      mload(0x40)\n        /* \"#utility.yul\":5839:5864   */\n      swap1\n      dup2\n      mstore\n        /* \"#utility.yul\":5827:5829   */\n      0x20\n        /* \"#utility.yul\":5812:5830   */\n      add\n        /* \"blockchain.sol\":7685:7784  function getTotalVoterCount() public view returns (uint256) {... */\n      tag_30\n        /* \"#utility.yul\":5693:5870   */\n      jump\n        /* \"blockchain.sol\":5644:6063  function removeVoter(uint256 voterID) public duringRegistration {... */\n    tag_13:\n      tag_24\n      tag_61\n      calldatasize\n      0x04\n      tag_26\n      jump\t// in\n    tag_61:\n      tag_62\n      jump\t// in\n        /* \"blockchain.sol\":8292:8451  function getWinner() public view electionEnded returns (Winner[] memory) {... */\n    tag_14:\n      tag_63\n      tag_64\n      jump\t// in\n    tag_63:\n      mload(0x40)\n      tag_30\n      swap2\n      swap1\n      tag_66\n      jump\t// in\n        /* \"blockchain.sol\":4826:5638  function registerVoter(... */\n    tag_15:\n      tag_24\n      tag_68\n      calldatasize\n      0x04\n      tag_69\n      jump\t// in\n    tag_68:\n      tag_70\n      jump\t// in\n        /* \"blockchain.sol\":3959:4341  function registerCandidate(string memory name) public duringRegistration returns (uint256) {... */\n    tag_16:\n      tag_56\n      tag_72\n      calldatasize\n      0x04\n      tag_73\n      jump\t// in\n    tag_72:\n      tag_74\n      jump\t// in\n        /* \"blockchain.sol\":7790:7897  function getTotalCandidateCount() public view returns (uint256) {... */\n    tag_17:\n        /* \"blockchain.sol\":7871:7883  candidateIds */\n      0x05\n        /* \"blockchain.sol\":7871:7890  candidateIds.length */\n      sload\n        /* \"blockchain.sol\":7790:7897  function getTotalCandidateCount() public view returns (uint256) {... */\n      jump(tag_56)\n        /* \"blockchain.sol\":3241:3953  function newElection() public {... */\n    tag_18:\n      tag_24\n      tag_80\n      jump\t// in\n        /* \"blockchain.sol\":8174:8286  function getVoteCounts() public view returns (CandidateInfo[] memory) {... */\n    tag_19:\n      tag_40\n      tag_82\n      jump\t// in\n        /* \"blockchain.sol\":4347:4820  function removeCandidate(uint256 candidateID) public duringRegistration {... */\n    tag_27:\n        /* \"blockchain.sol\":1351:1377  ElectionState.Registration */\n      0x00\n        /* \"blockchain.sol\":1334:1347  electionState */\n      dup1\n      sload\n      0xff\n      and\n        /* \"blockchain.sol\":1334:1377  electionState == ElectionState.Registration */\n      0x02\n      dup2\n      gt\n      iszero\n      tag_89\n      jumpi\n      tag_89\n      tag_87\n      jump\t// in\n    tag_89:\n      eq\n        /* \"blockchain.sol\":1326:1401  require(electionState == ElectionState.Registration, \"Registration closed\") */\n      tag_90\n      jumpi\n      mload(0x40)\n      shl(0xe5, 0x461bcd)\n      dup2\n      mstore\n        /* \"#utility.yul\":9611:9613   */\n      0x20\n        /* \"blockchain.sol\":1326:1401  require(electionState == ElectionState.Registration, \"Registration closed\") */\n      0x04\n      dup3\n      add\n        /* \"#utility.yul\":9593:9614   */\n      mstore\n        /* \"#utility.yul\":9650:9652   */\n      0x13\n        /* \"#utility.yul\":9630:9648   */\n      0x24\n      dup3\n      add\n        /* \"#utility.yul\":9623:9653   */\n      mstore\n      shl(0x6a, 0x149959da5cdd1c985d1a5bdb8818db1bdcd959)\n        /* \"#utility.yul\":9669:9687   */\n      0x44\n      dup3\n      add\n        /* \"#utility.yul\":9662:9711   */\n      mstore\n        /* \"#utility.yul\":9728:9746   */\n      0x64\n      add\n        /* \"blockchain.sol\":1326:1401  require(electionState == ElectionState.Registration, \"Registration closed\") */\n    tag_91:\n      mload(0x40)\n      dup1\n      swap2\n      sub\n      swap1\n      revert\n    tag_90:\n        /* \"blockchain.sol\":4437:4460  candidates[candidateID] */\n      0x00\n      dup2\n      dup2\n      mstore\n        /* \"blockchain.sol\":4437:4447  candidates */\n      0x03\n        /* \"blockchain.sol\":4437:4460  candidates[candidateID] */\n      0x20\n      dup2\n      swap1\n      mstore\n      0x40\n      swap1\n      swap2\n      keccak256\n        /* \"blockchain.sol\":4437:4467  candidates[candidateID].exists */\n      add\n      sload\n      0xff\n      and\n        /* \"blockchain.sol\":4429:4489  require(candidates[candidateID].exists, \"Invalid candidate\") */\n      tag_94\n      jumpi\n      mload(0x40)\n      shl(0xe5, 0x461bcd)\n      dup2\n      mstore\n        /* \"#utility.yul\":9959:9961   */\n      0x20\n        /* \"blockchain.sol\":4429:4489  require(candidates[candidateID].exists, \"Invalid candidate\") */\n      0x04\n      dup3\n      add\n        /* \"#utility.yul\":9941:9962   */\n      mstore\n        /* \"#utility.yul\":9998:10000   */\n      0x11\n        /* \"#utility.yul\":9978:9996   */\n      0x24\n      dup3\n      add\n        /* \"#utility.yul\":9971:10001   */\n      mstore\n        /* \"#utility.yul\":10037:10056   */\n      0x496e76616c69642063616e646964617465000000000000000000000000000000\n        /* \"#utility.yul\":10017:10035   */\n      0x44\n      dup3\n      add\n        /* \"#utility.yul\":10010:10057   */\n      mstore\n        /* \"#utility.yul\":10074:10092   */\n      0x64\n      add\n        /* \"blockchain.sol\":4429:4489  require(candidates[candidateID].exists, \"Invalid candidate\") */\n      tag_91\n        /* \"#utility.yul\":9757:10098   */\n      jump\n        /* \"blockchain.sol\":4429:4489  require(candidates[candidateID].exists, \"Invalid candidate\") */\n    tag_94:\n        /* \"blockchain.sol\":4515:4538  candidates[candidateID] */\n      0x00\n      dup2\n      dup2\n      mstore\n        /* \"blockchain.sol\":4515:4525  candidates */\n      0x03\n        /* \"blockchain.sol\":4515:4538  candidates[candidateID] */\n      0x20\n      mstore\n      0x40\n      dup2\n      keccak256\n        /* \"blockchain.sol\":4508:4538  delete candidates[candidateID] */\n      dup2\n      dup2\n      sstore\n        /* \"blockchain.sol\":4515:4538  candidates[candidateID] */\n      swap1\n        /* \"blockchain.sol\":4508:4538  delete candidates[candidateID] */\n      tag_97\n      0x01\n      dup4\n      add\n        /* \"blockchain.sol\":4515:4538  candidates[candidateID] */\n      dup3\n        /* \"blockchain.sol\":4508:4538  delete candidates[candidateID] */\n      tag_98\n      jump\t// in\n    tag_97:\n      pop\n      0x00\n      0x02\n      dup3\n      add\n      dup2\n      swap1\n      sstore\n      0x03\n      swap1\n      swap2\n      add\n      dup1\n      sload\n      not(0xff)\n      and\n      swap1\n      sstore\n        /* \"blockchain.sol\":4557:4814  for (uint256 i = 0; i < candidateIds.length; i++) {... */\n    tag_99:\n        /* \"blockchain.sol\":4581:4593  candidateIds */\n      0x05\n        /* \"blockchain.sol\":4581:4600  candidateIds.length */\n      sload\n        /* \"blockchain.sol\":4577:4600  i < candidateIds.length */\n      dup2\n      lt\n        /* \"blockchain.sol\":4557:4814  for (uint256 i = 0; i < candidateIds.length; i++) {... */\n      iszero\n      tag_100\n      jumpi\n        /* \"blockchain.sol\":4644:4655  candidateID */\n      dup2\n        /* \"blockchain.sol\":4625:4637  candidateIds */\n      0x05\n        /* \"blockchain.sol\":4638:4639  i */\n      dup3\n        /* \"blockchain.sol\":4625:4640  candidateIds[i] */\n      dup2\n      sload\n      dup2\n      lt\n      tag_103\n      jumpi\n      tag_103\n      tag_104\n      jump\t// in\n    tag_103:\n      swap1\n      0x00\n      mstore\n      keccak256(0x00, 0x20)\n      add\n      sload\n        /* \"blockchain.sol\":4625:4655  candidateIds[i] == candidateID */\n      sub\n        /* \"blockchain.sol\":4621:4804  if (candidateIds[i] == candidateID) {... */\n      tag_106\n      jumpi\n        /* \"blockchain.sol\":4693:4705  candidateIds */\n      0x05\n        /* \"blockchain.sol\":4706:4725  candidateIds.length */\n      dup1\n      sload\n        /* \"blockchain.sol\":4706:4729  candidateIds.length - 1 */\n      tag_107\n      swap1\n        /* \"blockchain.sol\":4728:4729  1 */\n      0x01\n      swap1\n        /* \"blockchain.sol\":4706:4729  candidateIds.length - 1 */\n      tag_108\n      jump\t// in\n    tag_107:\n        /* \"blockchain.sol\":4693:4730  candidateIds[candidateIds.length - 1] */\n      dup2\n      sload\n      dup2\n      lt\n      tag_110\n      jumpi\n      tag_110\n      tag_104\n      jump\t// in\n    tag_110:\n      swap1\n      0x00\n      mstore\n      keccak256(0x00, 0x20)\n      add\n      sload\n        /* \"blockchain.sol\":4675:4687  candidateIds */\n      0x05\n        /* \"blockchain.sol\":4688:4689  i */\n      dup3\n        /* \"blockchain.sol\":4675:4690  candidateIds[i] */\n      dup2\n      sload\n      dup2\n      lt\n      tag_113\n      jumpi\n      tag_113\n      tag_104\n      jump\t// in\n    tag_113:\n      0x00\n      swap2\n      dup3\n      mstore\n      0x20\n      swap1\n      swap2\n      keccak256\n      add\n        /* \"blockchain.sol\":4675:4730  candidateIds[i] = candidateIds[candidateIds.length - 1] */\n      sstore\n        /* \"blockchain.sol\":4748:4760  candidateIds */\n      0x05\n        /* \"blockchain.sol\":4748:4766  candidateIds.pop() */\n      dup1\n      sload\n      dup1\n      tag_116\n      jumpi\n      tag_116\n      tag_117\n      jump\t// in\n    tag_116:\n      0x01\n      swap1\n      sub\n      dup2\n      dup2\n      swap1\n      0x00\n      mstore\n      keccak256(0x00, 0x20)\n      add\n      0x00\n      swap1\n      sstore\n      swap1\n      sstore\n        /* \"blockchain.sol\":4557:4814  for (uint256 i = 0; i < candidateIds.length; i++) {... */\n      pop\n        /* \"blockchain.sol\":4347:4820  function removeCandidate(uint256 candidateID) public duringRegistration {... */\n      pop\n      jump\t// out\n        /* \"blockchain.sol\":4621:4804  if (candidateIds[i] == candidateID) {... */\n    tag_106:\n        /* \"blockchain.sol\":4602:4605  i++ */\n      0x01\n      add\n        /* \"blockchain.sol\":4557:4814  for (uint256 i = 0; i < candidateIds.length; i++) {... */\n      jump(tag_99)\n    tag_100:\n      pop\n        /* \"blockchain.sol\":4347:4820  function removeCandidate(uint256 candidateID) public duringRegistration {... */\n      pop\n      jump\t// out\n        /* \"blockchain.sol\":7903:8168  function getElectionStatus() public view returns (string memory) {... */\n    tag_29:\n        /* \"blockchain.sol\":7953:7966  string memory */\n      0x60\n        /* \"blockchain.sol\":7999:8025  ElectionState.Registration */\n      0x00\n        /* \"blockchain.sol\":7982:7995  electionState */\n      dup1\n      sload\n      0xff\n      and\n        /* \"blockchain.sol\":7982:8025  electionState == ElectionState.Registration */\n      0x02\n      dup2\n      gt\n      iszero\n      tag_123\n      jumpi\n      tag_123\n      tag_87\n      jump\t// in\n    tag_123:\n      sub\n        /* \"blockchain.sol\":7978:8054  if (electionState == ElectionState.Registration) return \"Registration Phase\" */\n      tag_124\n      jumpi\n      pop\n        /* \"blockchain.sol\":8027:8054  return \"Registration Phase\" */\n      0x40\n      dup1\n      mload\n      dup1\n      dup3\n      add\n      swap1\n      swap2\n      mstore\n      0x12\n      dup2\n      mstore\n      0x526567697374726174696f6e2050686173650000000000000000000000000000\n      0x20\n      dup3\n      add\n      mstore\n      swap1\n        /* \"blockchain.sol\":7903:8168  function getElectionStatus() public view returns (string memory) {... */\n      jump\t// out\n        /* \"blockchain.sol\":7978:8054  if (electionState == ElectionState.Registration) return \"Registration Phase\" */\n    tag_124:\n        /* \"blockchain.sol\":8085:8105  ElectionState.Voting */\n      0x01\n        /* \"blockchain.sol\":8068:8081  electionState */\n      and(0xff, sload(0x00))\n        /* \"blockchain.sol\":8068:8105  electionState == ElectionState.Voting */\n      0x02\n      dup2\n      gt\n      iszero\n      tag_128\n      jumpi\n      tag_128\n      tag_87\n      jump\t// in\n    tag_128:\n      sub\n        /* \"blockchain.sol\":8064:8128  if (electionState == ElectionState.Voting) return \"Voting Phase\" */\n      tag_129\n      jumpi\n      pop\n        /* \"blockchain.sol\":8107:8128  return \"Voting Phase\" */\n      0x40\n      dup1\n      mload\n      dup1\n      dup3\n      add\n      swap1\n      swap2\n      mstore\n      0x0c\n      dup2\n      mstore\n      0x566f74696e672050686173650000000000000000000000000000000000000000\n      0x20\n      dup3\n      add\n      mstore\n      swap1\n        /* \"blockchain.sol\":7903:8168  function getElectionStatus() public view returns (string memory) {... */\n      jump\t// out\n        /* \"blockchain.sol\":8064:8128  if (electionState == ElectionState.Voting) return \"Voting Phase\" */\n    tag_129:\n      pop\n        /* \"blockchain.sol\":8138:8161  return \"Election Ended\" */\n      0x40\n      dup1\n      mload\n      dup1\n      dup3\n      add\n      swap1\n      swap2\n      mstore\n      0x0e\n      dup2\n      mstore\n      0x456c656374696f6e20456e646564000000000000000000000000000000000000\n      0x20\n      dup3\n      add\n      mstore\n      swap1\n        /* \"blockchain.sol\":7903:8168  function getElectionStatus() public view returns (string memory) {... */\n      jump\t// out\n        /* \"blockchain.sol\":1703:2069  function castVote(uint256 voterID, uint256 candidateID) public duringVoting {... */\n    tag_39:\n        /* \"blockchain.sol\":1484:1504  ElectionState.Voting */\n      0x01\n        /* \"blockchain.sol\":1467:1480  electionState */\n      and(0xff, sload(0x00))\n        /* \"blockchain.sol\":1467:1504  electionState == ElectionState.Voting */\n      0x02\n      dup2\n      gt\n      iszero\n      tag_134\n      jumpi\n      tag_134\n      tag_87\n      jump\t// in\n    tag_134:\n      eq\n        /* \"blockchain.sol\":1459:1531  require(electionState == ElectionState.Voting, \"Voting not allowed now\") */\n      tag_135\n      jumpi\n      mload(0x40)\n      shl(0xe5, 0x461bcd)\n      dup2\n      mstore\n        /* \"#utility.yul\":10834:10836   */\n      0x20\n        /* \"blockchain.sol\":1459:1531  require(electionState == ElectionState.Voting, \"Voting not allowed now\") */\n      0x04\n      dup3\n      add\n        /* \"#utility.yul\":10816:10837   */\n      mstore\n        /* \"#utility.yul\":10873:10875   */\n      0x16\n        /* \"#utility.yul\":10853:10871   */\n      0x24\n      dup3\n      add\n        /* \"#utility.yul\":10846:10876   */\n      mstore\n        /* \"#utility.yul\":10912:10936   */\n      0x566f74696e67206e6f7420616c6c6f776564206e6f7700000000000000000000\n        /* \"#utility.yul\":10892:10910   */\n      0x44\n      dup3\n      add\n        /* \"#utility.yul\":10885:10937   */\n      mstore\n        /* \"#utility.yul\":10954:10972   */\n      0x64\n      add\n        /* \"blockchain.sol\":1459:1531  require(electionState == ElectionState.Voting, \"Voting not allowed now\") */\n      tag_91\n        /* \"#utility.yul\":10632:10978   */\n      jump\n        /* \"blockchain.sol\":1459:1531  require(electionState == ElectionState.Voting, \"Voting not allowed now\") */\n    tag_135:\n        /* \"blockchain.sol\":1797:1812  voters[voterID] */\n      0x00\n      dup3\n      dup2\n      mstore\n        /* \"blockchain.sol\":1797:1803  voters */\n      0x04\n        /* \"blockchain.sol\":1797:1812  voters[voterID] */\n      0x20\n      dup2\n      swap1\n      mstore\n      0x40\n      swap1\n      swap2\n      keccak256\n        /* \"blockchain.sol\":1797:1819  voters[voterID].exists */\n      add\n      sload\n      0x01000000\n      swap1\n      div\n      0xff\n      and\n        /* \"blockchain.sol\":1789:1844  require(voters[voterID].exists, \"Voter not registered\") */\n      tag_139\n      jumpi\n      mload(0x40)\n      shl(0xe5, 0x461bcd)\n      dup2\n      mstore\n        /* \"#utility.yul\":11185:11187   */\n      0x20\n        /* \"blockchain.sol\":1789:1844  require(voters[voterID].exists, \"Voter not registered\") */\n      0x04\n      dup3\n      add\n        /* \"#utility.yul\":11167:11188   */\n      mstore\n        /* \"#utility.yul\":11224:11226   */\n      0x14\n        /* \"#utility.yul\":11204:11222   */\n      0x24\n      dup3\n      add\n        /* \"#utility.yul\":11197:11227   */\n      mstore\n        /* \"#utility.yul\":11263:11285   */\n      0x566f746572206e6f742072656769737465726564000000000000000000000000\n        /* \"#utility.yul\":11243:11261   */\n      0x44\n      dup3\n      add\n        /* \"#utility.yul\":11236:11286   */\n      mstore\n        /* \"#utility.yul\":11303:11321   */\n      0x64\n      add\n        /* \"blockchain.sol\":1789:1844  require(voters[voterID].exists, \"Voter not registered\") */\n      tag_91\n        /* \"#utility.yul\":10983:11327   */\n      jump\n        /* \"blockchain.sol\":1789:1844  require(voters[voterID].exists, \"Voter not registered\") */\n    tag_139:\n        /* \"blockchain.sol\":1863:1878  voters[voterID] */\n      0x00\n      dup3\n      dup2\n      mstore\n        /* \"blockchain.sol\":1863:1869  voters */\n      0x04\n        /* \"blockchain.sol\":1863:1878  voters[voterID] */\n      0x20\n      dup2\n      swap1\n      mstore\n      0x40\n      swap1\n      swap2\n      keccak256\n        /* \"blockchain.sol\":1863:1887  voters[voterID].hasVoted */\n      add\n      sload\n      0x010000\n      swap1\n      div\n      0xff\n      and\n        /* \"blockchain.sol\":1862:1887  !voters[voterID].hasVoted */\n      iszero\n        /* \"blockchain.sol\":1854:1905  require(!voters[voterID].hasVoted, \"Already voted\") */\n      tag_142\n      jumpi\n      mload(0x40)\n      shl(0xe5, 0x461bcd)\n      dup2\n      mstore\n        /* \"#utility.yul\":11534:11536   */\n      0x20\n        /* \"blockchain.sol\":1854:1905  require(!voters[voterID].hasVoted, \"Already voted\") */\n      0x04\n      dup3\n      add\n        /* \"#utility.yul\":11516:11537   */\n      mstore\n        /* \"#utility.yul\":11573:11575   */\n      0x0d\n        /* \"#utility.yul\":11553:11571   */\n      0x24\n      dup3\n      add\n        /* \"#utility.yul\":11546:11576   */\n      mstore\n        /* \"#utility.yul\":11612:11627   */\n      0x416c726561647920766f74656400000000000000000000000000000000000000\n        /* \"#utility.yul\":11592:11610   */\n      0x44\n      dup3\n      add\n        /* \"#utility.yul\":11585:11628   */\n      mstore\n        /* \"#utility.yul\":11645:11663   */\n      0x64\n      add\n        /* \"blockchain.sol\":1854:1905  require(!voters[voterID].hasVoted, \"Already voted\") */\n      tag_91\n        /* \"#utility.yul\":11332:11669   */\n      jump\n        /* \"blockchain.sol\":1854:1905  require(!voters[voterID].hasVoted, \"Already voted\") */\n    tag_142:\n        /* \"blockchain.sol\":1923:1946  candidates[candidateID] */\n      0x00\n      dup2\n      dup2\n      mstore\n        /* \"blockchain.sol\":1923:1933  candidates */\n      0x03\n        /* \"blockchain.sol\":1923:1946  candidates[candidateID] */\n      0x20\n      dup2\n      swap1\n      mstore\n      0x40\n      swap1\n      swap2\n      keccak256\n        /* \"blockchain.sol\":1923:1953  candidates[candidateID].exists */\n      add\n      sload\n      0xff\n      and\n        /* \"blockchain.sol\":1915:1975  require(candidates[candidateID].exists, \"Invalid candidate\") */\n      tag_145\n      jumpi\n      mload(0x40)\n      shl(0xe5, 0x461bcd)\n      dup2\n      mstore\n        /* \"#utility.yul\":9959:9961   */\n      0x20\n        /* \"blockchain.sol\":1915:1975  require(candidates[candidateID].exists, \"Invalid candidate\") */\n      0x04\n      dup3\n      add\n        /* \"#utility.yul\":9941:9962   */\n      mstore\n        /* \"#utility.yul\":9998:10000   */\n      0x11\n        /* \"#utility.yul\":9978:9996   */\n      0x24\n      dup3\n      add\n        /* \"#utility.yul\":9971:10001   */\n      mstore\n        /* \"#utility.yul\":10037:10056   */\n      0x496e76616c69642063616e646964617465000000000000000000000000000000\n        /* \"#utility.yul\":10017:10035   */\n      0x44\n      dup3\n      add\n        /* \"#utility.yul\":10010:10057   */\n      mstore\n        /* \"#utility.yul\":10074:10092   */\n      0x64\n      add\n        /* \"blockchain.sol\":1915:1975  require(candidates[candidateID].exists, \"Invalid candidate\") */\n      tag_91\n        /* \"#utility.yul\":9757:10098   */\n      jump\n        /* \"blockchain.sol\":1915:1975  require(candidates[candidateID].exists, \"Invalid candidate\") */\n    tag_145:\n        /* \"blockchain.sol\":1986:2001  voters[voterID] */\n      0x00\n      dup3\n      dup2\n      mstore\n        /* \"blockchain.sol\":1986:1992  voters */\n      0x04\n        /* \"blockchain.sol\":1986:2001  voters[voterID] */\n      0x20\n      dup2\n      dup2\n      mstore\n      0x40\n      dup1\n      dup5\n      keccak256\n        /* \"blockchain.sol\":1986:2010  voters[voterID].hasVoted */\n      swap1\n      swap3\n      add\n        /* \"blockchain.sol\":1986:2017  voters[voterID].hasVoted = true */\n      dup1\n      sload\n      not(0xff0000)\n      and\n      0x010000\n      or\n      swap1\n      sstore\n        /* \"blockchain.sol\":2027:2050  candidates[candidateID] */\n      dup4\n      dup4\n      mstore\n        /* \"blockchain.sol\":2027:2037  candidates */\n      0x03\n        /* \"blockchain.sol\":2027:2050  candidates[candidateID] */\n      swap1\n      mstore\n      dup2\n      keccak256\n        /* \"blockchain.sol\":1986:2010  voters[voterID].hasVoted */\n      0x02\n        /* \"blockchain.sol\":2027:2060  candidates[candidateID].voteCount */\n      add\n        /* \"blockchain.sol\":2027:2062  candidates[candidateID].voteCount++ */\n      dup1\n      sload\n      swap2\n      tag_147\n      dup4\n      tag_148\n      jump\t// in\n    tag_147:\n      swap2\n      swap1\n      pop\n      sstore\n      pop\n        /* \"blockchain.sol\":1703:2069  function castVote(uint256 voterID, uint256 candidateID) public duringVoting {... */\n      pop\n      pop\n      jump\t// out\n        /* \"blockchain.sol\":7138:7679  function getAllCandidates() public view returns (CandidateInfo[] memory) {... */\n    tag_41:\n        /* \"blockchain.sol\":7273:7285  candidateIds */\n      0x05\n        /* \"blockchain.sol\":7273:7292  candidateIds.length */\n      sload\n        /* \"blockchain.sol\":7187:7209  CandidateInfo[] memory */\n      0x60\n      swap1\n        /* \"blockchain.sol\":7221:7250  CandidateInfo[] memory result */\n      0x00\n      swap1\n        /* \"blockchain.sol\":7253:7293  new CandidateInfo[](candidateIds.length) */\n      0xffffffffffffffff\n      dup2\n      gt\n      iszero\n      tag_151\n      jumpi\n      tag_151\n      tag_152\n      jump\t// in\n    tag_151:\n      mload(0x40)\n      swap1\n      dup1\n      dup3\n      mstore\n      dup1\n      0x20\n      mul\n      0x20\n      add\n      dup3\n      add\n      0x40\n      mstore\n      dup1\n      iszero\n      tag_153\n      jumpi\n      dup2\n      0x20\n      add\n    tag_154:\n      tag_155\n      mload(0x40)\n      dup1\n      0x60\n      add\n      0x40\n      mstore\n      dup1\n      0x00\n      dup2\n      mstore\n      0x20\n      add\n      0x60\n      dup2\n      mstore\n      0x20\n      add\n      0x00\n      dup2\n      mstore\n      pop\n      swap1\n      jump\n    tag_155:\n      dup2\n      mstore\n      0x20\n      add\n      swap1\n      0x01\n      swap1\n      sub\n      swap1\n      dup2\n      tag_154\n      jumpi\n      swap1\n      pop\n    tag_153:\n      pop\n        /* \"blockchain.sol\":7221:7293  CandidateInfo[] memory result = new CandidateInfo[](candidateIds.length) */\n      swap1\n      pop\n        /* \"blockchain.sol\":7317:7326  uint256 i */\n      0x00\n        /* \"blockchain.sol\":7312:7641  for (uint256 i = 0; i < candidateIds.length; i++) {... */\n    tag_157:\n        /* \"blockchain.sol\":7336:7348  candidateIds */\n      0x05\n        /* \"blockchain.sol\":7336:7355  candidateIds.length */\n      sload\n        /* \"blockchain.sol\":7332:7355  i < candidateIds.length */\n      dup2\n      lt\n        /* \"blockchain.sol\":7312:7641  for (uint256 i = 0; i < candidateIds.length; i++) {... */\n      iszero\n      tag_158\n      jumpi\n        /* \"blockchain.sol\":7376:7395  uint256 candidateID */\n      0x00\n        /* \"blockchain.sol\":7398:7410  candidateIds */\n      0x05\n        /* \"blockchain.sol\":7411:7412  i */\n      dup3\n        /* \"blockchain.sol\":7398:7413  candidateIds[i] */\n      dup2\n      sload\n      dup2\n      lt\n      tag_161\n      jumpi\n      tag_161\n      tag_104\n      jump\t// in\n    tag_161:\n      0x00\n      swap2\n      dup3\n      mstore\n      0x20\n      dup1\n      dup4\n      keccak256\n      swap1\n      swap2\n      add\n      sload\n        /* \"blockchain.sol\":7439:7630  CandidateInfo({... */\n      0x40\n      dup1\n      mload\n      0x60\n      dup2\n      add\n      dup3\n      mstore\n        /* \"blockchain.sol\":7475:7498  candidates[candidateID] */\n      dup3\n      dup6\n      mstore\n        /* \"blockchain.sol\":7475:7485  candidates */\n      0x03\n        /* \"blockchain.sol\":7475:7498  candidates[candidateID] */\n      dup1\n      dup6\n      mstore\n      swap2\n      dup6\n      keccak256\n        /* \"blockchain.sol\":7475:7501  candidates[candidateID].id */\n      dup1\n      sload\n        /* \"blockchain.sol\":7439:7630  CandidateInfo({... */\n      dup3\n      mstore\n        /* \"blockchain.sol\":7525:7548  candidates[candidateID] */\n      swap5\n      dup4\n      swap1\n      mstore\n      swap1\n      dup4\n      mstore\n        /* \"blockchain.sol\":7525:7553  candidates[candidateID].name */\n      0x01\n      swap1\n      swap4\n      add\n        /* \"blockchain.sol\":7439:7630  CandidateInfo({... */\n      dup1\n      sload\n        /* \"blockchain.sol\":7398:7413  candidateIds[i] */\n      swap2\n      swap5\n      pop\n        /* \"blockchain.sol\":7439:7630  CandidateInfo({... */\n      swap2\n      dup4\n      add\n      swap2\n        /* \"blockchain.sol\":7525:7553  candidates[candidateID].name */\n      swap1\n        /* \"blockchain.sol\":7439:7630  CandidateInfo({... */\n      tag_163\n      swap1\n      tag_164\n      jump\t// in\n    tag_163:\n      dup1\n      0x1f\n      add\n      0x20\n      dup1\n      swap2\n      div\n      mul\n      0x20\n      add\n      mload(0x40)\n      swap1\n      dup2\n      add\n      0x40\n      mstore\n      dup1\n      swap3\n      swap2\n      swap1\n      dup2\n      dup2\n      mstore\n      0x20\n      add\n      dup3\n      dup1\n      sload\n      tag_165\n      swap1\n      tag_164\n      jump\t// in\n    tag_165:\n      dup1\n      iszero\n      tag_166\n      jumpi\n      dup1\n      0x1f\n      lt\n      tag_167\n      jumpi\n      0x0100\n      dup1\n      dup4\n      sload\n      div\n      mul\n      dup4\n      mstore\n      swap2\n      0x20\n      add\n      swap2\n      jump(tag_166)\n    tag_167:\n      dup3\n      add\n      swap2\n      swap1\n      0x00\n      mstore\n      keccak256(0x00, 0x20)\n      swap1\n    tag_168:\n      dup2\n      sload\n      dup2\n      mstore\n      swap1\n      0x01\n      add\n      swap1\n      0x20\n      add\n      dup1\n      dup4\n      gt\n      tag_168\n      jumpi\n      dup3\n      swap1\n      sub\n      0x1f\n      and\n      dup3\n      add\n      swap2\n    tag_166:\n      pop\n      pop\n      pop\n      pop\n      pop\n      dup2\n      mstore\n      0x20\n      add\n        /* \"blockchain.sol\":7582:7592  candidates */\n      0x03\n        /* \"blockchain.sol\":7582:7605  candidates[candidateID] */\n      0x00\n        /* \"blockchain.sol\":7593:7604  candidateID */\n      dup5\n        /* \"blockchain.sol\":7582:7605  candidates[candidateID] */\n      dup2\n      mstore\n      0x20\n      add\n      swap1\n      dup2\n      mstore\n      0x20\n      add\n      0x00\n      keccak256\n        /* \"blockchain.sol\":7582:7615  candidates[candidateID].voteCount */\n      0x02\n      add\n      sload\n        /* \"blockchain.sol\":7439:7630  CandidateInfo({... */\n      dup2\n      mstore\n      pop\n        /* \"blockchain.sol\":7427:7433  result */\n      dup4\n        /* \"blockchain.sol\":7434:7435  i */\n      dup4\n        /* \"blockchain.sol\":7427:7436  result[i] */\n      dup2\n      mload\n      dup2\n      lt\n      tag_170\n      jumpi\n      tag_170\n      tag_104\n      jump\t// in\n    tag_170:\n      0x20\n      swap1\n      dup2\n      mul\n      swap2\n      swap1\n      swap2\n      add\n      add\n        /* \"blockchain.sol\":7427:7630  result[i] = CandidateInfo({... */\n      mstore\n      pop\n        /* \"blockchain.sol\":7357:7360  i++ */\n      0x01\n      add\n        /* \"blockchain.sol\":7312:7641  for (uint256 i = 0; i < candidateIds.length; i++) {... */\n      jump(tag_157)\n    tag_158:\n      pop\n        /* \"blockchain.sol\":7666:7672  result */\n      swap2\n        /* \"blockchain.sol\":7138:7679  function getAllCandidates() public view returns (CandidateInfo[] memory) {... */\n      swap1\n      pop\n      jump\t// out\n        /* \"blockchain.sol\":8559:9052  function getVoterVotingStatus() public view returns (VotingStatus[] memory) {... */\n    tag_45:\n        /* \"blockchain.sol\":8695:8703  voterIds */\n      0x06\n        /* \"blockchain.sol\":8695:8710  voterIds.length */\n      sload\n        /* \"blockchain.sol\":8612:8633  VotingStatus[] memory */\n      0x60\n      swap1\n        /* \"blockchain.sol\":8645:8673  VotingStatus[] memory result */\n      0x00\n      swap1\n        /* \"blockchain.sol\":8676:8711  new VotingStatus[](voterIds.length) */\n      0xffffffffffffffff\n      dup2\n      gt\n      iszero\n      tag_173\n      jumpi\n      tag_173\n      tag_152\n      jump\t// in\n    tag_173:\n      mload(0x40)\n      swap1\n      dup1\n      dup3\n      mstore\n      dup1\n      0x20\n      mul\n      0x20\n      add\n      dup3\n      add\n      0x40\n      mstore\n      dup1\n      iszero\n      tag_174\n      jumpi\n      dup2\n      0x20\n      add\n    tag_175:\n      tag_176\n      mload(0x40)\n      dup1\n      0x60\n      add\n      0x40\n      mstore\n      dup1\n      0x00\n      dup2\n      mstore\n      0x20\n      add\n      0x60\n      dup2\n      mstore\n      0x20\n      add\n      iszero(iszero(0x00))\n      dup2\n      mstore\n      pop\n      swap1\n      jump\n    tag_176:\n      dup2\n      mstore\n      0x20\n      add\n      swap1\n      0x01\n      swap1\n      sub\n      swap1\n      dup2\n      tag_175\n      jumpi\n      swap1\n      pop\n    tag_174:\n      pop\n        /* \"blockchain.sol\":8645:8711  VotingStatus[] memory result = new VotingStatus[](voterIds.length) */\n      swap1\n      pop\n        /* \"blockchain.sol\":8735:8744  uint256 i */\n      0x00\n        /* \"blockchain.sol\":8730:9014  for (uint256 i = 0; i < voterIds.length; i++) {... */\n    tag_178:\n        /* \"blockchain.sol\":8754:8762  voterIds */\n      0x06\n        /* \"blockchain.sol\":8754:8769  voterIds.length */\n      sload\n        /* \"blockchain.sol\":8750:8769  i < voterIds.length */\n      dup2\n      lt\n        /* \"blockchain.sol\":8730:9014  for (uint256 i = 0; i < voterIds.length; i++) {... */\n      iszero\n      tag_158\n      jumpi\n        /* \"blockchain.sol\":8790:8805  uint256 voterID */\n      0x00\n        /* \"blockchain.sol\":8808:8816  voterIds */\n      0x06\n        /* \"blockchain.sol\":8817:8818  i */\n      dup3\n        /* \"blockchain.sol\":8808:8819  voterIds[i] */\n      dup2\n      sload\n      dup2\n      lt\n      tag_182\n      jumpi\n      tag_182\n      tag_104\n      jump\t// in\n    tag_182:\n      swap1\n      0x00\n      mstore\n      keccak256(0x00, 0x20)\n      add\n      sload\n        /* \"blockchain.sol\":8790:8819  uint256 voterID = voterIds[i] */\n      swap1\n      pop\n        /* \"blockchain.sol\":8845:9003  VotingStatus({... */\n      mload(0x40)\n      dup1\n      0x60\n      add\n      0x40\n      mstore\n      dup1\n        /* \"blockchain.sol\":8885:8892  voterID */\n      dup3\n        /* \"blockchain.sol\":8845:9003  VotingStatus({... */\n      dup2\n      mstore\n      0x20\n      add\n        /* \"blockchain.sol\":8916:8922  voters */\n      0x04\n        /* \"blockchain.sol\":8916:8931  voters[voterID] */\n      0x00\n        /* \"blockchain.sol\":8923:8930  voterID */\n      dup5\n        /* \"blockchain.sol\":8916:8931  voters[voterID] */\n      dup2\n      mstore\n      0x20\n      add\n      swap1\n      dup2\n      mstore\n      0x20\n      add\n      0x00\n      keccak256\n        /* \"blockchain.sol\":8916:8936  voters[voterID].name */\n      0x01\n      add\n        /* \"blockchain.sol\":8845:9003  VotingStatus({... */\n      dup1\n      sload\n      tag_184\n      swap1\n      tag_164\n      jump\t// in\n    tag_184:\n      dup1\n      0x1f\n      add\n      0x20\n      dup1\n      swap2\n      div\n      mul\n      0x20\n      add\n      mload(0x40)\n      swap1\n      dup2\n      add\n      0x40\n      mstore\n      dup1\n      swap3\n      swap2\n      swap1\n      dup2\n      dup2\n      mstore\n      0x20\n      add\n      dup3\n      dup1\n      sload\n      tag_185\n      swap1\n      tag_164\n      jump\t// in\n    tag_185:\n      dup1\n      iszero\n      tag_186\n      jumpi\n      dup1\n      0x1f\n      lt\n      tag_187\n      jumpi\n      0x0100\n      dup1\n      dup4\n      sload\n      div\n      mul\n      dup4\n      mstore\n      swap2\n      0x20\n      add\n      swap2\n      jump(tag_186)\n    tag_187:\n      dup3\n      add\n      swap2\n      swap1\n      0x00\n      mstore\n      keccak256(0x00, 0x20)\n      swap1\n    tag_188:\n      dup2\n      sload\n      dup2\n      mstore\n      swap1\n      0x01\n      add\n      swap1\n      0x20\n      add\n      dup1\n      dup4\n      gt\n      tag_188\n      jumpi\n      dup3\n      swap1\n      sub\n      0x1f\n      and\n      dup3\n      add\n      swap2\n    tag_186:\n      pop\n      pop\n      pop\n      swap2\n      dup4\n      mstore\n      pop\n      pop\n        /* \"blockchain.sol\":8964:8979  voters[voterID] */\n      0x00\n      dup4\n      dup2\n      mstore\n        /* \"blockchain.sol\":8964:8970  voters */\n      0x04\n        /* \"blockchain.sol\":8845:9003  VotingStatus({... */\n      0x20\n        /* \"blockchain.sol\":8964:8979  voters[voterID] */\n      dup2\n      dup2\n      mstore\n      0x40\n      swap1\n      swap3\n      keccak256\n        /* \"blockchain.sol\":8964:8988  voters[voterID].hasVoted */\n      add\n      sload\n      0x010000\n      swap1\n      div\n      0xff\n      and\n        /* \"blockchain.sol\":8845:9003  VotingStatus({... */\n      iszero\n      iszero\n      swap2\n      add\n      mstore\n        /* \"blockchain.sol\":8833:8842  result[i] */\n      dup4\n      mload\n      dup5\n      swap1\n        /* \"blockchain.sol\":8840:8841  i */\n      dup5\n      swap1\n        /* \"blockchain.sol\":8833:8842  result[i] */\n      dup2\n      lt\n      tag_190\n      jumpi\n      tag_190\n      tag_104\n      jump\t// in\n    tag_190:\n      0x20\n      swap1\n      dup2\n      mul\n      swap2\n      swap1\n      swap2\n      add\n      add\n        /* \"blockchain.sol\":8833:9003  result[i] = VotingStatus({... */\n      mstore\n      pop\n        /* \"blockchain.sol\":8771:8774  i++ */\n      0x01\n      add\n        /* \"blockchain.sol\":8730:9014  for (uint256 i = 0; i < voterIds.length; i++) {... */\n      jump(tag_178)\n        /* \"blockchain.sol\":6303:7030  function getAllVoters() public view returns (VoterInfo[] memory) {... */\n    tag_49:\n        /* \"blockchain.sol\":6422:6430  voterIds */\n      0x06\n        /* \"blockchain.sol\":6422:6437  voterIds.length */\n      sload\n        /* \"blockchain.sol\":6348:6366  VoterInfo[] memory */\n      0x60\n      swap1\n        /* \"blockchain.sol\":6378:6403  VoterInfo[] memory result */\n      0x00\n      swap1\n        /* \"blockchain.sol\":6406:6438  new VoterInfo[](voterIds.length) */\n      0xffffffffffffffff\n      dup2\n      gt\n      iszero\n      tag_193\n      jumpi\n      tag_193\n      tag_152\n      jump\t// in\n    tag_193:\n      mload(0x40)\n      swap1\n      dup1\n      dup3\n      mstore\n      dup1\n      0x20\n      mul\n      0x20\n      add\n      dup3\n      add\n      0x40\n      mstore\n      dup1\n      iszero\n      tag_194\n      jumpi\n      dup2\n      0x20\n      add\n    tag_195:\n      tag_196\n      mload(0x40)\n      dup1\n      0xe0\n      add\n      0x40\n      mstore\n      dup1\n      0x00\n      dup2\n      mstore\n      0x20\n      add\n      0x60\n      dup2\n      mstore\n      0x20\n      add\n      0x60\n      dup2\n      mstore\n      0x20\n      add\n      0x60\n      dup2\n      mstore\n      0x20\n      add\n      iszero(iszero(0x00))\n      dup2\n      mstore\n      0x20\n      add\n      iszero(iszero(0x00))\n      dup2\n      mstore\n      0x20\n      add\n      iszero(iszero(0x00))\n      dup2\n      mstore\n      pop\n      swap1\n      jump\n    tag_196:\n      dup2\n      mstore\n      0x20\n      add\n      swap1\n      0x01\n      swap1\n      sub\n      swap1\n      dup2\n      tag_195\n      jumpi\n      swap1\n      pop\n    tag_194:\n      pop\n        /* \"blockchain.sol\":6378:6438  VoterInfo[] memory result = new VoterInfo[](voterIds.length) */\n      swap1\n      pop\n        /* \"blockchain.sol\":6462:6471  uint256 i */\n      0x00\n        /* \"blockchain.sol\":6457:6992  for (uint256 i = 0; i < voterIds.length; i++) {... */\n    tag_198:\n        /* \"blockchain.sol\":6481:6489  voterIds */\n      0x06\n        /* \"blockchain.sol\":6481:6496  voterIds.length */\n      sload\n        /* \"blockchain.sol\":6477:6496  i < voterIds.length */\n      dup2\n      lt\n        /* \"blockchain.sol\":6457:6992  for (uint256 i = 0; i < voterIds.length; i++) {... */\n      iszero\n      tag_158\n      jumpi\n        /* \"blockchain.sol\":6517:6532  uint256 voterID */\n      0x00\n        /* \"blockchain.sol\":6535:6543  voterIds */\n      0x06\n        /* \"blockchain.sol\":6544:6545  i */\n      dup3\n        /* \"blockchain.sol\":6535:6546  voterIds[i] */\n      dup2\n      sload\n      dup2\n      lt\n      tag_202\n      jumpi\n      tag_202\n      tag_104\n      jump\t// in\n    tag_202:\n      0x00\n      swap2\n      dup3\n      mstore\n      0x20\n      dup1\n      dup4\n      keccak256\n      swap1\n      swap2\n      add\n      sload\n        /* \"blockchain.sol\":6572:6981  VoterInfo({... */\n      0x40\n      dup1\n      mload\n      0xe0\n      dup2\n      add\n      dup3\n      mstore\n        /* \"blockchain.sol\":6604:6619  voters[voterID] */\n      dup3\n      dup6\n      mstore\n        /* \"blockchain.sol\":6604:6610  voters */\n      0x04\n        /* \"blockchain.sol\":6604:6619  voters[voterID] */\n      dup1\n      dup6\n      mstore\n      swap2\n      dup6\n      keccak256\n        /* \"blockchain.sol\":6604:6622  voters[voterID].id */\n      dup1\n      sload\n        /* \"blockchain.sol\":6572:6981  VoterInfo({... */\n      dup3\n      mstore\n        /* \"blockchain.sol\":6646:6661  voters[voterID] */\n      swap5\n      dup4\n      swap1\n      mstore\n      swap1\n      dup4\n      mstore\n        /* \"blockchain.sol\":6646:6666  voters[voterID].name */\n      0x01\n      swap1\n      swap4\n      add\n        /* \"blockchain.sol\":6572:6981  VoterInfo({... */\n      dup1\n      sload\n        /* \"blockchain.sol\":6535:6546  voterIds[i] */\n      swap2\n      swap5\n      pop\n        /* \"blockchain.sol\":6572:6981  VoterInfo({... */\n      swap2\n      dup4\n      add\n      swap2\n        /* \"blockchain.sol\":6646:6666  voters[voterID].name */\n      swap1\n        /* \"blockchain.sol\":6572:6981  VoterInfo({... */\n      tag_204\n      swap1\n      tag_164\n      jump\t// in\n    tag_204:\n      dup1\n      0x1f\n      add\n      0x20\n      dup1\n      swap2\n      div\n      mul\n      0x20\n      add\n      mload(0x40)\n      swap1\n      dup2\n      add\n      0x40\n      mstore\n      dup1\n      swap3\n      swap2\n      swap1\n      dup2\n      dup2\n      mstore\n      0x20\n      add\n      dup3\n      dup1\n      sload\n      tag_205\n      swap1\n      tag_164\n      jump\t// in\n    tag_205:\n      dup1\n      iszero\n      tag_206\n      jumpi\n      dup1\n      0x1f\n      lt\n      tag_207\n      jumpi\n      0x0100\n      dup1\n      dup4\n      sload\n      div\n      mul\n      dup4\n      mstore\n      swap2\n      0x20\n      add\n      swap2\n      jump(tag_206)\n    tag_207:\n      dup3\n      add\n      swap2\n      swap1\n      0x00\n      mstore\n      keccak256(0x00, 0x20)\n      swap1\n    tag_208:\n      dup2\n      sload\n      dup2\n      mstore\n      swap1\n      0x01\n      add\n      swap1\n      0x20\n      add\n      dup1\n      dup4\n      gt\n      tag_208\n      jumpi\n      dup3\n      swap1\n      sub\n      0x1f\n      and\n      dup3\n      add\n      swap2\n    tag_206:\n      pop\n      pop\n      pop\n      pop\n      pop\n      dup2\n      mstore\n      0x20\n      add\n        /* \"blockchain.sol\":6698:6704  voters */\n      0x04\n        /* \"blockchain.sol\":6698:6713  voters[voterID] */\n      0x00\n        /* \"blockchain.sol\":6705:6712  voterID */\n      dup5\n        /* \"blockchain.sol\":6698:6713  voters[voterID] */\n      dup2\n      mstore\n      0x20\n      add\n      swap1\n      dup2\n      mstore\n      0x20\n      add\n      0x00\n      keccak256\n        /* \"blockchain.sol\":6698:6726  voters[voterID].faceEncoding */\n      0x02\n      add\n        /* \"blockchain.sol\":6572:6981  VoterInfo({... */\n      dup1\n      sload\n      tag_209\n      swap1\n      tag_164\n      jump\t// in\n    tag_209:\n      dup1\n      0x1f\n      add\n      0x20\n      dup1\n      swap2\n      div\n      mul\n      0x20\n      add\n      mload(0x40)\n      swap1\n      dup2\n      add\n      0x40\n      mstore\n      dup1\n      swap3\n      swap2\n      swap1\n      dup2\n      dup2\n      mstore\n      0x20\n      add\n      dup3\n      dup1\n      sload\n      tag_210\n      swap1\n      tag_164\n      jump\t// in\n    tag_210:\n      dup1\n      iszero\n      tag_211\n      jumpi\n      dup1\n      0x1f\n      lt\n      tag_212\n      jumpi\n      0x0100\n      dup1\n      dup4\n      sload\n      div\n      mul\n      dup4\n      mstore\n      swap2\n      0x20\n      add\n      swap2\n      jump(tag_211)\n    tag_212:\n      dup3\n      add\n      swap2\n      swap1\n      0x00\n      mstore\n      keccak256(0x00, 0x20)\n      swap1\n    tag_213:\n      dup2\n      sload\n      dup2\n      mstore\n      swap1\n      0x01\n      add\n      swap1\n      0x20\n      add\n      dup1\n      dup4\n      gt\n      tag_213\n      jumpi\n      dup3\n      swap1\n      sub\n      0x1f\n      and\n      dup3\n      add\n      swap2\n    tag_211:\n      pop\n      pop\n      pop\n      pop\n      pop\n      dup2\n      mstore\n      0x20\n      add\n        /* \"blockchain.sol\":6760:6766  voters */\n      0x04\n        /* \"blockchain.sol\":6760:6775  voters[voterID] */\n      0x00\n        /* \"blockchain.sol\":6767:6774  voterID */\n      dup5\n        /* \"blockchain.sol\":6760:6775  voters[voterID] */\n      dup2\n      mstore\n      0x20\n      add\n      swap1\n      dup2\n      mstore\n      0x20\n      add\n      0x00\n      keccak256\n        /* \"blockchain.sol\":6760:6790  voters[voterID].fingerEncoding */\n      0x03\n      add\n        /* \"blockchain.sol\":6572:6981  VoterInfo({... */\n      dup1\n      sload\n      tag_214\n      swap1\n      tag_164\n      jump\t// in\n    tag_214:\n      dup1\n      0x1f\n      add\n      0x20\n      dup1\n      swap2\n      div\n      mul\n      0x20\n      add\n      mload(0x40)\n      swap1\n      dup2\n      add\n      0x40\n      mstore\n      dup1\n      swap3\n      swap2\n      swap1\n      dup2\n      dup2\n      mstore\n      0x20\n      add\n      dup3\n      dup1\n      sload\n      tag_215\n      swap1\n      tag_164\n      jump\t// in\n    tag_215:\n      dup1\n      iszero\n      tag_216\n      jumpi\n      dup1\n      0x1f\n      lt\n      tag_217\n      jumpi\n      0x0100\n      dup1\n      dup4\n      sload\n      div\n      mul\n      dup4\n      mstore\n      swap2\n      0x20\n      add\n      swap2\n      jump(tag_216)\n    tag_217:\n      dup3\n      add\n      swap2\n      swap1\n      0x00\n      mstore\n      keccak256(0x00, 0x20)\n      swap1\n    tag_218:\n      dup2\n      sload\n      dup2\n      mstore\n      swap1\n      0x01\n      add\n      swap1\n      0x20\n      add\n      dup1\n      dup4\n      gt\n      tag_218\n      jumpi\n      dup3\n      swap1\n      sub\n      0x1f\n      and\n      dup3\n      add\n      swap2\n    tag_216:\n      pop\n      pop\n      pop\n      swap2\n      dup4\n      mstore\n      pop\n      pop\n        /* \"blockchain.sol\":6822:6837  voters[voterID] */\n      0x00\n      dup4\n      dup2\n      mstore\n        /* \"blockchain.sol\":6822:6828  voters */\n      0x04\n        /* \"blockchain.sol\":6572:6981  VoterInfo({... */\n      0x20\n        /* \"blockchain.sol\":6822:6837  voters[voterID] */\n      dup2\n      dup2\n      mstore\n      0x40\n      dup1\n      dup5\n      keccak256\n        /* \"blockchain.sol\":6822:6850  voters[voterID].faceDisabled */\n      dup4\n      add\n      sload\n      0xff\n      dup1\n      dup3\n      and\n        /* \"blockchain.sol\":6572:6981  VoterInfo({... */\n      iszero\n      iszero\n      dup5\n      dup9\n      add\n      mstore\n        /* \"blockchain.sol\":6822:6850  voters[voterID].faceDisabled */\n      0x0100\n        /* \"blockchain.sol\":6884:6914  voters[voterID].fingerDisabled */\n      dup3\n      div\n      dup2\n      and\n        /* \"blockchain.sol\":6572:6981  VoterInfo({... */\n      iszero\n      iszero\n      swap3\n      dup8\n      add\n      swap3\n      swap1\n      swap3\n      mstore\n        /* \"blockchain.sol\":6942:6957  voters[voterID] */\n      swap4\n      dup8\n      swap1\n      mstore\n      swap2\n      swap1\n      mstore\n        /* \"blockchain.sol\":6942:6966  voters[voterID].hasVoted */\n      0x010000\n      swap1\n      swap2\n      div\n      and\n        /* \"blockchain.sol\":6572:6981  VoterInfo({... */\n      iszero\n      iszero\n      0x60\n      swap1\n      swap2\n      add\n      mstore\n        /* \"blockchain.sol\":6560:6569  result[i] */\n      dup4\n      mload\n        /* \"blockchain.sol\":6560:6566  result */\n      dup5\n      swap1\n        /* \"blockchain.sol\":6567:6568  i */\n      dup5\n      swap1\n        /* \"blockchain.sol\":6560:6569  result[i] */\n      dup2\n      lt\n      tag_220\n      jumpi\n      tag_220\n      tag_104\n      jump\t// in\n    tag_220:\n      0x20\n      swap1\n      dup2\n      mul\n      swap2\n      swap1\n      swap2\n      add\n      add\n        /* \"blockchain.sol\":6560:6981  result[i] = VoterInfo({... */\n      mstore\n      pop\n        /* \"blockchain.sol\":6498:6501  i++ */\n      0x01\n      add\n        /* \"blockchain.sol\":6457:6992  for (uint256 i = 0; i < voterIds.length; i++) {... */\n      jump(tag_198)\n        /* \"blockchain.sol\":2327:3235  function endElection() public {... */\n    tag_53:\n        /* \"blockchain.sol\":2392:2412  ElectionState.Voting */\n      0x01\n        /* \"blockchain.sol\":2375:2388  electionState */\n      and(0xff, sload(0x00))\n        /* \"blockchain.sol\":2375:2412  electionState == ElectionState.Voting */\n      0x02\n      dup2\n      gt\n      iszero\n      tag_225\n      jumpi\n      tag_225\n      tag_87\n      jump\t// in\n    tag_225:\n      eq\n        /* \"blockchain.sol\":2367:2439  require(electionState == ElectionState.Voting, \"Voting not in progress\") */\n      tag_226\n      jumpi\n      mload(0x40)\n      shl(0xe5, 0x461bcd)\n      dup2\n      mstore\n        /* \"#utility.yul\":12401:12403   */\n      0x20\n        /* \"blockchain.sol\":2367:2439  require(electionState == ElectionState.Voting, \"Voting not in progress\") */\n      0x04\n      dup3\n      add\n        /* \"#utility.yul\":12383:12404   */\n      mstore\n        /* \"#utility.yul\":12440:12442   */\n      0x16\n        /* \"#utility.yul\":12420:12438   */\n      0x24\n      dup3\n      add\n        /* \"#utility.yul\":12413:12443   */\n      mstore\n        /* \"#utility.yul\":12479:12503   */\n      0x566f74696e67206e6f7420696e2070726f677265737300000000000000000000\n        /* \"#utility.yul\":12459:12477   */\n      0x44\n      dup3\n      add\n        /* \"#utility.yul\":12452:12504   */\n      mstore\n        /* \"#utility.yul\":12521:12539   */\n      0x64\n      add\n        /* \"blockchain.sol\":2367:2439  require(electionState == ElectionState.Voting, \"Voting not in progress\") */\n      tag_91\n        /* \"#utility.yul\":12199:12545   */\n      jump\n        /* \"blockchain.sol\":2367:2439  require(electionState == ElectionState.Voting, \"Voting not in progress\") */\n    tag_226:\n        /* \"blockchain.sol\":2449:2462  electionState */\n      0x00\n        /* \"blockchain.sol\":2449:2484  electionState = ElectionState.Ended */\n      dup1\n      sload\n      not(0xff)\n      and\n        /* \"blockchain.sol\":2465:2484  ElectionState.Ended */\n      0x02\n        /* \"blockchain.sol\":2449:2484  electionState = ElectionState.Ended */\n      or\n      dup2\n      sstore\n        /* \"blockchain.sol\":2449:2462  electionState */\n      dup1\n        /* \"blockchain.sol\":2541:2809  for (uint256 i = 0; i < candidateIds.length; i++) {... */\n    tag_231:\n        /* \"blockchain.sol\":2565:2577  candidateIds */\n      0x05\n        /* \"blockchain.sol\":2565:2584  candidateIds.length */\n      sload\n        /* \"blockchain.sol\":2561:2584  i < candidateIds.length */\n      dup2\n      lt\n        /* \"blockchain.sol\":2541:2809  for (uint256 i = 0; i < candidateIds.length; i++) {... */\n      iszero\n      tag_232\n      jumpi\n        /* \"blockchain.sol\":2605:2624  uint256 candidateID */\n      0x00\n        /* \"blockchain.sol\":2627:2639  candidateIds */\n      0x05\n        /* \"blockchain.sol\":2640:2641  i */\n      dup3\n        /* \"blockchain.sol\":2627:2642  candidateIds[i] */\n      dup2\n      sload\n      dup2\n      lt\n      tag_235\n      jumpi\n      tag_235\n      tag_104\n      jump\t// in\n    tag_235:\n      swap1\n      0x00\n      mstore\n      keccak256(0x00, 0x20)\n      add\n      sload\n        /* \"blockchain.sol\":2605:2642  uint256 candidateID = candidateIds[i] */\n      swap1\n      pop\n        /* \"blockchain.sol\":2696:2712  highestVoteCount */\n      dup3\n        /* \"blockchain.sol\":2660:2670  candidates */\n      0x03\n        /* \"blockchain.sol\":2660:2683  candidates[candidateID] */\n      0x00\n        /* \"blockchain.sol\":2671:2682  candidateID */\n      dup4\n        /* \"blockchain.sol\":2660:2683  candidates[candidateID] */\n      dup2\n      mstore\n      0x20\n      add\n      swap1\n      dup2\n      mstore\n      0x20\n      add\n      0x00\n      keccak256\n        /* \"blockchain.sol\":2660:2693  candidates[candidateID].voteCount */\n      0x02\n      add\n      sload\n        /* \"blockchain.sol\":2660:2712  candidates[candidateID].voteCount > highestVoteCount */\n      gt\n        /* \"blockchain.sol\":2656:2799  if (candidates[candidateID].voteCount > highestVoteCount) {... */\n      iszero\n      tag_237\n      jumpi\n        /* \"blockchain.sol\":2751:2774  candidates[candidateID] */\n      0x00\n      dup2\n      dup2\n      mstore\n        /* \"blockchain.sol\":2751:2761  candidates */\n      0x03\n        /* \"blockchain.sol\":2751:2774  candidates[candidateID] */\n      0x20\n      mstore\n      0x40\n      swap1\n      keccak256\n        /* \"blockchain.sol\":2751:2784  candidates[candidateID].voteCount */\n      0x02\n      add\n      sload\n      swap3\n      pop\n        /* \"blockchain.sol\":2656:2799  if (candidates[candidateID].voteCount > highestVoteCount) {... */\n    tag_237:\n      pop\n        /* \"blockchain.sol\":2586:2589  i++ */\n      0x01\n      add\n        /* \"blockchain.sol\":2541:2809  for (uint256 i = 0; i < candidateIds.length; i++) {... */\n      jump(tag_231)\n    tag_232:\n      pop\n        /* \"blockchain.sol\":2819:2833  delete winners */\n      tag_238\n        /* \"blockchain.sol\":2826:2833  winners */\n      0x02\n      0x00\n        /* \"blockchain.sol\":2819:2833  delete winners */\n      tag_239\n      jump\t// in\n    tag_238:\n        /* \"blockchain.sol\":2849:2858  uint256 i */\n      0x00\n        /* \"blockchain.sol\":2844:3229  for (uint256 i = 0; i < candidateIds.length; i++) {... */\n    tag_240:\n        /* \"blockchain.sol\":2868:2880  candidateIds */\n      0x05\n        /* \"blockchain.sol\":2868:2887  candidateIds.length */\n      sload\n        /* \"blockchain.sol\":2864:2887  i < candidateIds.length */\n      dup2\n      lt\n        /* \"blockchain.sol\":2844:3229  for (uint256 i = 0; i < candidateIds.length; i++) {... */\n      iszero\n      tag_100\n      jumpi\n        /* \"blockchain.sol\":2908:2927  uint256 candidateID */\n      0x00\n        /* \"blockchain.sol\":2930:2942  candidateIds */\n      0x05\n        /* \"blockchain.sol\":2943:2944  i */\n      dup3\n        /* \"blockchain.sol\":2930:2945  candidateIds[i] */\n      dup2\n      sload\n      dup2\n      lt\n      tag_244\n      jumpi\n      tag_244\n      tag_104\n      jump\t// in\n    tag_244:\n      swap1\n      0x00\n      mstore\n      keccak256(0x00, 0x20)\n      add\n      sload\n        /* \"blockchain.sol\":2908:2945  uint256 candidateID = candidateIds[i] */\n      swap1\n      pop\n        /* \"blockchain.sol\":3000:3016  highestVoteCount */\n      dup3\n        /* \"blockchain.sol\":2963:2973  candidates */\n      0x03\n        /* \"blockchain.sol\":2963:2986  candidates[candidateID] */\n      0x00\n        /* \"blockchain.sol\":2974:2985  candidateID */\n      dup4\n        /* \"blockchain.sol\":2963:2986  candidates[candidateID] */\n      dup2\n      mstore\n      0x20\n      add\n      swap1\n      dup2\n      mstore\n      0x20\n      add\n      0x00\n      keccak256\n        /* \"blockchain.sol\":2963:2996  candidates[candidateID].voteCount */\n      0x02\n      add\n      sload\n        /* \"blockchain.sol\":2963:3016  candidates[candidateID].voteCount == highestVoteCount */\n      sub\n        /* \"blockchain.sol\":2959:3219  if (candidates[candidateID].voteCount == highestVoteCount) {... */\n      tag_246\n      jumpi\n        /* \"blockchain.sol\":3036:3043  winners */\n      0x02\n        /* \"blockchain.sol\":3049:3203  Winner({... */\n      mload(0x40)\n      dup1\n      0x60\n      add\n      0x40\n      mstore\n      dup1\n        /* \"blockchain.sol\":3082:3093  candidateID */\n      dup4\n        /* \"blockchain.sol\":3049:3203  Winner({... */\n      dup2\n      mstore\n      0x20\n      add\n        /* \"blockchain.sol\":3121:3131  candidates */\n      0x03\n        /* \"blockchain.sol\":3121:3144  candidates[candidateID] */\n      0x00\n        /* \"blockchain.sol\":3132:3143  candidateID */\n      dup6\n        /* \"blockchain.sol\":3121:3144  candidates[candidateID] */\n      dup2\n      mstore\n      0x20\n      add\n      swap1\n      dup2\n      mstore\n      0x20\n      add\n      0x00\n      keccak256\n        /* \"blockchain.sol\":3121:3149  candidates[candidateID].name */\n      0x01\n      add\n        /* \"blockchain.sol\":3049:3203  Winner({... */\n      dup1\n      sload\n      tag_247\n      swap1\n      tag_164\n      jump\t// in\n    tag_247:\n      dup1\n      0x1f\n      add\n      0x20\n      dup1\n      swap2\n      div\n      mul\n      0x20\n      add\n      mload(0x40)\n      swap1\n      dup2\n      add\n      0x40\n      mstore\n      dup1\n      swap3\n      swap2\n      swap1\n      dup2\n      dup2\n      mstore\n      0x20\n      add\n      dup3\n      dup1\n      sload\n      tag_248\n      swap1\n      tag_164\n      jump\t// in\n    tag_248:\n      dup1\n      iszero\n      tag_249\n      jumpi\n      dup1\n      0x1f\n      lt\n      tag_250\n      jumpi\n      0x0100\n      dup1\n      dup4\n      sload\n      div\n      mul\n      dup4\n      mstore\n      swap2\n      0x20\n      add\n      swap2\n      jump(tag_249)\n    tag_250:\n      dup3\n      add\n      swap2\n      swap1\n      0x00\n      mstore\n      keccak256(0x00, 0x20)\n      swap1\n    tag_251:\n      dup2\n      sload\n      dup2\n      mstore\n      swap1\n      0x01\n      add\n      swap1\n      0x20\n      add\n      dup1\n      dup4\n      gt\n      tag_251\n      jumpi\n      dup3\n      swap1\n      sub\n      0x1f\n      and\n      dup3\n      add\n      swap2\n    tag_249:\n      pop\n      pop\n      pop\n      swap2\n      dup4\n      mstore\n      pop\n      pop\n      0x40\n      dup1\n      mload\n      0x20\n      dup2\n      dup2\n      add\n      swap1\n      swap3\n      mstore\n      0x00\n      dup1\n      dup3\n      mstore\n      swap3\n      dup3\n      add\n      mstore\n        /* \"blockchain.sol\":3036:3204  winners.push(Winner({... */\n      dup4\n      sload\n      0x01\n      dup2\n      dup2\n      add\n      dup7\n      sstore\n      swap5\n      dup4\n      mstore\n      swap2\n      dup2\n      swap1\n      keccak256\n      dup4\n      mload\n      0x03\n      swap1\n      swap4\n      mul\n      add\n      swap2\n      dup3\n      sstore\n      dup3\n      add\n      mload\n      swap2\n      swap3\n      swap1\n      swap2\n      swap1\n      dup3\n      add\n      swap1\n      tag_253\n      swap1\n      dup3\n      tag_254\n      jump\t// in\n    tag_253:\n      pop\n      0x40\n      dup3\n      add\n      mload\n      0x02\n      dup3\n      add\n      swap1\n      tag_255\n      swap1\n      dup3\n      tag_254\n      jump\t// in\n    tag_255:\n      pop\n      pop\n      pop\n        /* \"blockchain.sol\":2959:3219  if (candidates[candidateID].voteCount == highestVoteCount) {... */\n    tag_246:\n      pop\n        /* \"blockchain.sol\":2889:2892  i++ */\n      0x01\n      add\n        /* \"blockchain.sol\":2844:3229  for (uint256 i = 0; i < candidateIds.length; i++) {... */\n      jump(tag_240)\n        /* \"blockchain.sol\":2075:2321  function startElection() public {... */\n    tag_55:\n        /* \"blockchain.sol\":2142:2168  ElectionState.Registration */\n      0x00\n        /* \"blockchain.sol\":2125:2138  electionState */\n      dup1\n      sload\n      0xff\n      and\n        /* \"blockchain.sol\":2125:2168  electionState == ElectionState.Registration */\n      0x02\n      dup2\n      gt\n      iszero\n      tag_260\n      jumpi\n      tag_260\n      tag_87\n      jump\t// in\n    tag_260:\n      eq\n        /* \"blockchain.sol\":2117:2198  require(electionState == ElectionState.Registration, \"Not in registration phase\") */\n      tag_261\n      jumpi\n      mload(0x40)\n      shl(0xe5, 0x461bcd)\n      dup2\n      mstore\n        /* \"#utility.yul\":14922:14924   */\n      0x20\n        /* \"blockchain.sol\":2117:2198  require(electionState == ElectionState.Registration, \"Not in registration phase\") */\n      0x04\n      dup3\n      add\n        /* \"#utility.yul\":14904:14925   */\n      mstore\n        /* \"#utility.yul\":14961:14963   */\n      0x19\n        /* \"#utility.yul\":14941:14959   */\n      0x24\n      dup3\n      add\n        /* \"#utility.yul\":14934:14964   */\n      mstore\n        /* \"#utility.yul\":15000:15027   */\n      0x4e6f7420696e20726567697374726174696f6e20706861736500000000000000\n        /* \"#utility.yul\":14980:14998   */\n      0x44\n      dup3\n      add\n        /* \"#utility.yul\":14973:15028   */\n      mstore\n        /* \"#utility.yul\":15045:15063   */\n      0x64\n      add\n        /* \"blockchain.sol\":2117:2198  require(electionState == ElectionState.Registration, \"Not in registration phase\") */\n      tag_91\n        /* \"#utility.yul\":14720:15069   */\n      jump\n        /* \"blockchain.sol\":2117:2198  require(electionState == ElectionState.Registration, \"Not in registration phase\") */\n    tag_261:\n        /* \"blockchain.sol\":2216:2228  candidateIds */\n      0x05\n        /* \"blockchain.sol\":2216:2235  candidateIds.length */\n      sload\n        /* \"blockchain.sol\":2208:2268  require(candidateIds.length > 0, \"No candidates registered\") */\n      tag_264\n      jumpi\n      mload(0x40)\n      shl(0xe5, 0x461bcd)\n      dup2\n      mstore\n        /* \"#utility.yul\":15276:15278   */\n      0x20\n        /* \"blockchain.sol\":2208:2268  require(candidateIds.length > 0, \"No candidates registered\") */\n      0x04\n      dup3\n      add\n        /* \"#utility.yul\":15258:15279   */\n      mstore\n        /* \"#utility.yul\":15315:15317   */\n      0x18\n        /* \"#utility.yul\":15295:15313   */\n      0x24\n      dup3\n      add\n        /* \"#utility.yul\":15288:15318   */\n      mstore\n        /* \"#utility.yul\":15354:15380   */\n      0x4e6f2063616e6469646174657320726567697374657265640000000000000000\n        /* \"#utility.yul\":15334:15352   */\n      0x44\n      dup3\n      add\n        /* \"#utility.yul\":15327:15381   */\n      mstore\n        /* \"#utility.yul\":15398:15416   */\n      0x64\n      add\n        /* \"blockchain.sol\":2208:2268  require(candidateIds.length > 0, \"No candidates registered\") */\n      tag_91\n        /* \"#utility.yul\":15074:15422   */\n      jump\n        /* \"blockchain.sol\":2208:2268  require(candidateIds.length > 0, \"No candidates registered\") */\n    tag_264:\n        /* \"blockchain.sol\":2278:2291  electionState */\n      0x00\n        /* \"blockchain.sol\":2278:2314  electionState = ElectionState.Voting */\n      dup1\n      sload\n      not(0xff)\n      and\n        /* \"blockchain.sol\":2294:2314  ElectionState.Voting */\n      0x01\n        /* \"blockchain.sol\":2278:2314  electionState = ElectionState.Voting */\n      or\n      swap1\n      sstore\n        /* \"blockchain.sol\":2075:2321  function startElection() public {... */\n      jump\t// out\n        /* \"blockchain.sol\":5644:6063  function removeVoter(uint256 voterID) public duringRegistration {... */\n    tag_62:\n        /* \"blockchain.sol\":1351:1377  ElectionState.Registration */\n      0x00\n        /* \"blockchain.sol\":1334:1347  electionState */\n      dup1\n      sload\n      0xff\n      and\n        /* \"blockchain.sol\":1334:1377  electionState == ElectionState.Registration */\n      0x02\n      dup2\n      gt\n      iszero\n      tag_274\n      jumpi\n      tag_274\n      tag_87\n      jump\t// in\n    tag_274:\n      eq\n        /* \"blockchain.sol\":1326:1401  require(electionState == ElectionState.Registration, \"Registration closed\") */\n      tag_275\n      jumpi\n      mload(0x40)\n      shl(0xe5, 0x461bcd)\n      dup2\n      mstore\n        /* \"#utility.yul\":9611:9613   */\n      0x20\n        /* \"blockchain.sol\":1326:1401  require(electionState == ElectionState.Registration, \"Registration closed\") */\n      0x04\n      dup3\n      add\n        /* \"#utility.yul\":9593:9614   */\n      mstore\n        /* \"#utility.yul\":9650:9652   */\n      0x13\n        /* \"#utility.yul\":9630:9648   */\n      0x24\n      dup3\n      add\n        /* \"#utility.yul\":9623:9653   */\n      mstore\n      shl(0x6a, 0x149959da5cdd1c985d1a5bdb8818db1bdcd959)\n        /* \"#utility.yul\":9669:9687   */\n      0x44\n      dup3\n      add\n        /* \"#utility.yul\":9662:9711   */\n      mstore\n        /* \"#utility.yul\":9728:9746   */\n      0x64\n      add\n        /* \"blockchain.sol\":1326:1401  require(electionState == ElectionState.Registration, \"Registration closed\") */\n      tag_91\n        /* \"#utility.yul\":9409:9752   */\n      jump\n        /* \"blockchain.sol\":1326:1401  require(electionState == ElectionState.Registration, \"Registration closed\") */\n    tag_275:\n        /* \"blockchain.sol\":5726:5741  voters[voterID] */\n      0x00\n      dup2\n      dup2\n      mstore\n        /* \"blockchain.sol\":5726:5732  voters */\n      0x04\n        /* \"blockchain.sol\":5726:5741  voters[voterID] */\n      0x20\n      dup2\n      swap1\n      mstore\n      0x40\n      swap1\n      swap2\n      keccak256\n        /* \"blockchain.sol\":5726:5748  voters[voterID].exists */\n      add\n      sload\n      0x01000000\n      swap1\n      div\n      0xff\n      and\n        /* \"blockchain.sol\":5718:5768  require(voters[voterID].exists, \"Voter not found\") */\n      tag_278\n      jumpi\n      mload(0x40)\n      shl(0xe5, 0x461bcd)\n      dup2\n      mstore\n        /* \"#utility.yul\":15629:15631   */\n      0x20\n        /* \"blockchain.sol\":5718:5768  require(voters[voterID].exists, \"Voter not found\") */\n      0x04\n      dup3\n      add\n        /* \"#utility.yul\":15611:15632   */\n      mstore\n        /* \"#utility.yul\":15668:15670   */\n      0x0f\n        /* \"#utility.yul\":15648:15666   */\n      0x24\n      dup3\n      add\n        /* \"#utility.yul\":15641:15671   */\n      mstore\n        /* \"#utility.yul\":15707:15724   */\n      0x566f746572206e6f7420666f756e640000000000000000000000000000000000\n        /* \"#utility.yul\":15687:15705   */\n      0x44\n      dup3\n      add\n        /* \"#utility.yul\":15680:15725   */\n      mstore\n        /* \"#utility.yul\":15742:15760   */\n      0x64\n      add\n        /* \"blockchain.sol\":5718:5768  require(voters[voterID].exists, \"Voter not found\") */\n      tag_91\n        /* \"#utility.yul\":15427:15766   */\n      jump\n        /* \"blockchain.sol\":5718:5768  require(voters[voterID].exists, \"Voter not found\") */\n    tag_278:\n        /* \"blockchain.sol\":5794:5809  voters[voterID] */\n      0x00\n      dup2\n      dup2\n      mstore\n        /* \"blockchain.sol\":5794:5800  voters */\n      0x04\n        /* \"blockchain.sol\":5794:5809  voters[voterID] */\n      0x20\n      mstore\n      0x40\n      dup2\n      keccak256\n        /* \"blockchain.sol\":5787:5809  delete voters[voterID] */\n      dup2\n      dup2\n      sstore\n        /* \"blockchain.sol\":5794:5809  voters[voterID] */\n      swap1\n        /* \"blockchain.sol\":5787:5809  delete voters[voterID] */\n      tag_281\n      0x01\n      dup4\n      add\n        /* \"blockchain.sol\":5794:5809  voters[voterID] */\n      dup3\n        /* \"blockchain.sol\":5787:5809  delete voters[voterID] */\n      tag_98\n      jump\t// in\n    tag_281:\n      tag_282\n      0x02\n      dup4\n      add\n      0x00\n      tag_98\n      jump\t// in\n    tag_282:\n      tag_283\n      0x03\n      dup4\n      add\n      0x00\n      tag_98\n      jump\t// in\n    tag_283:\n      pop\n      0x04\n      add\n      dup1\n      sload\n      not(0xffffffff)\n      and\n      swap1\n      sstore\n      0x00\n        /* \"blockchain.sol\":5828:6057  for (uint256 i = 0; i < voterIds.length; i++) {... */\n    tag_284:\n        /* \"blockchain.sol\":5852:5860  voterIds */\n      0x06\n        /* \"blockchain.sol\":5852:5867  voterIds.length */\n      sload\n        /* \"blockchain.sol\":5848:5867  i < voterIds.length */\n      dup2\n      lt\n        /* \"blockchain.sol\":5828:6057  for (uint256 i = 0; i < voterIds.length; i++) {... */\n      iszero\n      tag_100\n      jumpi\n        /* \"blockchain.sol\":5907:5914  voterID */\n      dup2\n        /* \"blockchain.sol\":5892:5900  voterIds */\n      0x06\n        /* \"blockchain.sol\":5901:5902  i */\n      dup3\n        /* \"blockchain.sol\":5892:5903  voterIds[i] */\n      dup2\n      sload\n      dup2\n      lt\n      tag_288\n      jumpi\n      tag_288\n      tag_104\n      jump\t// in\n    tag_288:\n      swap1\n      0x00\n      mstore\n      keccak256(0x00, 0x20)\n      add\n      sload\n        /* \"blockchain.sol\":5892:5914  voterIds[i] == voterID */\n      sub\n        /* \"blockchain.sol\":5888:6047  if (voterIds[i] == voterID) {... */\n      tag_290\n      jumpi\n        /* \"blockchain.sol\":5948:5956  voterIds */\n      0x06\n        /* \"blockchain.sol\":5957:5972  voterIds.length */\n      dup1\n      sload\n        /* \"blockchain.sol\":5957:5976  voterIds.length - 1 */\n      tag_291\n      swap1\n        /* \"blockchain.sol\":5975:5976  1 */\n      0x01\n      swap1\n        /* \"blockchain.sol\":5957:5976  voterIds.length - 1 */\n      tag_108\n      jump\t// in\n    tag_291:\n        /* \"blockchain.sol\":5948:5977  voterIds[voterIds.length - 1] */\n      dup2\n      sload\n      dup2\n      lt\n      tag_293\n      jumpi\n      tag_293\n      tag_104\n      jump\t// in\n    tag_293:\n      swap1\n      0x00\n      mstore\n      keccak256(0x00, 0x20)\n      add\n      sload\n        /* \"blockchain.sol\":5934:5942  voterIds */\n      0x06\n        /* \"blockchain.sol\":5943:5944  i */\n      dup3\n        /* \"blockchain.sol\":5934:5945  voterIds[i] */\n      dup2\n      sload\n      dup2\n      lt\n      tag_296\n      jumpi\n      tag_296\n      tag_104\n      jump\t// in\n    tag_296:\n      0x00\n      swap2\n      dup3\n      mstore\n      0x20\n      swap1\n      swap2\n      keccak256\n      add\n        /* \"blockchain.sol\":5934:5977  voterIds[i] = voterIds[voterIds.length - 1] */\n      sstore\n        /* \"blockchain.sol\":5995:6003  voterIds */\n      0x06\n        /* \"blockchain.sol\":5995:6009  voterIds.pop() */\n      dup1\n      sload\n      dup1\n      tag_116\n      jumpi\n      tag_116\n      tag_117\n      jump\t// in\n        /* \"blockchain.sol\":5888:6047  if (voterIds[i] == voterID) {... */\n    tag_290:\n        /* \"blockchain.sol\":5869:5872  i++ */\n      0x01\n      add\n        /* \"blockchain.sol\":5828:6057  for (uint256 i = 0; i < voterIds.length; i++) {... */\n      jump(tag_284)\n        /* \"blockchain.sol\":8292:8451  function getWinner() public view electionEnded returns (Winner[] memory) {... */\n    tag_64:\n        /* \"blockchain.sol\":8348:8363  Winner[] memory */\n      0x60\n        /* \"blockchain.sol\":1615:1634  ElectionState.Ended */\n      0x02\n        /* \"blockchain.sol\":1598:1611  electionState */\n      and(0xff, sload(0x00))\n        /* \"blockchain.sol\":1598:1634  electionState == ElectionState.Ended */\n      0x02\n      dup2\n      gt\n      iszero\n      tag_305\n      jumpi\n      tag_305\n      tag_87\n      jump\t// in\n    tag_305:\n      eq\n        /* \"blockchain.sol\":1590:1657  require(electionState == ElectionState.Ended, \"Election not ended\") */\n      tag_306\n      jumpi\n      mload(0x40)\n      shl(0xe5, 0x461bcd)\n      dup2\n      mstore\n        /* \"#utility.yul\":15973:15975   */\n      0x20\n        /* \"blockchain.sol\":1590:1657  require(electionState == ElectionState.Ended, \"Election not ended\") */\n      0x04\n      dup3\n      add\n        /* \"#utility.yul\":15955:15976   */\n      mstore\n        /* \"#utility.yul\":16012:16014   */\n      0x12\n        /* \"#utility.yul\":15992:16010   */\n      0x24\n      dup3\n      add\n        /* \"#utility.yul\":15985:16015   */\n      mstore\n        /* \"#utility.yul\":16051:16071   */\n      0x456c656374696f6e206e6f7420656e6465640000000000000000000000000000\n        /* \"#utility.yul\":16031:16049   */\n      0x44\n      dup3\n      add\n        /* \"#utility.yul\":16024:16072   */\n      mstore\n        /* \"#utility.yul\":16089:16107   */\n      0x64\n      add\n        /* \"blockchain.sol\":1590:1657  require(electionState == ElectionState.Ended, \"Election not ended\") */\n      tag_91\n        /* \"#utility.yul\":15771:16113   */\n      jump\n        /* \"blockchain.sol\":1590:1657  require(electionState == ElectionState.Ended, \"Election not ended\") */\n    tag_306:\n        /* \"blockchain.sol\":8383:8390  winners */\n      0x02\n        /* \"blockchain.sol\":8383:8397  winners.length */\n      sload\n        /* \"blockchain.sol\":8375:8420  require(winners.length > 0, \"No winners yet\") */\n      tag_310\n      jumpi\n      mload(0x40)\n      shl(0xe5, 0x461bcd)\n      dup2\n      mstore\n        /* \"#utility.yul\":16320:16322   */\n      0x20\n        /* \"blockchain.sol\":8375:8420  require(winners.length > 0, \"No winners yet\") */\n      0x04\n      dup3\n      add\n        /* \"#utility.yul\":16302:16323   */\n      mstore\n        /* \"#utility.yul\":16359:16361   */\n      0x0e\n        /* \"#utility.yul\":16339:16357   */\n      0x24\n      dup3\n      add\n        /* \"#utility.yul\":16332:16362   */\n      mstore\n        /* \"#utility.yul\":16398:16414   */\n      0x4e6f2077696e6e65727320796574000000000000000000000000000000000000\n        /* \"#utility.yul\":16378:16396   */\n      0x44\n      dup3\n      add\n        /* \"#utility.yul\":16371:16415   */\n      mstore\n        /* \"#utility.yul\":16432:16450   */\n      0x64\n      add\n        /* \"blockchain.sol\":8375:8420  require(winners.length > 0, \"No winners yet\") */\n      tag_91\n        /* \"#utility.yul\":16118:16456   */\n      jump\n        /* \"blockchain.sol\":8375:8420  require(winners.length > 0, \"No winners yet\") */\n    tag_310:\n        /* \"blockchain.sol\":8437:8444  winners */\n      0x02\n        /* \"blockchain.sol\":8430:8444  return winners */\n      dup1\n      sload\n      dup1\n      0x20\n      mul\n      0x20\n      add\n      mload(0x40)\n      swap1\n      dup2\n      add\n      0x40\n      mstore\n      dup1\n      swap3\n      swap2\n      swap1\n      dup2\n      dup2\n      mstore\n      0x20\n      add\n      0x00\n      swap1\n    tag_313:\n      dup3\n      dup3\n      lt\n      iszero\n      tag_314\n      jumpi\n      dup4\n      dup3\n      swap1\n      0x00\n      mstore\n      keccak256(0x00, 0x20)\n      swap1\n      0x03\n      mul\n      add\n      mload(0x40)\n      dup1\n      0x60\n      add\n      0x40\n      mstore\n      swap1\n      dup2\n      0x00\n      dup3\n      add\n      sload\n      dup2\n      mstore\n      0x20\n      add\n      0x01\n      dup3\n      add\n      dup1\n      sload\n      tag_316\n      swap1\n      tag_164\n      jump\t// in\n    tag_316:\n      dup1\n      0x1f\n      add\n      0x20\n      dup1\n      swap2\n      div\n      mul\n      0x20\n      add\n      mload(0x40)\n      swap1\n      dup2\n      add\n      0x40\n      mstore\n      dup1\n      swap3\n      swap2\n      swap1\n      dup2\n      dup2\n      mstore\n      0x20\n      add\n      dup3\n      dup1\n      sload\n      tag_317\n      swap1\n      tag_164\n      jump\t// in\n    tag_317:\n      dup1\n      iszero\n      tag_318\n      jumpi\n      dup1\n      0x1f\n      lt\n      tag_319\n      jumpi\n      0x0100\n      dup1\n      dup4\n      sload\n      div\n      mul\n      dup4\n      mstore\n      swap2\n      0x20\n      add\n      swap2\n      jump(tag_318)\n    tag_319:\n      dup3\n      add\n      swap2\n      swap1\n      0x00\n      mstore\n      keccak256(0x00, 0x20)\n      swap1\n    tag_320:\n      dup2\n      sload\n      dup2\n      mstore\n      swap1\n      0x01\n      add\n      swap1\n      0x20\n      add\n      dup1\n      dup4\n      gt\n      tag_320\n      jumpi\n      dup3\n      swap1\n      sub\n      0x1f\n      and\n      dup3\n      add\n      swap2\n    tag_318:\n      pop\n      pop\n      pop\n      pop\n      pop\n      dup2\n      mstore\n      0x20\n      add\n      0x02\n      dup3\n      add\n      dup1\n      sload\n      tag_321\n      swap1\n      tag_164\n      jump\t// in\n    tag_321:\n      dup1\n      0x1f\n      add\n      0x20\n      dup1\n      swap2\n      div\n      mul\n      0x20\n      add\n      mload(0x40)\n      swap1\n      dup2\n      add\n      0x40\n      mstore\n      dup1\n      swap3\n      swap2\n      swap1\n      dup2\n      dup2\n      mstore\n      0x20\n      add\n      dup3\n      dup1\n      sload\n      tag_322\n      swap1\n      tag_164\n      jump\t// in\n    tag_322:\n      dup1\n      iszero\n      tag_323\n      jumpi\n      dup1\n      0x1f\n      lt\n      tag_324\n      jumpi\n      0x0100\n      dup1\n      dup4\n      sload\n      div\n      mul\n      dup4\n      mstore\n      swap2\n      0x20\n      add\n      swap2\n      jump(tag_323)\n    tag_324:\n      dup3\n      add\n      swap2\n      swap1\n      0x00\n      mstore\n      keccak256(0x00, 0x20)\n      swap1\n    tag_325:\n      dup2\n      sload\n      dup2\n      mstore\n      swap1\n      0x01\n      add\n      swap1\n      0x20\n      add\n      dup1\n      dup4\n      gt\n      tag_325\n      jumpi\n      dup3\n      swap1\n      sub\n      0x1f\n      and\n      dup3\n      add\n      swap2\n    tag_323:\n      pop\n      pop\n      pop\n      pop\n      pop\n      dup2\n      mstore\n      pop\n      pop\n      dup2\n      mstore\n      0x20\n      add\n      swap1\n      0x01\n      add\n      swap1\n      jump(tag_313)\n    tag_314:\n      pop\n      pop\n      pop\n      pop\n      swap1\n      pop\n        /* \"blockchain.sol\":8292:8451  function getWinner() public view electionEnded returns (Winner[] memory) {... */\n      swap1\n      jump\t// out\n        /* \"blockchain.sol\":4826:5638  function registerVoter(... */\n    tag_70:\n        /* \"blockchain.sol\":1351:1377  ElectionState.Registration */\n      0x00\n        /* \"blockchain.sol\":1334:1347  electionState */\n      dup1\n      sload\n      0xff\n      and\n        /* \"blockchain.sol\":1334:1377  electionState == ElectionState.Registration */\n      0x02\n      dup2\n      gt\n      iszero\n      tag_330\n      jumpi\n      tag_330\n      tag_87\n      jump\t// in\n    tag_330:\n      eq\n        /* \"blockchain.sol\":1326:1401  require(electionState == ElectionState.Registration, \"Registration closed\") */\n      tag_331\n      jumpi\n      mload(0x40)\n      shl(0xe5, 0x461bcd)\n      dup2\n      mstore\n        /* \"#utility.yul\":9611:9613   */\n      0x20\n        /* \"blockchain.sol\":1326:1401  require(electionState == ElectionState.Registration, \"Registration closed\") */\n      0x04\n      dup3\n      add\n        /* \"#utility.yul\":9593:9614   */\n      mstore\n        /* \"#utility.yul\":9650:9652   */\n      0x13\n        /* \"#utility.yul\":9630:9648   */\n      0x24\n      dup3\n      add\n        /* \"#utility.yul\":9623:9653   */\n      mstore\n      shl(0x6a, 0x149959da5cdd1c985d1a5bdb8818db1bdcd959)\n        /* \"#utility.yul\":9669:9687   */\n      0x44\n      dup3\n      add\n        /* \"#utility.yul\":9662:9711   */\n      mstore\n        /* \"#utility.yul\":9728:9746   */\n      0x64\n      add\n        /* \"blockchain.sol\":1326:1401  require(electionState == ElectionState.Registration, \"Registration closed\") */\n      tag_91\n        /* \"#utility.yul\":9409:9752   */\n      jump\n        /* \"blockchain.sol\":1326:1401  require(electionState == ElectionState.Registration, \"Registration closed\") */\n    tag_331:\n        /* \"blockchain.sol\":5089:5101  faceDisabled */\n      dup2\n        /* \"blockchain.sol\":5089:5119  faceDisabled && fingerDisabled */\n      dup1\n      iszero\n      tag_334\n      jumpi\n      pop\n        /* \"blockchain.sol\":5105:5119  fingerDisabled */\n      dup1\n        /* \"blockchain.sol\":5089:5119  faceDisabled && fingerDisabled */\n    tag_334:\n        /* \"blockchain.sol\":5087:5120  !(faceDisabled && fingerDisabled) */\n      iszero\n        /* \"blockchain.sol\":5079:5152  require(!(faceDisabled && fingerDisabled), \"Need at least one biometric\") */\n      tag_335\n      jumpi\n      mload(0x40)\n      shl(0xe5, 0x461bcd)\n      dup2\n      mstore\n        /* \"#utility.yul\":16663:16665   */\n      0x20\n        /* \"blockchain.sol\":5079:5152  require(!(faceDisabled && fingerDisabled), \"Need at least one biometric\") */\n      0x04\n      dup3\n      add\n        /* \"#utility.yul\":16645:16666   */\n      mstore\n        /* \"#utility.yul\":16702:16704   */\n      0x1b\n        /* \"#utility.yul\":16682:16700   */\n      0x24\n      dup3\n      add\n        /* \"#utility.yul\":16675:16705   */\n      mstore\n        /* \"#utility.yul\":16741:16770   */\n      0x4e656564206174206c65617374206f6e652062696f6d65747269630000000000\n        /* \"#utility.yul\":16721:16739   */\n      0x44\n      dup3\n      add\n        /* \"#utility.yul\":16714:16771   */\n      mstore\n        /* \"#utility.yul\":16788:16806   */\n      0x64\n      add\n        /* \"blockchain.sol\":5079:5152  require(!(faceDisabled && fingerDisabled), \"Need at least one biometric\") */\n      tag_91\n        /* \"#utility.yul\":16461:16812   */\n      jump\n        /* \"blockchain.sol\":5079:5152  require(!(faceDisabled && fingerDisabled), \"Need at least one biometric\") */\n    tag_335:\n        /* \"blockchain.sol\":5171:5186  voters[voterID] */\n      0x00\n      dup6\n      dup2\n      mstore\n        /* \"blockchain.sol\":5171:5177  voters */\n      0x04\n        /* \"blockchain.sol\":5171:5186  voters[voterID] */\n      0x20\n      dup2\n      swap1\n      mstore\n      0x40\n      swap1\n      swap2\n      keccak256\n        /* \"blockchain.sol\":5171:5193  voters[voterID].exists */\n      add\n      sload\n      0x01000000\n      swap1\n      div\n      0xff\n      and\n        /* \"blockchain.sol\":5170:5193  !voters[voterID].exists */\n      iszero\n        /* \"blockchain.sol\":5162:5222  require(!voters[voterID].exists, \"Voter already registered\") */\n      tag_338\n      jumpi\n      mload(0x40)\n      shl(0xe5, 0x461bcd)\n      dup2\n      mstore\n        /* \"#utility.yul\":17019:17021   */\n      0x20\n        /* \"blockchain.sol\":5162:5222  require(!voters[voterID].exists, \"Voter already registered\") */\n      0x04\n      dup3\n      add\n        /* \"#utility.yul\":17001:17022   */\n      mstore\n        /* \"#utility.yul\":17058:17060   */\n      0x18\n        /* \"#utility.yul\":17038:17056   */\n      0x24\n      dup3\n      add\n        /* \"#utility.yul\":17031:17061   */\n      mstore\n        /* \"#utility.yul\":17097:17123   */\n      0x566f74657220616c726561647920726567697374657265640000000000000000\n        /* \"#utility.yul\":17077:17095   */\n      0x44\n      dup3\n      add\n        /* \"#utility.yul\":17070:17124   */\n      mstore\n        /* \"#utility.yul\":17141:17159   */\n      0x64\n      add\n        /* \"blockchain.sol\":5162:5222  require(!voters[voterID].exists, \"Voter already registered\") */\n      tag_91\n        /* \"#utility.yul\":16817:17165   */\n      jump\n        /* \"blockchain.sol\":5162:5222  require(!voters[voterID].exists, \"Voter already registered\") */\n    tag_338:\n        /* \"blockchain.sol\":5259:5590  Voter({... */\n      mload(0x40)\n      dup1\n      0x0100\n      add\n      0x40\n      mstore\n      dup1\n        /* \"blockchain.sol\":5283:5290  voterID */\n      dup7\n        /* \"blockchain.sol\":5259:5590  Voter({... */\n      dup2\n      mstore\n      0x20\n      add\n        /* \"blockchain.sol\":5310:5314  name */\n      dup8\n        /* \"blockchain.sol\":5259:5590  Voter({... */\n      dup2\n      mstore\n      0x20\n      add\n        /* \"blockchain.sol\":5342:5354  faceDisabled */\n      dup4\n        /* \"blockchain.sol\":5342:5374  faceDisabled ? \"\" : faceEncoding */\n      tag_341\n      jumpi\n        /* \"blockchain.sol\":5362:5374  faceEncoding */\n      dup6\n        /* \"blockchain.sol\":5342:5374  faceDisabled ? \"\" : faceEncoding */\n      jump(tag_342)\n    tag_341:\n      mload(0x40)\n      dup1\n      0x20\n      add\n      0x40\n      mstore\n      dup1\n      0x00\n      dup2\n      mstore\n      pop\n    tag_342:\n        /* \"blockchain.sol\":5259:5590  Voter({... */\n      dup2\n      mstore\n      0x20\n      add\n        /* \"blockchain.sol\":5404:5418  fingerDisabled */\n      dup3\n        /* \"blockchain.sol\":5404:5440  fingerDisabled ? \"\" : fingerEncoding */\n      tag_343\n      jumpi\n        /* \"blockchain.sol\":5426:5440  fingerEncoding */\n      dup5\n        /* \"blockchain.sol\":5404:5440  fingerDisabled ? \"\" : fingerEncoding */\n      jump(tag_344)\n    tag_343:\n      mload(0x40)\n      dup1\n      0x20\n      add\n      0x40\n      mstore\n      dup1\n      0x00\n      dup2\n      mstore\n      pop\n    tag_344:\n        /* \"blockchain.sol\":5259:5590  Voter({... */\n      dup2\n      mstore\n      dup4\n      iszero\n      iszero\n      0x20\n      dup1\n      dup4\n      add\n      swap2\n      swap1\n      swap2\n      mstore\n      dup4\n      iszero\n      iszero\n      0x40\n      dup1\n      dup5\n      add\n      swap2\n      swap1\n      swap2\n      mstore\n      0x00\n      0x60\n      dup5\n      add\n      dup2\n      swap1\n      mstore\n      0x01\n      0x80\n      swap1\n      swap5\n      add\n      dup5\n      swap1\n      mstore\n        /* \"blockchain.sol\":5241:5256  voters[voterID] */\n      dup10\n      dup2\n      mstore\n        /* \"blockchain.sol\":5241:5247  voters */\n      0x04\n        /* \"blockchain.sol\":5241:5256  voters[voterID] */\n      dup4\n      mstore\n      keccak256\n        /* \"blockchain.sol\":5241:5590  voters[voterID] = Voter({... */\n      dup4\n      mload\n      dup2\n      sstore\n      swap1\n      dup4\n      add\n      mload\n        /* \"blockchain.sol\":5241:5256  voters[voterID] */\n      swap1\n      swap2\n        /* \"blockchain.sol\":5241:5590  voters[voterID] = Voter({... */\n      dup3\n      add\n      swap1\n      tag_345\n      swap1\n      dup3\n      tag_254\n      jump\t// in\n    tag_345:\n      pop\n      0x40\n      dup3\n      add\n      mload\n      0x02\n      dup3\n      add\n      swap1\n      tag_346\n      swap1\n      dup3\n      tag_254\n      jump\t// in\n    tag_346:\n      pop\n      0x60\n      dup3\n      add\n      mload\n      0x03\n      dup3\n      add\n      swap1\n      tag_347\n      swap1\n      dup3\n      tag_254\n      jump\t// in\n    tag_347:\n      pop\n      0x80\n      dup3\n      add\n      mload\n      0x04\n      swap2\n      swap1\n      swap2\n      add\n      dup1\n      sload\n      0xa0\n      dup5\n      add\n      mload\n      0xc0\n      dup6\n      add\n      mload\n      0xe0\n      swap1\n      swap6\n      add\n      mload\n      not(0xffff)\n      swap1\n      swap3\n      and\n      swap4\n      iszero\n      iszero\n      not(0xff00)\n      and\n      swap4\n      swap1\n      swap4\n      or\n      0x0100\n      swap4\n      iszero\n      iszero\n      swap4\n      swap1\n      swap4\n      mul\n      swap3\n      swap1\n      swap3\n      or\n      not(0xffff0000)\n      and\n      0x010000\n      swap4\n      iszero\n      iszero\n      swap4\n      swap1\n      swap4\n      mul\n      not(0xff000000)\n      and\n      swap3\n      swap1\n      swap3\n      or\n      0x01000000\n      swap2\n      iszero\n      iszero\n      swap2\n      swap1\n      swap2\n      mul\n      or\n      swap1\n      sstore\n      pop\n      pop\n        /* \"blockchain.sol\":5609:5617  voterIds */\n      0x06\n        /* \"blockchain.sol\":5609:5631  voterIds.push(voterID) */\n      dup1\n      sload\n      0x01\n      dup2\n      add\n      dup3\n      sstore\n      0x00\n      swap2\n      swap1\n      swap2\n      mstore\n      0xf652222313e28459528d920b65115c16c04f3efc82aaedc97be59f3f377c0d3f\n      add\n      swap3\n      swap1\n      swap3\n      sstore\n      pop\n      pop\n      pop\n        /* \"blockchain.sol\":4826:5638  function registerVoter(... */\n      jump\t// out\n        /* \"blockchain.sol\":3959:4341  function registerCandidate(string memory name) public duringRegistration returns (uint256) {... */\n    tag_74:\n        /* \"blockchain.sol\":4041:4048  uint256 */\n      0x00\n      dup1\n        /* \"blockchain.sol\":1334:1347  electionState */\n      and(0xff, sload(0x00))\n        /* \"blockchain.sol\":1334:1377  electionState == ElectionState.Registration */\n      0x02\n      dup2\n      gt\n      iszero\n      tag_353\n      jumpi\n      tag_353\n      tag_87\n      jump\t// in\n    tag_353:\n      eq\n        /* \"blockchain.sol\":1326:1401  require(electionState == ElectionState.Registration, \"Registration closed\") */\n      tag_354\n      jumpi\n      mload(0x40)\n      shl(0xe5, 0x461bcd)\n      dup2\n      mstore\n        /* \"#utility.yul\":9611:9613   */\n      0x20\n        /* \"blockchain.sol\":1326:1401  require(electionState == ElectionState.Registration, \"Registration closed\") */\n      0x04\n      dup3\n      add\n        /* \"#utility.yul\":9593:9614   */\n      mstore\n        /* \"#utility.yul\":9650:9652   */\n      0x13\n        /* \"#utility.yul\":9630:9648   */\n      0x24\n      dup3\n      add\n        /* \"#utility.yul\":9623:9653   */\n      mstore\n      shl(0x6a, 0x149959da5cdd1c985d1a5bdb8818db1bdcd959)\n        /* \"#utility.yul\":9669:9687   */\n      0x44\n      dup3\n      add\n        /* \"#utility.yul\":9662:9711   */\n      mstore\n        /* \"#utility.yul\":9728:9746   */\n      0x64\n      add\n        /* \"blockchain.sol\":1326:1401  require(electionState == ElectionState.Registration, \"Registration closed\") */\n      tag_91\n        /* \"#utility.yul\":9409:9752   */\n      jump\n        /* \"blockchain.sol\":1326:1401  require(electionState == ElectionState.Registration, \"Registration closed\") */\n    tag_354:\n        /* \"blockchain.sol\":4082:4100  candidateIdCounter */\n      0x01\n        /* \"blockchain.sol\":4082:4102  candidateIdCounter++ */\n      dup1\n      sload\n        /* \"blockchain.sol\":4060:4079  uint256 candidateID */\n      0x00\n      swap2\n      dup3\n        /* \"blockchain.sol\":4082:4102  candidateIdCounter++ */\n      tag_357\n      dup4\n      tag_148\n      jump\t// in\n    tag_357:\n      swap1\n      swap2\n      sstore\n      pop\n        /* \"blockchain.sol\":4139:4265  Candidate({... */\n      0x40\n      dup1\n      mload\n      0x80\n      dup2\n      add\n      dup3\n      mstore\n      dup3\n      dup2\n      mstore\n      0x20\n      dup1\n      dup3\n      add\n      dup8\n      dup2\n      mstore\n      0x00\n      dup4\n      dup6\n      add\n      dup2\n      swap1\n      mstore\n        /* \"blockchain.sol\":4250:4254  true */\n      0x01\n        /* \"blockchain.sol\":4139:4265  Candidate({... */\n      0x60\n      dup6\n      add\n      dup2\n      swap1\n      mstore\n        /* \"blockchain.sol\":4113:4136  candidates[candidateID] */\n      dup7\n      dup3\n      mstore\n        /* \"blockchain.sol\":4113:4123  candidates */\n      0x03\n        /* \"blockchain.sol\":4113:4136  candidates[candidateID] */\n      swap1\n      swap4\n      mstore\n      swap4\n      swap1\n      swap4\n      keccak256\n        /* \"blockchain.sol\":4113:4265  candidates[candidateID] = Candidate({... */\n      dup3\n      mload\n      dup2\n      sstore\n      swap3\n      mload\n        /* \"blockchain.sol\":4060:4102  uint256 candidateID = candidateIdCounter++ */\n      swap4\n      swap5\n      pop\n        /* \"blockchain.sol\":4139:4265  Candidate({... */\n      swap1\n      swap3\n        /* \"blockchain.sol\":4113:4265  candidates[candidateID] = Candidate({... */\n      swap1\n      dup3\n      add\n      swap1\n      tag_358\n      swap1\n      dup3\n      tag_254\n      jump\t// in\n    tag_358:\n      pop\n      0x40\n      dup3\n      add\n      mload\n      0x02\n      dup3\n      add\n      sstore\n      0x60\n      swap1\n      swap2\n      add\n      mload\n      0x03\n      swap1\n      swap2\n      add\n      dup1\n      sload\n      not(0xff)\n      and\n      swap2\n      iszero\n      iszero\n      swap2\n      swap1\n      swap2\n      or\n      swap1\n      sstore\n        /* \"blockchain.sol\":4276:4288  candidateIds */\n      0x05\n        /* \"blockchain.sol\":4276:4306  candidateIds.push(candidateID) */\n      dup1\n      sload\n      0x01\n      dup2\n      add\n      dup3\n      sstore\n      0x00\n      swap2\n      swap1\n      swap2\n      mstore\n      0x036b6384b5eca791c62761152d0c79bb0604c104a5fb6f4eb0703f3154bb3db0\n      add\n      dup2\n      swap1\n      sstore\n      swap1\n      pop\n        /* \"blockchain.sol\":1411:1412  _ */\n    tag_356:\n        /* \"blockchain.sol\":3959:4341  function registerCandidate(string memory name) public duringRegistration returns (uint256) {... */\n      swap2\n      swap1\n      pop\n      jump\t// out\n        /* \"blockchain.sol\":3241:3953  function newElection() public {... */\n    tag_80:\n        /* \"blockchain.sol\":3306:3325  ElectionState.Ended */\n      0x02\n        /* \"blockchain.sol\":3289:3302  electionState */\n      and(0xff, sload(0x00))\n        /* \"blockchain.sol\":3289:3325  electionState == ElectionState.Ended */\n      0x02\n      dup2\n      gt\n      iszero\n      tag_365\n      jumpi\n      tag_365\n      tag_87\n      jump\t// in\n    tag_365:\n      eq\n        /* \"blockchain.sol\":3281:3356  require(electionState == ElectionState.Ended, \"Current election not ended\") */\n      tag_366\n      jumpi\n      mload(0x40)\n      shl(0xe5, 0x461bcd)\n      dup2\n      mstore\n        /* \"#utility.yul\":17372:17374   */\n      0x20\n        /* \"blockchain.sol\":3281:3356  require(electionState == ElectionState.Ended, \"Current election not ended\") */\n      0x04\n      dup3\n      add\n        /* \"#utility.yul\":17354:17375   */\n      mstore\n        /* \"#utility.yul\":17411:17413   */\n      0x1a\n        /* \"#utility.yul\":17391:17409   */\n      0x24\n      dup3\n      add\n        /* \"#utility.yul\":17384:17414   */\n      mstore\n        /* \"#utility.yul\":17450:17478   */\n      0x43757272656e7420656c656374696f6e206e6f7420656e646564000000000000\n        /* \"#utility.yul\":17430:17448   */\n      0x44\n      dup3\n      add\n        /* \"#utility.yul\":17423:17479   */\n      mstore\n        /* \"#utility.yul\":17496:17514   */\n      0x64\n      add\n        /* \"blockchain.sol\":3281:3356  require(electionState == ElectionState.Ended, \"Current election not ended\") */\n      tag_91\n        /* \"#utility.yul\":17170:17520   */\n      jump\n        /* \"blockchain.sol\":3281:3356  require(electionState == ElectionState.Ended, \"Current election not ended\") */\n    tag_366:\n        /* \"blockchain.sol\":3408:3417  uint256 i */\n      0x00\n        /* \"blockchain.sol\":3403:3512  for (uint256 i = 0; i < candidateIds.length; i++) {... */\n    tag_369:\n        /* \"blockchain.sol\":3427:3439  candidateIds */\n      0x05\n        /* \"blockchain.sol\":3427:3446  candidateIds.length */\n      sload\n        /* \"blockchain.sol\":3423:3446  i < candidateIds.length */\n      dup2\n      lt\n        /* \"blockchain.sol\":3403:3512  for (uint256 i = 0; i < candidateIds.length; i++) {... */\n      iszero\n      tag_370\n      jumpi\n        /* \"blockchain.sol\":3474:3484  candidates */\n      0x03\n        /* \"blockchain.sol\":3474:3501  candidates[candidateIds[i]] */\n      0x00\n        /* \"blockchain.sol\":3485:3497  candidateIds */\n      0x05\n        /* \"blockchain.sol\":3498:3499  i */\n      dup4\n        /* \"blockchain.sol\":3485:3500  candidateIds[i] */\n      dup2\n      sload\n      dup2\n      lt\n      tag_373\n      jumpi\n      tag_373\n      tag_104\n      jump\t// in\n    tag_373:\n      swap1\n      0x00\n      mstore\n      keccak256(0x00, 0x20)\n      add\n      sload\n        /* \"blockchain.sol\":3474:3501  candidates[candidateIds[i]] */\n      dup2\n      mstore\n      0x20\n      add\n      swap1\n      dup2\n      mstore\n      0x20\n      add\n      0x00\n      keccak256\n      0x00\n        /* \"blockchain.sol\":3467:3501  delete candidates[candidateIds[i]] */\n      dup1\n      dup3\n      add\n      0x00\n      swap1\n      sstore\n      0x01\n      dup3\n      add\n      0x00\n      tag_375\n      swap2\n      swap1\n      tag_98\n      jump\t// in\n    tag_375:\n      pop\n      0x00\n      0x02\n      dup3\n      add\n      sstore\n      0x03\n      add\n      dup1\n      sload\n      not(0xff)\n      and\n      swap1\n      sstore\n      0x01\n        /* \"blockchain.sol\":3448:3451  i++ */\n      add\n        /* \"blockchain.sol\":3403:3512  for (uint256 i = 0; i < candidateIds.length; i++) {... */\n      jump(tag_369)\n    tag_370:\n      pop\n        /* \"blockchain.sol\":3521:3540  delete candidateIds */\n      tag_376\n        /* \"blockchain.sol\":3528:3540  candidateIds */\n      0x05\n      0x00\n        /* \"blockchain.sol\":3521:3540  delete candidateIds */\n      tag_377\n      jump\t// in\n    tag_376:\n        /* \"blockchain.sol\":3623:3632  uint256 i */\n      0x00\n        /* \"blockchain.sol\":3618:3764  for (uint256 i = 0; i < voterIds.length; i++) {... */\n    tag_378:\n        /* \"blockchain.sol\":3642:3650  voterIds */\n      0x06\n        /* \"blockchain.sol\":3642:3657  voterIds.length */\n      sload\n        /* \"blockchain.sol\":3638:3657  i < voterIds.length */\n      dup2\n      lt\n        /* \"blockchain.sol\":3618:3764  for (uint256 i = 0; i < voterIds.length; i++) {... */\n      iszero\n      tag_379\n      jumpi\n        /* \"blockchain.sol\":3678:3693  uint256 voterID */\n      0x00\n        /* \"blockchain.sol\":3696:3704  voterIds */\n      0x06\n        /* \"blockchain.sol\":3705:3706  i */\n      dup3\n        /* \"blockchain.sol\":3696:3707  voterIds[i] */\n      dup2\n      sload\n      dup2\n      lt\n      tag_382\n      jumpi\n      tag_382\n      tag_104\n      jump\t// in\n    tag_382:\n      0x00\n      swap2\n      dup3\n      mstore\n      0x20\n      dup1\n      dup4\n      keccak256\n      swap1\n      swap2\n      add\n      sload\n        /* \"blockchain.sol\":3721:3736  voters[voterID] */\n      dup3\n      mstore\n        /* \"blockchain.sol\":3721:3727  voters */\n      0x04\n        /* \"blockchain.sol\":3721:3736  voters[voterID] */\n      swap1\n      dup2\n      swap1\n      mstore\n      0x40\n      swap1\n      swap2\n      keccak256\n        /* \"blockchain.sol\":3721:3745  voters[voterID].hasVoted */\n      add\n        /* \"blockchain.sol\":3721:3753  voters[voterID].hasVoted = false */\n      dup1\n      sload\n      not(0xff0000)\n      and\n      swap1\n      sstore\n      pop\n      0x01\n        /* \"blockchain.sol\":3659:3662  i++ */\n      add\n        /* \"blockchain.sol\":3618:3764  for (uint256 i = 0; i < voterIds.length; i++) {... */\n      jump(tag_378)\n    tag_379:\n      pop\n        /* \"blockchain.sol\":3807:3821  delete winners */\n      tag_384\n        /* \"blockchain.sol\":3814:3821  winners */\n      0x02\n      0x00\n        /* \"blockchain.sol\":3807:3821  delete winners */\n      tag_239\n      jump\t// in\n    tag_384:\n        /* \"blockchain.sol\":3888:3914  ElectionState.Registration */\n      0x00\n        /* \"blockchain.sol\":3872:3914  electionState = ElectionState.Registration */\n      dup1\n      sload\n      not(0xff)\n      and\n      swap1\n      sstore\n      0x01\n        /* \"blockchain.sol\":3924:3946  candidateIdCounter = 1 */\n      dup1\n      sstore\n        /* \"blockchain.sol\":3241:3953  function newElection() public {... */\n      jump\t// out\n        /* \"blockchain.sol\":8174:8286  function getVoteCounts() public view returns (CandidateInfo[] memory) {... */\n    tag_82:\n        /* \"blockchain.sol\":8220:8242  CandidateInfo[] memory */\n      0x60\n        /* \"blockchain.sol\":8261:8279  getAllCandidates() */\n      tag_388\n        /* \"blockchain.sol\":8261:8277  getAllCandidates */\n      tag_41\n        /* \"blockchain.sol\":8261:8279  getAllCandidates() */\n      jump\t// in\n    tag_388:\n        /* \"blockchain.sol\":8254:8279  return getAllCandidates() */\n      swap1\n      pop\n        /* \"blockchain.sol\":8174:8286  function getVoteCounts() public view returns (CandidateInfo[] memory) {... */\n      swap1\n      jump\t// out\n    tag_98:\n      pop\n      dup1\n      sload\n      tag_389\n      swap1\n      tag_164\n      jump\t// in\n    tag_389:\n      0x00\n      dup3\n      sstore\n      dup1\n      0x1f\n      lt\n      tag_391\n      jumpi\n      pop\n      pop\n      jump\t// out\n    tag_391:\n      0x1f\n      add\n      0x20\n      swap1\n      div\n      swap1\n      0x00\n      mstore\n      keccak256(0x00, 0x20)\n      swap1\n      dup2\n      add\n      swap1\n      tag_392\n      swap2\n      swap1\n      tag_393\n      jump\t// in\n    tag_392:\n      pop\n      jump\t// out\n    tag_239:\n      pop\n      dup1\n      sload\n      0x00\n      dup3\n      sstore\n      0x03\n      mul\n      swap1\n      0x00\n      mstore\n      keccak256(0x00, 0x20)\n      swap1\n      dup2\n      add\n      swap1\n      tag_392\n      swap2\n      swap1\n      tag_396\n      jump\t// in\n    tag_377:\n      pop\n      dup1\n      sload\n      0x00\n      dup3\n      sstore\n      swap1\n      0x00\n      mstore\n      keccak256(0x00, 0x20)\n      swap1\n      dup2\n      add\n      swap1\n      tag_392\n      swap2\n      swap1\n    tag_393:\n    tag_399:\n      dup1\n      dup3\n      gt\n      iszero\n      tag_400\n      jumpi\n      0x00\n      dup2\n      sstore\n      0x01\n      add\n      jump(tag_399)\n    tag_400:\n      pop\n      swap1\n      jump\t// out\n    tag_396:\n      dup1\n      dup3\n      gt\n      iszero\n      tag_400\n      jumpi\n      0x00\n      dup1\n      dup3\n      sstore\n      tag_403\n      0x01\n      dup4\n      add\n      dup3\n      tag_98\n      jump\t// in\n    tag_403:\n      tag_404\n      0x02\n      dup4\n      add\n      0x00\n      tag_98\n      jump\t// in\n    tag_404:\n      pop\n      0x03\n      add\n      jump(tag_396)\n        /* \"#utility.yul\":14:194   */\n    tag_26:\n        /* \"#utility.yul\":73:79   */\n      0x00\n        /* \"#utility.yul\":126:128   */\n      0x20\n        /* \"#utility.yul\":114:123   */\n      dup3\n        /* \"#utility.yul\":105:112   */\n      dup5\n        /* \"#utility.yul\":101:124   */\n      sub\n        /* \"#utility.yul\":97:129   */\n      slt\n        /* \"#utility.yul\":94:146   */\n      iszero\n      tag_415\n      jumpi\n        /* \"#utility.yul\":142:143   */\n      0x00\n        /* \"#utility.yul\":139:140   */\n      dup1\n        /* \"#utility.yul\":132:144   */\n      revert\n        /* \"#utility.yul\":94:146   */\n    tag_415:\n      pop\n        /* \"#utility.yul\":165:188   */\n      calldataload\n      swap2\n        /* \"#utility.yul\":14:194   */\n      swap1\n      pop\n      jump\t// out\n        /* \"#utility.yul\":199:488   */\n    tag_405:\n        /* \"#utility.yul\":241:244   */\n      0x00\n        /* \"#utility.yul\":279:284   */\n      dup2\n        /* \"#utility.yul\":273:285   */\n      mload\n        /* \"#utility.yul\":306:312   */\n      dup1\n        /* \"#utility.yul\":301:304   */\n      dup5\n        /* \"#utility.yul\":294:313   */\n      mstore\n        /* \"#utility.yul\":362:368   */\n      dup1\n        /* \"#utility.yul\":355:359   */\n      0x20\n        /* \"#utility.yul\":348:353   */\n      dup5\n        /* \"#utility.yul\":344:360   */\n      add\n        /* \"#utility.yul\":337:341   */\n      0x20\n        /* \"#utility.yul\":332:335   */\n      dup7\n        /* \"#utility.yul\":328:342   */\n      add\n        /* \"#utility.yul\":322:369   */\n      mcopy\n        /* \"#utility.yul\":414:415   */\n      0x00\n        /* \"#utility.yul\":407:411   */\n      0x20\n        /* \"#utility.yul\":398:404   */\n      dup3\n        /* \"#utility.yul\":393:396   */\n      dup7\n        /* \"#utility.yul\":389:405   */\n      add\n        /* \"#utility.yul\":385:412   */\n      add\n        /* \"#utility.yul\":378:416   */\n      mstore\n        /* \"#utility.yul\":477:481   */\n      0x20\n        /* \"#utility.yul\":470:472   */\n      0x1f\n        /* \"#utility.yul\":466:473   */\n      not\n        /* \"#utility.yul\":461:463   */\n      0x1f\n        /* \"#utility.yul\":453:459   */\n      dup4\n        /* \"#utility.yul\":449:464   */\n      add\n        /* \"#utility.yul\":445:474   */\n      and\n        /* \"#utility.yul\":440:443   */\n      dup6\n        /* \"#utility.yul\":436:475   */\n      add\n        /* \"#utility.yul\":432:482   */\n      add\n        /* \"#utility.yul\":425:482   */\n      swap2\n      pop\n      pop\n        /* \"#utility.yul\":199:488   */\n      swap3\n      swap2\n      pop\n      pop\n      jump\t// out\n        /* \"#utility.yul\":493:713   */\n    tag_31:\n        /* \"#utility.yul\":642:644   */\n      0x20\n        /* \"#utility.yul\":631:640   */\n      dup2\n        /* \"#utility.yul\":624:645   */\n      mstore\n        /* \"#utility.yul\":605:609   */\n      0x00\n        /* \"#utility.yul\":662:707   */\n      tag_418\n        /* \"#utility.yul\":703:705   */\n      0x20\n        /* \"#utility.yul\":692:701   */\n      dup4\n        /* \"#utility.yul\":688:706   */\n      add\n        /* \"#utility.yul\":680:686   */\n      dup5\n        /* \"#utility.yul\":662:707   */\n      tag_405\n      jump\t// in\n    tag_418:\n        /* \"#utility.yul\":654:707   */\n      swap4\n        /* \"#utility.yul\":493:713   */\n      swap3\n      pop\n      pop\n      pop\n      jump\t// out\n        /* \"#utility.yul\":718:845   */\n    tag_87:\n        /* \"#utility.yul\":779:789   */\n      0x4e487b71\n        /* \"#utility.yul\":774:777   */\n      0xe0\n        /* \"#utility.yul\":770:790   */\n      shl\n        /* \"#utility.yul\":767:768   */\n      0x00\n        /* \"#utility.yul\":760:791   */\n      mstore\n        /* \"#utility.yul\":810:814   */\n      0x21\n        /* \"#utility.yul\":807:808   */\n      0x04\n        /* \"#utility.yul\":800:815   */\n      mstore\n        /* \"#utility.yul\":834:838   */\n      0x24\n        /* \"#utility.yul\":831:832   */\n      0x00\n        /* \"#utility.yul\":824:839   */\n      revert\n        /* \"#utility.yul\":850:1193   */\n    tag_35:\n        /* \"#utility.yul\":997:999   */\n      0x20\n        /* \"#utility.yul\":982:1000   */\n      dup2\n      add\n        /* \"#utility.yul\":1030:1031   */\n      0x03\n        /* \"#utility.yul\":1019:1032   */\n      dup4\n      lt\n        /* \"#utility.yul\":1009:1153   */\n      tag_421\n      jumpi\n        /* \"#utility.yul\":1075:1085   */\n      0x4e487b71\n        /* \"#utility.yul\":1070:1073   */\n      0xe0\n        /* \"#utility.yul\":1066:1086   */\n      shl\n        /* \"#utility.yul\":1063:1064   */\n      0x00\n        /* \"#utility.yul\":1056:1087   */\n      mstore\n        /* \"#utility.yul\":1110:1114   */\n      0x21\n        /* \"#utility.yul\":1107:1108   */\n      0x04\n        /* \"#utility.yul\":1100:1115   */\n      mstore\n        /* \"#utility.yul\":1138:1142   */\n      0x24\n        /* \"#utility.yul\":1135:1136   */\n      0x00\n        /* \"#utility.yul\":1128:1143   */\n      revert\n        /* \"#utility.yul\":1009:1153   */\n    tag_421:\n        /* \"#utility.yul\":1162:1187   */\n      swap2\n      swap1\n      mstore\n        /* \"#utility.yul\":850:1193   */\n      swap1\n      jump\t// out\n        /* \"#utility.yul\":1198:1446   */\n    tag_38:\n        /* \"#utility.yul\":1266:1272   */\n      0x00\n        /* \"#utility.yul\":1274:1280   */\n      dup1\n        /* \"#utility.yul\":1327:1329   */\n      0x40\n        /* \"#utility.yul\":1315:1324   */\n      dup4\n        /* \"#utility.yul\":1306:1313   */\n      dup6\n        /* \"#utility.yul\":1302:1325   */\n      sub\n        /* \"#utility.yul\":1298:1330   */\n      slt\n        /* \"#utility.yul\":1295:1347   */\n      iszero\n      tag_423\n      jumpi\n        /* \"#utility.yul\":1343:1344   */\n      0x00\n        /* \"#utility.yul\":1340:1341   */\n      dup1\n        /* \"#utility.yul\":1333:1345   */\n      revert\n        /* \"#utility.yul\":1295:1347   */\n    tag_423:\n      pop\n      pop\n        /* \"#utility.yul\":1366:1389   */\n      dup1\n      calldataload\n      swap3\n        /* \"#utility.yul\":1436:1438   */\n      0x20\n        /* \"#utility.yul\":1421:1439   */\n      swap1\n      swap2\n      add\n        /* \"#utility.yul\":1408:1440   */\n      calldataload\n      swap2\n      pop\n        /* \"#utility.yul\":1198:1446   */\n      jump\t// out\n        /* \"#utility.yul\":1451:2604   */\n    tag_43:\n        /* \"#utility.yul\":1653:1657   */\n      0x00\n        /* \"#utility.yul\":1682:1684   */\n      0x20\n        /* \"#utility.yul\":1722:1724   */\n      dup1\n        /* \"#utility.yul\":1711:1720   */\n      dup4\n        /* \"#utility.yul\":1707:1725   */\n      add\n        /* \"#utility.yul\":1752:1754   */\n      dup2\n        /* \"#utility.yul\":1741:1750   */\n      dup5\n        /* \"#utility.yul\":1734:1755   */\n      mstore\n        /* \"#utility.yul\":1775:1781   */\n      dup1\n        /* \"#utility.yul\":1810:1816   */\n      dup6\n        /* \"#utility.yul\":1804:1817   */\n      mload\n        /* \"#utility.yul\":1841:1847   */\n      dup1\n        /* \"#utility.yul\":1833:1839   */\n      dup4\n        /* \"#utility.yul\":1826:1848   */\n      mstore\n        /* \"#utility.yul\":1867:1869   */\n      0x40\n        /* \"#utility.yul\":1857:1869   */\n      swap3\n      pop\n        /* \"#utility.yul\":1900:1902   */\n      0x40\n        /* \"#utility.yul\":1889:1898   */\n      dup7\n        /* \"#utility.yul\":1885:1903   */\n      add\n        /* \"#utility.yul\":1878:1903   */\n      swap2\n      pop\n        /* \"#utility.yul\":1962:1964   */\n      0x40\n        /* \"#utility.yul\":1952:1958   */\n      dup2\n        /* \"#utility.yul\":1949:1950   */\n      0x05\n        /* \"#utility.yul\":1945:1959   */\n      shl\n        /* \"#utility.yul\":1934:1943   */\n      dup8\n        /* \"#utility.yul\":1930:1960   */\n      add\n        /* \"#utility.yul\":1926:1965   */\n      add\n        /* \"#utility.yul\":2000:2002   */\n      dup5\n        /* \"#utility.yul\":1992:1998   */\n      dup9\n        /* \"#utility.yul\":1988:2003   */\n      add\n        /* \"#utility.yul\":2021:2022   */\n      0x00\n        /* \"#utility.yul\":2031:2575   */\n    tag_425:\n        /* \"#utility.yul\":2045:2051   */\n      dup4\n        /* \"#utility.yul\":2042:2043   */\n      dup2\n        /* \"#utility.yul\":2039:2052   */\n      lt\n        /* \"#utility.yul\":2031:2575   */\n      iszero\n      tag_427\n      jumpi\n        /* \"#utility.yul\":2138:2140   */\n      0x3f\n        /* \"#utility.yul\":2134:2141   */\n      not\n        /* \"#utility.yul\":2122:2131   */\n      dup10\n        /* \"#utility.yul\":2114:2120   */\n      dup5\n        /* \"#utility.yul\":2110:2132   */\n      sub\n        /* \"#utility.yul\":2106:2142   */\n      add\n        /* \"#utility.yul\":2101:2104   */\n      dup6\n        /* \"#utility.yul\":2094:2143   */\n      mstore\n        /* \"#utility.yul\":2172:2178   */\n      dup2\n        /* \"#utility.yul\":2166:2179   */\n      mload\n        /* \"#utility.yul\":2202:2206   */\n      0x60\n        /* \"#utility.yul\":2240:2242   */\n      dup2\n        /* \"#utility.yul\":2234:2243   */\n      mload\n        /* \"#utility.yul\":2226:2232   */\n      dup6\n        /* \"#utility.yul\":2219:2244   */\n      mstore\n        /* \"#utility.yul\":2291:2293   */\n      dup9\n        /* \"#utility.yul\":2287:2289   */\n      dup3\n        /* \"#utility.yul\":2283:2294   */\n      add\n        /* \"#utility.yul\":2277:2295   */\n      mload\n        /* \"#utility.yul\":2332:2334   */\n      dup2\n        /* \"#utility.yul\":2327:2329   */\n      dup11\n        /* \"#utility.yul\":2319:2325   */\n      dup8\n        /* \"#utility.yul\":2315:2330   */\n      add\n        /* \"#utility.yul\":2308:2335   */\n      mstore\n        /* \"#utility.yul\":2362:2410   */\n      tag_428\n        /* \"#utility.yul\":2406:2408   */\n      dup3\n        /* \"#utility.yul\":2398:2404   */\n      dup8\n        /* \"#utility.yul\":2394:2409   */\n      add\n        /* \"#utility.yul\":2380:2392   */\n      dup3\n        /* \"#utility.yul\":2362:2410   */\n      tag_405\n      jump\t// in\n    tag_428:\n        /* \"#utility.yul\":2453:2464   */\n      swap3\n      dup10\n      add\n        /* \"#utility.yul\":2447:2465   */\n      mload\n        /* \"#utility.yul\":2430:2445   */\n      swap6\n      dup10\n      add\n        /* \"#utility.yul\":2423:2466   */\n      swap6\n      swap1\n      swap6\n      mstore\n      pop\n        /* \"#utility.yul\":2553:2565   */\n      swap5\n      dup8\n      add\n      swap5\n        /* \"#utility.yul\":2348:2410   */\n      swap3\n      pop\n        /* \"#utility.yul\":2518:2533   */\n      swap1\n      dup7\n      add\n      swap1\n        /* \"#utility.yul\":2067:2068   */\n      0x01\n        /* \"#utility.yul\":2060:2069   */\n      add\n        /* \"#utility.yul\":2031:2575   */\n      jump(tag_425)\n    tag_427:\n      pop\n        /* \"#utility.yul\":2592:2598   */\n      swap1\n      swap9\n        /* \"#utility.yul\":1451:2604   */\n      swap8\n      pop\n      pop\n      pop\n      pop\n      pop\n      pop\n      pop\n      pop\n      jump\t// out\n        /* \"#utility.yul\":2705:3872   */\n    tag_47:\n        /* \"#utility.yul\":2905:2909   */\n      0x00\n        /* \"#utility.yul\":2934:2936   */\n      0x20\n        /* \"#utility.yul\":2974:2976   */\n      dup1\n        /* \"#utility.yul\":2963:2972   */\n      dup4\n        /* \"#utility.yul\":2959:2977   */\n      add\n        /* \"#utility.yul\":3004:3006   */\n      dup2\n        /* \"#utility.yul\":2993:3002   */\n      dup5\n        /* \"#utility.yul\":2986:3007   */\n      mstore\n        /* \"#utility.yul\":3027:3033   */\n      dup1\n        /* \"#utility.yul\":3062:3068   */\n      dup6\n        /* \"#utility.yul\":3056:3069   */\n      mload\n        /* \"#utility.yul\":3093:3099   */\n      dup1\n        /* \"#utility.yul\":3085:3091   */\n      dup4\n        /* \"#utility.yul\":3078:3100   */\n      mstore\n        /* \"#utility.yul\":3119:3121   */\n      0x40\n        /* \"#utility.yul\":3109:3121   */\n      swap3\n      pop\n        /* \"#utility.yul\":3152:3154   */\n      0x40\n        /* \"#utility.yul\":3141:3150   */\n      dup7\n        /* \"#utility.yul\":3137:3155   */\n      add\n        /* \"#utility.yul\":3130:3155   */\n      swap2\n      pop\n        /* \"#utility.yul\":3214:3216   */\n      0x40\n        /* \"#utility.yul\":3204:3210   */\n      dup2\n        /* \"#utility.yul\":3201:3202   */\n      0x05\n        /* \"#utility.yul\":3197:3211   */\n      shl\n        /* \"#utility.yul\":3186:3195   */\n      dup8\n        /* \"#utility.yul\":3182:3212   */\n      add\n        /* \"#utility.yul\":3178:3217   */\n      add\n        /* \"#utility.yul\":3252:3254   */\n      dup5\n        /* \"#utility.yul\":3244:3250   */\n      dup9\n        /* \"#utility.yul\":3240:3255   */\n      add\n        /* \"#utility.yul\":3273:3274   */\n      0x00\n        /* \"#utility.yul\":3283:3843   */\n    tag_431:\n        /* \"#utility.yul\":3297:3303   */\n      dup4\n        /* \"#utility.yul\":3294:3295   */\n      dup2\n        /* \"#utility.yul\":3291:3304   */\n      lt\n        /* \"#utility.yul\":3283:3843   */\n      iszero\n      tag_427\n      jumpi\n        /* \"#utility.yul\":3390:3392   */\n      0x3f\n        /* \"#utility.yul\":3386:3393   */\n      not\n        /* \"#utility.yul\":3374:3383   */\n      dup10\n        /* \"#utility.yul\":3366:3372   */\n      dup5\n        /* \"#utility.yul\":3362:3384   */\n      sub\n        /* \"#utility.yul\":3358:3394   */\n      add\n        /* \"#utility.yul\":3353:3356   */\n      dup6\n        /* \"#utility.yul\":3346:3395   */\n      mstore\n        /* \"#utility.yul\":3424:3430   */\n      dup2\n        /* \"#utility.yul\":3418:3431   */\n      mload\n        /* \"#utility.yul\":3454:3458   */\n      0x60\n        /* \"#utility.yul\":3492:3494   */\n      dup2\n        /* \"#utility.yul\":3486:3495   */\n      mload\n        /* \"#utility.yul\":3478:3484   */\n      dup6\n        /* \"#utility.yul\":3471:3496   */\n      mstore\n        /* \"#utility.yul\":3543:3545   */\n      dup9\n        /* \"#utility.yul\":3539:3541   */\n      dup3\n        /* \"#utility.yul\":3535:3546   */\n      add\n        /* \"#utility.yul\":3529:3547   */\n      mload\n        /* \"#utility.yul\":3584:3586   */\n      dup2\n        /* \"#utility.yul\":3579:3581   */\n      dup11\n        /* \"#utility.yul\":3571:3577   */\n      dup8\n        /* \"#utility.yul\":3567:3582   */\n      add\n        /* \"#utility.yul\":3560:3587   */\n      mstore\n        /* \"#utility.yul\":3614:3662   */\n      tag_434\n        /* \"#utility.yul\":3658:3660   */\n      dup3\n        /* \"#utility.yul\":3650:3656   */\n      dup8\n        /* \"#utility.yul\":3646:3661   */\n      add\n        /* \"#utility.yul\":3632:3644   */\n      dup3\n        /* \"#utility.yul\":3614:3662   */\n      tag_405\n      jump\t// in\n    tag_434:\n        /* \"#utility.yul\":3719:3730   */\n      swap3\n      dup10\n      add\n        /* \"#utility.yul\":3713:3731   */\n      mload\n        /* \"#utility.yul\":3706:3732   */\n      iszero\n        /* \"#utility.yul\":3699:3733   */\n      iszero\n        /* \"#utility.yul\":3682:3697   */\n      swap6\n      dup10\n      add\n        /* \"#utility.yul\":3675:3734   */\n      swap6\n      swap1\n      swap6\n      mstore\n      pop\n        /* \"#utility.yul\":3821:3833   */\n      swap5\n      dup8\n      add\n      swap5\n        /* \"#utility.yul\":3600:3662   */\n      swap3\n      pop\n        /* \"#utility.yul\":3786:3801   */\n      swap1\n      dup7\n      add\n      swap1\n        /* \"#utility.yul\":3319:3320   */\n      0x01\n        /* \"#utility.yul\":3312:3321   */\n      add\n        /* \"#utility.yul\":3283:3843   */\n      jump(tag_431)\n        /* \"#utility.yul\":3877:5688   */\n    tag_51:\n        /* \"#utility.yul\":4071:4075   */\n      0x00\n        /* \"#utility.yul\":4100:4102   */\n      0x20\n        /* \"#utility.yul\":4140:4142   */\n      dup1\n        /* \"#utility.yul\":4129:4138   */\n      dup4\n        /* \"#utility.yul\":4125:4143   */\n      add\n        /* \"#utility.yul\":4170:4172   */\n      dup2\n        /* \"#utility.yul\":4159:4168   */\n      dup5\n        /* \"#utility.yul\":4152:4173   */\n      mstore\n        /* \"#utility.yul\":4193:4199   */\n      dup1\n        /* \"#utility.yul\":4228:4234   */\n      dup6\n        /* \"#utility.yul\":4222:4235   */\n      mload\n        /* \"#utility.yul\":4259:4265   */\n      dup1\n        /* \"#utility.yul\":4251:4257   */\n      dup4\n        /* \"#utility.yul\":4244:4266   */\n      mstore\n        /* \"#utility.yul\":4285:4287   */\n      0x40\n        /* \"#utility.yul\":4275:4287   */\n      swap3\n      pop\n        /* \"#utility.yul\":4318:4320   */\n      0x40\n        /* \"#utility.yul\":4307:4316   */\n      dup7\n        /* \"#utility.yul\":4303:4321   */\n      add\n        /* \"#utility.yul\":4296:4321   */\n      swap2\n      pop\n        /* \"#utility.yul\":4380:4382   */\n      0x40\n        /* \"#utility.yul\":4370:4376   */\n      dup2\n        /* \"#utility.yul\":4367:4368   */\n      0x05\n        /* \"#utility.yul\":4363:4377   */\n      shl\n        /* \"#utility.yul\":4352:4361   */\n      dup8\n        /* \"#utility.yul\":4348:4378   */\n      add\n        /* \"#utility.yul\":4344:4383   */\n      add\n        /* \"#utility.yul\":4418:4420   */\n      dup5\n        /* \"#utility.yul\":4410:4416   */\n      dup9\n        /* \"#utility.yul\":4406:4421   */\n      add\n        /* \"#utility.yul\":4439:4440   */\n      0x00\n        /* \"#utility.yul\":4449:5659   */\n    tag_436:\n        /* \"#utility.yul\":4463:4469   */\n      dup4\n        /* \"#utility.yul\":4460:4461   */\n      dup2\n        /* \"#utility.yul\":4457:4470   */\n      lt\n        /* \"#utility.yul\":4449:5659   */\n      iszero\n      tag_427\n      jumpi\n        /* \"#utility.yul\":4556:4558   */\n      0x3f\n        /* \"#utility.yul\":4552:4559   */\n      not\n        /* \"#utility.yul\":4540:4549   */\n      dup10\n        /* \"#utility.yul\":4532:4538   */\n      dup5\n        /* \"#utility.yul\":4528:4550   */\n      sub\n        /* \"#utility.yul\":4524:4560   */\n      add\n        /* \"#utility.yul\":4519:4522   */\n      dup6\n        /* \"#utility.yul\":4512:4561   */\n      mstore\n        /* \"#utility.yul\":4590:4596   */\n      dup2\n        /* \"#utility.yul\":4584:4597   */\n      mload\n        /* \"#utility.yul\":4620:4624   */\n      0xe0\n        /* \"#utility.yul\":4658:4660   */\n      dup2\n        /* \"#utility.yul\":4652:4661   */\n      mload\n        /* \"#utility.yul\":4644:4650   */\n      dup6\n        /* \"#utility.yul\":4637:4662   */\n      mstore\n        /* \"#utility.yul\":4709:4711   */\n      dup9\n        /* \"#utility.yul\":4705:4707   */\n      dup3\n        /* \"#utility.yul\":4701:4712   */\n      add\n        /* \"#utility.yul\":4695:4713   */\n      mload\n        /* \"#utility.yul\":4750:4752   */\n      dup2\n        /* \"#utility.yul\":4745:4747   */\n      dup11\n        /* \"#utility.yul\":4737:4743   */\n      dup8\n        /* \"#utility.yul\":4733:4748   */\n      add\n        /* \"#utility.yul\":4726:4753   */\n      mstore\n        /* \"#utility.yul\":4780:4828   */\n      tag_439\n        /* \"#utility.yul\":4824:4826   */\n      dup3\n        /* \"#utility.yul\":4816:4822   */\n      dup8\n        /* \"#utility.yul\":4812:4827   */\n      add\n        /* \"#utility.yul\":4798:4810   */\n      dup3\n        /* \"#utility.yul\":4780:4828   */\n      tag_405\n      jump\t// in\n    tag_439:\n        /* \"#utility.yul\":4766:4828   */\n      swap2\n      pop\n      pop\n        /* \"#utility.yul\":4877:4879   */\n      dup8\n        /* \"#utility.yul\":4873:4875   */\n      dup3\n        /* \"#utility.yul\":4869:4880   */\n      add\n        /* \"#utility.yul\":4863:4881   */\n      mload\n        /* \"#utility.yul\":4930:4936   */\n      dup6\n        /* \"#utility.yul\":4922:4928   */\n      dup3\n        /* \"#utility.yul\":4918:4937   */\n      sub\n        /* \"#utility.yul\":4913:4915   */\n      dup10\n        /* \"#utility.yul\":4905:4911   */\n      dup8\n        /* \"#utility.yul\":4901:4916   */\n      add\n        /* \"#utility.yul\":4894:4938   */\n      mstore\n        /* \"#utility.yul\":4965:5006   */\n      tag_440\n        /* \"#utility.yul\":4999:5005   */\n      dup3\n        /* \"#utility.yul\":4983:4997   */\n      dup3\n        /* \"#utility.yul\":4965:5006   */\n      tag_405\n      jump\t// in\n    tag_440:\n        /* \"#utility.yul\":4951:5006   */\n      swap2\n      pop\n      pop\n        /* \"#utility.yul\":5029:5033   */\n      0x60\n        /* \"#utility.yul\":5082:5084   */\n      dup1\n        /* \"#utility.yul\":5078:5080   */\n      dup4\n        /* \"#utility.yul\":5074:5085   */\n      add\n        /* \"#utility.yul\":5068:5086   */\n      mload\n        /* \"#utility.yul\":5135:5141   */\n      dup7\n        /* \"#utility.yul\":5127:5133   */\n      dup4\n        /* \"#utility.yul\":5123:5142   */\n      sub\n        /* \"#utility.yul\":5118:5120   */\n      dup3\n        /* \"#utility.yul\":5110:5116   */\n      dup9\n        /* \"#utility.yul\":5106:5121   */\n      add\n        /* \"#utility.yul\":5099:5143   */\n      mstore\n        /* \"#utility.yul\":5170:5211   */\n      tag_441\n        /* \"#utility.yul\":5204:5210   */\n      dup4\n        /* \"#utility.yul\":5188:5202   */\n      dup3\n        /* \"#utility.yul\":5170:5211   */\n      tag_405\n      jump\t// in\n    tag_441:\n        /* \"#utility.yul\":5234:5238   */\n      0x80\n        /* \"#utility.yul\":5295:5306   */\n      dup6\n      dup2\n      add\n        /* \"#utility.yul\":5289:5307   */\n      mload\n        /* \"#utility.yul\":5282:5308   */\n      iszero\n        /* \"#utility.yul\":5275:5309   */\n      iszero\n        /* \"#utility.yul\":5258:5273   */\n      swap1\n      dup10\n      add\n        /* \"#utility.yul\":5251:5310   */\n      mstore\n        /* \"#utility.yul\":5333:5337   */\n      0xa0\n        /* \"#utility.yul\":5394:5405   */\n      dup1\n      dup7\n      add\n        /* \"#utility.yul\":5388:5406   */\n      mload\n        /* \"#utility.yul\":5381:5407   */\n      iszero\n        /* \"#utility.yul\":5374:5408   */\n      iszero\n        /* \"#utility.yul\":5357:5372   */\n      swap1\n      dup10\n      add\n        /* \"#utility.yul\":5350:5409   */\n      mstore\n        /* \"#utility.yul\":5432:5436   */\n      0xc0\n        /* \"#utility.yul\":5477:5488   */\n      swap5\n      dup6\n      add\n        /* \"#utility.yul\":5471:5489   */\n      mload\n        /* \"#utility.yul\":2679:2692   */\n      dup1\n      iszero\n        /* \"#utility.yul\":2672:2693   */\n      iszero\n        /* \"#utility.yul\":5534:5549   */\n      dup7\n      dup11\n      add\n        /* \"#utility.yul\":2660:2694   */\n      mstore\n        /* \"#utility.yul\":5471:5489   */\n      swap5\n        /* \"#utility.yul\":5156:5211   */\n      swap1\n      swap4\n      pop\n        /* \"#utility.yul\":5432:5436   */\n      swap2\n      pop\n        /* \"#utility.yul\":5502:5550   */\n      tag_442\n      swap1\n      pop\n        /* \"#utility.yul\":2609:2700   */\n      jump\n        /* \"#utility.yul\":5502:5550   */\n    tag_442:\n      pop\n        /* \"#utility.yul\":5637:5649   */\n      swap6\n      dup9\n      add\n      swap6\n        /* \"#utility.yul\":5573:5579   */\n      swap4\n      pop\n      pop\n        /* \"#utility.yul\":5602:5617   */\n      swap1\n      dup7\n      add\n      swap1\n        /* \"#utility.yul\":4485:4486   */\n      0x01\n        /* \"#utility.yul\":4478:4487   */\n      add\n        /* \"#utility.yul\":4449:5659   */\n      jump(tag_436)\n        /* \"#utility.yul\":5875:7101   */\n    tag_66:\n        /* \"#utility.yul\":6061:6065   */\n      0x00\n        /* \"#utility.yul\":6090:6092   */\n      0x20\n        /* \"#utility.yul\":6130:6132   */\n      dup1\n        /* \"#utility.yul\":6119:6128   */\n      dup4\n        /* \"#utility.yul\":6115:6133   */\n      add\n        /* \"#utility.yul\":6160:6162   */\n      dup2\n        /* \"#utility.yul\":6149:6158   */\n      dup5\n        /* \"#utility.yul\":6142:6163   */\n      mstore\n        /* \"#utility.yul\":6183:6189   */\n      dup1\n        /* \"#utility.yul\":6218:6224   */\n      dup6\n        /* \"#utility.yul\":6212:6225   */\n      mload\n        /* \"#utility.yul\":6249:6255   */\n      dup1\n        /* \"#utility.yul\":6241:6247   */\n      dup4\n        /* \"#utility.yul\":6234:6256   */\n      mstore\n        /* \"#utility.yul\":6275:6277   */\n      0x40\n        /* \"#utility.yul\":6265:6277   */\n      swap3\n      pop\n        /* \"#utility.yul\":6308:6310   */\n      0x40\n        /* \"#utility.yul\":6297:6306   */\n      dup7\n        /* \"#utility.yul\":6293:6311   */\n      add\n        /* \"#utility.yul\":6286:6311   */\n      swap2\n      pop\n        /* \"#utility.yul\":6370:6372   */\n      0x40\n        /* \"#utility.yul\":6360:6366   */\n      dup2\n        /* \"#utility.yul\":6357:6358   */\n      0x05\n        /* \"#utility.yul\":6353:6367   */\n      shl\n        /* \"#utility.yul\":6342:6351   */\n      dup8\n        /* \"#utility.yul\":6338:6368   */\n      add\n        /* \"#utility.yul\":6334:6373   */\n      add\n        /* \"#utility.yul\":6408:6410   */\n      dup5\n        /* \"#utility.yul\":6400:6406   */\n      dup9\n        /* \"#utility.yul\":6396:6411   */\n      add\n        /* \"#utility.yul\":6429:6430   */\n      0x00\n        /* \"#utility.yul\":6439:7072   */\n    tag_445:\n        /* \"#utility.yul\":6453:6459   */\n      dup4\n        /* \"#utility.yul\":6450:6451   */\n      dup2\n        /* \"#utility.yul\":6447:6460   */\n      lt\n        /* \"#utility.yul\":6439:7072   */\n      iszero\n      tag_427\n      jumpi\n        /* \"#utility.yul\":6546:6548   */\n      0x3f\n        /* \"#utility.yul\":6542:6549   */\n      not\n        /* \"#utility.yul\":6530:6539   */\n      dup10\n        /* \"#utility.yul\":6522:6528   */\n      dup5\n        /* \"#utility.yul\":6518:6540   */\n      sub\n        /* \"#utility.yul\":6514:6550   */\n      add\n        /* \"#utility.yul\":6509:6512   */\n      dup6\n        /* \"#utility.yul\":6502:6551   */\n      mstore\n        /* \"#utility.yul\":6580:6586   */\n      dup2\n        /* \"#utility.yul\":6574:6587   */\n      mload\n        /* \"#utility.yul\":6610:6614   */\n      0x60\n        /* \"#utility.yul\":6648:6650   */\n      dup2\n        /* \"#utility.yul\":6642:6651   */\n      mload\n        /* \"#utility.yul\":6634:6640   */\n      dup6\n        /* \"#utility.yul\":6627:6652   */\n      mstore\n        /* \"#utility.yul\":6699:6701   */\n      dup9\n        /* \"#utility.yul\":6695:6697   */\n      dup3\n        /* \"#utility.yul\":6691:6702   */\n      add\n        /* \"#utility.yul\":6685:6703   */\n      mload\n        /* \"#utility.yul\":6740:6742   */\n      dup2\n        /* \"#utility.yul\":6735:6737   */\n      dup11\n        /* \"#utility.yul\":6727:6733   */\n      dup8\n        /* \"#utility.yul\":6723:6738   */\n      add\n        /* \"#utility.yul\":6716:6743   */\n      mstore\n        /* \"#utility.yul\":6770:6818   */\n      tag_448\n        /* \"#utility.yul\":6814:6816   */\n      dup3\n        /* \"#utility.yul\":6806:6812   */\n      dup8\n        /* \"#utility.yul\":6802:6817   */\n      add\n        /* \"#utility.yul\":6788:6800   */\n      dup3\n        /* \"#utility.yul\":6770:6818   */\n      tag_405\n      jump\t// in\n    tag_448:\n        /* \"#utility.yul\":6756:6818   */\n      swap2\n      pop\n      pop\n        /* \"#utility.yul\":6867:6869   */\n      dup8\n        /* \"#utility.yul\":6863:6865   */\n      dup3\n        /* \"#utility.yul\":6859:6870   */\n      add\n        /* \"#utility.yul\":6853:6871   */\n      mload\n        /* \"#utility.yul\":6831:6871   */\n      swap2\n      pop\n        /* \"#utility.yul\":6920:6926   */\n      dup5\n        /* \"#utility.yul\":6912:6918   */\n      dup2\n        /* \"#utility.yul\":6908:6927   */\n      sub\n        /* \"#utility.yul\":6903:6905   */\n      dup9\n        /* \"#utility.yul\":6895:6901   */\n      dup7\n        /* \"#utility.yul\":6891:6906   */\n      add\n        /* \"#utility.yul\":6884:6928   */\n      mstore\n        /* \"#utility.yul\":6951:6992   */\n      tag_449\n        /* \"#utility.yul\":6985:6991   */\n      dup2\n        /* \"#utility.yul\":6969:6983   */\n      dup4\n        /* \"#utility.yul\":6951:6992   */\n      tag_405\n      jump\t// in\n    tag_449:\n        /* \"#utility.yul\":7050:7062   */\n      swap7\n      dup10\n      add\n      swap7\n        /* \"#utility.yul\":6941:6992   */\n      swap5\n      pop\n      pop\n      pop\n        /* \"#utility.yul\":7015:7030   */\n      swap1\n      dup7\n      add\n      swap1\n        /* \"#utility.yul\":6475:6476   */\n      0x01\n        /* \"#utility.yul\":6468:6477   */\n      add\n        /* \"#utility.yul\":6439:7072   */\n      jump(tag_445)\n        /* \"#utility.yul\":7106:7233   */\n    tag_152:\n        /* \"#utility.yul\":7167:7177   */\n      0x4e487b71\n        /* \"#utility.yul\":7162:7165   */\n      0xe0\n        /* \"#utility.yul\":7158:7178   */\n      shl\n        /* \"#utility.yul\":7155:7156   */\n      0x00\n        /* \"#utility.yul\":7148:7179   */\n      mstore\n        /* \"#utility.yul\":7198:7202   */\n      0x41\n        /* \"#utility.yul\":7195:7196   */\n      0x04\n        /* \"#utility.yul\":7188:7203   */\n      mstore\n        /* \"#utility.yul\":7222:7226   */\n      0x24\n        /* \"#utility.yul\":7219:7220   */\n      0x00\n        /* \"#utility.yul\":7212:7227   */\n      revert\n        /* \"#utility.yul\":7238:7957   */\n    tag_407:\n        /* \"#utility.yul\":7281:7286   */\n      0x00\n        /* \"#utility.yul\":7334:7337   */\n      dup3\n        /* \"#utility.yul\":7327:7331   */\n      0x1f\n        /* \"#utility.yul\":7319:7325   */\n      dup4\n        /* \"#utility.yul\":7315:7332   */\n      add\n        /* \"#utility.yul\":7311:7338   */\n      slt\n        /* \"#utility.yul\":7301:7356   */\n      tag_452\n      jumpi\n        /* \"#utility.yul\":7352:7353   */\n      0x00\n        /* \"#utility.yul\":7349:7350   */\n      dup1\n        /* \"#utility.yul\":7342:7354   */\n      revert\n        /* \"#utility.yul\":7301:7356   */\n    tag_452:\n        /* \"#utility.yul\":7388:7394   */\n      dup2\n        /* \"#utility.yul\":7375:7395   */\n      calldataload\n        /* \"#utility.yul\":7414:7432   */\n      0xffffffffffffffff\n        /* \"#utility.yul\":7451:7453   */\n      dup1\n        /* \"#utility.yul\":7447:7449   */\n      dup3\n        /* \"#utility.yul\":7444:7454   */\n      gt\n        /* \"#utility.yul\":7441:7477   */\n      iszero\n      tag_454\n      jumpi\n        /* \"#utility.yul\":7457:7475   */\n      tag_454\n      tag_152\n      jump\t// in\n    tag_454:\n        /* \"#utility.yul\":7532:7534   */\n      0x40\n        /* \"#utility.yul\":7526:7535   */\n      mload\n        /* \"#utility.yul\":7500:7502   */\n      0x1f\n        /* \"#utility.yul\":7586:7599   */\n      dup4\n      add\n      not(0x1f)\n        /* \"#utility.yul\":7582:7604   */\n      swap1\n      dup2\n      and\n        /* \"#utility.yul\":7606:7608   */\n      0x3f\n        /* \"#utility.yul\":7578:7609   */\n      add\n        /* \"#utility.yul\":7574:7614   */\n      and\n        /* \"#utility.yul\":7562:7615   */\n      dup2\n      add\n      swap1\n        /* \"#utility.yul\":7630:7648   */\n      dup3\n      dup3\n      gt\n        /* \"#utility.yul\":7650:7672   */\n      dup2\n      dup4\n      lt\n        /* \"#utility.yul\":7627:7673   */\n      or\n        /* \"#utility.yul\":7624:7696   */\n      iszero\n      tag_456\n      jumpi\n        /* \"#utility.yul\":7676:7694   */\n      tag_456\n      tag_152\n      jump\t// in\n    tag_456:\n        /* \"#utility.yul\":7716:7726   */\n      dup2\n        /* \"#utility.yul\":7712:7714   */\n      0x40\n        /* \"#utility.yul\":7705:7727   */\n      mstore\n        /* \"#utility.yul\":7751:7753   */\n      dup4\n        /* \"#utility.yul\":7743:7749   */\n      dup2\n        /* \"#utility.yul\":7736:7754   */\n      mstore\n        /* \"#utility.yul\":7797:7800   */\n      dup7\n        /* \"#utility.yul\":7790:7794   */\n      0x20\n        /* \"#utility.yul\":7785:7787   */\n      dup6\n        /* \"#utility.yul\":7777:7783   */\n      dup9\n        /* \"#utility.yul\":7773:7788   */\n      add\n        /* \"#utility.yul\":7769:7795   */\n      add\n        /* \"#utility.yul\":7766:7801   */\n      gt\n        /* \"#utility.yul\":7763:7818   */\n      iszero\n      tag_457\n      jumpi\n        /* \"#utility.yul\":7814:7815   */\n      0x00\n        /* \"#utility.yul\":7811:7812   */\n      dup1\n        /* \"#utility.yul\":7804:7816   */\n      revert\n        /* \"#utility.yul\":7763:7818   */\n    tag_457:\n        /* \"#utility.yul\":7878:7880   */\n      dup4\n        /* \"#utility.yul\":7871:7875   */\n      0x20\n        /* \"#utility.yul\":7863:7869   */\n      dup8\n        /* \"#utility.yul\":7859:7876   */\n      add\n        /* \"#utility.yul\":7852:7856   */\n      0x20\n        /* \"#utility.yul\":7844:7850   */\n      dup4\n        /* \"#utility.yul\":7840:7857   */\n      add\n        /* \"#utility.yul\":7827:7881   */\n      calldatacopy\n        /* \"#utility.yul\":7925:7926   */\n      0x00\n        /* \"#utility.yul\":7918:7922   */\n      0x20\n        /* \"#utility.yul\":7913:7915   */\n      dup6\n        /* \"#utility.yul\":7905:7911   */\n      dup4\n        /* \"#utility.yul\":7901:7916   */\n      add\n        /* \"#utility.yul\":7897:7923   */\n      add\n        /* \"#utility.yul\":7890:7927   */\n      mstore\n        /* \"#utility.yul\":7945:7951   */\n      dup1\n        /* \"#utility.yul\":7936:7951   */\n      swap5\n      pop\n      pop\n      pop\n      pop\n      pop\n        /* \"#utility.yul\":7238:7957   */\n      swap3\n      swap2\n      pop\n      pop\n      jump\t// out\n        /* \"#utility.yul\":7962:8122   */\n    tag_408:\n        /* \"#utility.yul\":8027:8047   */\n      dup1\n      calldataload\n        /* \"#utility.yul\":8083:8096   */\n      dup1\n      iszero\n        /* \"#utility.yul\":8076:8097   */\n      iszero\n        /* \"#utility.yul\":8066:8098   */\n      dup2\n      eq\n        /* \"#utility.yul\":8056:8116   */\n      tag_356\n      jumpi\n        /* \"#utility.yul\":8112:8113   */\n      0x00\n        /* \"#utility.yul\":8109:8110   */\n      dup1\n        /* \"#utility.yul\":8102:8114   */\n      revert\n        /* \"#utility.yul\":8127:9077   */\n    tag_69:\n        /* \"#utility.yul\":8255:8261   */\n      0x00\n        /* \"#utility.yul\":8263:8269   */\n      dup1\n        /* \"#utility.yul\":8271:8277   */\n      0x00\n        /* \"#utility.yul\":8279:8285   */\n      dup1\n        /* \"#utility.yul\":8287:8293   */\n      0x00\n        /* \"#utility.yul\":8295:8301   */\n      dup1\n        /* \"#utility.yul\":8348:8351   */\n      0xc0\n        /* \"#utility.yul\":8336:8345   */\n      dup8\n        /* \"#utility.yul\":8327:8334   */\n      dup10\n        /* \"#utility.yul\":8323:8346   */\n      sub\n        /* \"#utility.yul\":8319:8352   */\n      slt\n        /* \"#utility.yul\":8316:8369   */\n      iszero\n      tag_461\n      jumpi\n        /* \"#utility.yul\":8365:8366   */\n      0x00\n        /* \"#utility.yul\":8362:8363   */\n      dup1\n        /* \"#utility.yul\":8355:8367   */\n      revert\n        /* \"#utility.yul\":8316:8369   */\n    tag_461:\n        /* \"#utility.yul\":8405:8414   */\n      dup7\n        /* \"#utility.yul\":8392:8415   */\n      calldataload\n        /* \"#utility.yul\":8434:8452   */\n      0xffffffffffffffff\n        /* \"#utility.yul\":8475:8477   */\n      dup1\n        /* \"#utility.yul\":8467:8473   */\n      dup3\n        /* \"#utility.yul\":8464:8478   */\n      gt\n        /* \"#utility.yul\":8461:8495   */\n      iszero\n      tag_462\n      jumpi\n        /* \"#utility.yul\":8491:8492   */\n      0x00\n        /* \"#utility.yul\":8488:8489   */\n      dup1\n        /* \"#utility.yul\":8481:8493   */\n      revert\n        /* \"#utility.yul\":8461:8495   */\n    tag_462:\n        /* \"#utility.yul\":8514:8564   */\n      tag_463\n        /* \"#utility.yul\":8556:8563   */\n      dup11\n        /* \"#utility.yul\":8547:8553   */\n      dup4\n        /* \"#utility.yul\":8536:8545   */\n      dup12\n        /* \"#utility.yul\":8532:8554   */\n      add\n        /* \"#utility.yul\":8514:8564   */\n      tag_407\n      jump\t// in\n    tag_463:\n        /* \"#utility.yul\":8504:8564   */\n      swap8\n      pop\n        /* \"#utility.yul\":8611:8613   */\n      0x20\n        /* \"#utility.yul\":8600:8609   */\n      dup10\n        /* \"#utility.yul\":8596:8614   */\n      add\n        /* \"#utility.yul\":8583:8615   */\n      calldataload\n        /* \"#utility.yul\":8573:8615   */\n      swap7\n      pop\n        /* \"#utility.yul\":8668:8670   */\n      0x40\n        /* \"#utility.yul\":8657:8666   */\n      dup10\n        /* \"#utility.yul\":8653:8671   */\n      add\n        /* \"#utility.yul\":8640:8672   */\n      calldataload\n        /* \"#utility.yul\":8624:8672   */\n      swap2\n      pop\n        /* \"#utility.yul\":8697:8699   */\n      dup1\n        /* \"#utility.yul\":8687:8695   */\n      dup3\n        /* \"#utility.yul\":8684:8700   */\n      gt\n        /* \"#utility.yul\":8681:8717   */\n      iszero\n      tag_464\n      jumpi\n        /* \"#utility.yul\":8713:8714   */\n      0x00\n        /* \"#utility.yul\":8710:8711   */\n      dup1\n        /* \"#utility.yul\":8703:8715   */\n      revert\n        /* \"#utility.yul\":8681:8717   */\n    tag_464:\n        /* \"#utility.yul\":8736:8788   */\n      tag_465\n        /* \"#utility.yul\":8780:8787   */\n      dup11\n        /* \"#utility.yul\":8769:8777   */\n      dup4\n        /* \"#utility.yul\":8758:8767   */\n      dup12\n        /* \"#utility.yul\":8754:8778   */\n      add\n        /* \"#utility.yul\":8736:8788   */\n      tag_407\n      jump\t// in\n    tag_465:\n        /* \"#utility.yul\":8726:8788   */\n      swap6\n      pop\n        /* \"#utility.yul\":8841:8843   */\n      0x60\n        /* \"#utility.yul\":8830:8839   */\n      dup10\n        /* \"#utility.yul\":8826:8844   */\n      add\n        /* \"#utility.yul\":8813:8845   */\n      calldataload\n        /* \"#utility.yul\":8797:8845   */\n      swap2\n      pop\n        /* \"#utility.yul\":8870:8872   */\n      dup1\n        /* \"#utility.yul\":8860:8868   */\n      dup3\n        /* \"#utility.yul\":8857:8873   */\n      gt\n        /* \"#utility.yul\":8854:8890   */\n      iszero\n      tag_466\n      jumpi\n        /* \"#utility.yul\":8886:8887   */\n      0x00\n        /* \"#utility.yul\":8883:8884   */\n      dup1\n        /* \"#utility.yul\":8876:8888   */\n      revert\n        /* \"#utility.yul\":8854:8890   */\n    tag_466:\n      pop\n        /* \"#utility.yul\":8909:8961   */\n      tag_467\n        /* \"#utility.yul\":8953:8960   */\n      dup10\n        /* \"#utility.yul\":8942:8950   */\n      dup3\n        /* \"#utility.yul\":8931:8940   */\n      dup11\n        /* \"#utility.yul\":8927:8951   */\n      add\n        /* \"#utility.yul\":8909:8961   */\n      tag_407\n      jump\t// in\n    tag_467:\n        /* \"#utility.yul\":8899:8961   */\n      swap4\n      pop\n      pop\n        /* \"#utility.yul\":8980:9016   */\n      tag_468\n        /* \"#utility.yul\":9011:9014   */\n      0x80\n        /* \"#utility.yul\":9000:9009   */\n      dup9\n        /* \"#utility.yul\":8996:9015   */\n      add\n        /* \"#utility.yul\":8980:9016   */\n      tag_408\n      jump\t// in\n    tag_468:\n        /* \"#utility.yul\":8970:9016   */\n      swap2\n      pop\n        /* \"#utility.yul\":9035:9071   */\n      tag_469\n        /* \"#utility.yul\":9066:9069   */\n      0xa0\n        /* \"#utility.yul\":9055:9064   */\n      dup9\n        /* \"#utility.yul\":9051:9070   */\n      add\n        /* \"#utility.yul\":9035:9071   */\n      tag_408\n      jump\t// in\n    tag_469:\n        /* \"#utility.yul\":9025:9071   */\n      swap1\n      pop\n        /* \"#utility.yul\":8127:9077   */\n      swap3\n      swap6\n      pop\n      swap3\n      swap6\n      pop\n      swap3\n      swap6\n      jump\t// out\n        /* \"#utility.yul\":9082:9404   */\n    tag_73:\n        /* \"#utility.yul\":9151:9157   */\n      0x00\n        /* \"#utility.yul\":9204:9206   */\n      0x20\n        /* \"#utility.yul\":9192:9201   */\n      dup3\n        /* \"#utility.yul\":9183:9190   */\n      dup5\n        /* \"#utility.yul\":9179:9202   */\n      sub\n        /* \"#utility.yul\":9175:9207   */\n      slt\n        /* \"#utility.yul\":9172:9224   */\n      iszero\n      tag_471\n      jumpi\n        /* \"#utility.yul\":9220:9221   */\n      0x00\n        /* \"#utility.yul\":9217:9218   */\n      dup1\n        /* \"#utility.yul\":9210:9222   */\n      revert\n        /* \"#utility.yul\":9172:9224   */\n    tag_471:\n        /* \"#utility.yul\":9260:9269   */\n      dup2\n        /* \"#utility.yul\":9247:9270   */\n      calldataload\n        /* \"#utility.yul\":9293:9311   */\n      0xffffffffffffffff\n        /* \"#utility.yul\":9285:9291   */\n      dup2\n        /* \"#utility.yul\":9282:9312   */\n      gt\n        /* \"#utility.yul\":9279:9329   */\n      iszero\n      tag_472\n      jumpi\n        /* \"#utility.yul\":9325:9326   */\n      0x00\n        /* \"#utility.yul\":9322:9323   */\n      dup1\n        /* \"#utility.yul\":9315:9327   */\n      revert\n        /* \"#utility.yul\":9279:9329   */\n    tag_472:\n        /* \"#utility.yul\":9348:9398   */\n      tag_473\n        /* \"#utility.yul\":9390:9397   */\n      dup5\n        /* \"#utility.yul\":9381:9387   */\n      dup3\n        /* \"#utility.yul\":9370:9379   */\n      dup6\n        /* \"#utility.yul\":9366:9388   */\n      add\n        /* \"#utility.yul\":9348:9398   */\n      tag_407\n      jump\t// in\n    tag_473:\n        /* \"#utility.yul\":9338:9398   */\n      swap5\n        /* \"#utility.yul\":9082:9404   */\n      swap4\n      pop\n      pop\n      pop\n      pop\n      jump\t// out\n        /* \"#utility.yul\":10103:10230   */\n    tag_104:\n        /* \"#utility.yul\":10164:10174   */\n      0x4e487b71\n        /* \"#utility.yul\":10159:10162   */\n      0xe0\n        /* \"#utility.yul\":10155:10175   */\n      shl\n        /* \"#utility.yul\":10152:10153   */\n      0x00\n        /* \"#utility.yul\":10145:10176   */\n      mstore\n        /* \"#utility.yul\":10195:10199   */\n      0x32\n        /* \"#utility.yul\":10192:10193   */\n      0x04\n        /* \"#utility.yul\":10185:10200   */\n      mstore\n        /* \"#utility.yul\":10219:10223   */\n      0x24\n        /* \"#utility.yul\":10216:10217   */\n      0x00\n        /* \"#utility.yul\":10209:10224   */\n      revert\n        /* \"#utility.yul\":10235:10362   */\n    tag_409:\n        /* \"#utility.yul\":10296:10306   */\n      0x4e487b71\n        /* \"#utility.yul\":10291:10294   */\n      0xe0\n        /* \"#utility.yul\":10287:10307   */\n      shl\n        /* \"#utility.yul\":10284:10285   */\n      0x00\n        /* \"#utility.yul\":10277:10308   */\n      mstore\n        /* \"#utility.yul\":10327:10331   */\n      0x11\n        /* \"#utility.yul\":10324:10325   */\n      0x04\n        /* \"#utility.yul\":10317:10332   */\n      mstore\n        /* \"#utility.yul\":10351:10355   */\n      0x24\n        /* \"#utility.yul\":10348:10349   */\n      0x00\n        /* \"#utility.yul\":10341:10356   */\n      revert\n        /* \"#utility.yul\":10367:10495   */\n    tag_108:\n        /* \"#utility.yul\":10434:10443   */\n      dup2\n      dup2\n      sub\n        /* \"#utility.yul\":10455:10466   */\n      dup2\n      dup2\n      gt\n        /* \"#utility.yul\":10452:10489   */\n      iszero\n      tag_480\n      jumpi\n        /* \"#utility.yul\":10469:10487   */\n      tag_480\n      tag_409\n      jump\t// in\n    tag_480:\n        /* \"#utility.yul\":10367:10495   */\n      swap3\n      swap2\n      pop\n      pop\n      jump\t// out\n        /* \"#utility.yul\":10500:10627   */\n    tag_117:\n        /* \"#utility.yul\":10561:10571   */\n      0x4e487b71\n        /* \"#utility.yul\":10556:10559   */\n      0xe0\n        /* \"#utility.yul\":10552:10572   */\n      shl\n        /* \"#utility.yul\":10549:10550   */\n      0x00\n        /* \"#utility.yul\":10542:10573   */\n      mstore\n        /* \"#utility.yul\":10592:10596   */\n      0x31\n        /* \"#utility.yul\":10589:10590   */\n      0x04\n        /* \"#utility.yul\":10582:10597   */\n      mstore\n        /* \"#utility.yul\":10616:10620   */\n      0x24\n        /* \"#utility.yul\":10613:10614   */\n      0x00\n        /* \"#utility.yul\":10606:10621   */\n      revert\n        /* \"#utility.yul\":11674:11809   */\n    tag_148:\n        /* \"#utility.yul\":11713:11716   */\n      0x00\n        /* \"#utility.yul\":11734:11751   */\n      0x01\n      dup3\n      add\n        /* \"#utility.yul\":11731:11774   */\n      tag_487\n      jumpi\n        /* \"#utility.yul\":11754:11772   */\n      tag_487\n      tag_409\n      jump\t// in\n    tag_487:\n      pop\n        /* \"#utility.yul\":11801:11802   */\n      0x01\n        /* \"#utility.yul\":11790:11803   */\n      add\n      swap1\n        /* \"#utility.yul\":11674:11809   */\n      jump\t// out\n        /* \"#utility.yul\":11814:12194   */\n    tag_164:\n        /* \"#utility.yul\":11893:11894   */\n      0x01\n        /* \"#utility.yul\":11889:11901   */\n      dup2\n      dup2\n      shr\n      swap1\n        /* \"#utility.yul\":11936:11948   */\n      dup3\n      and\n      dup1\n        /* \"#utility.yul\":11957:12018   */\n      tag_489\n      jumpi\n        /* \"#utility.yul\":12011:12015   */\n      0x7f\n        /* \"#utility.yul\":12003:12009   */\n      dup3\n        /* \"#utility.yul\":11999:12016   */\n      and\n        /* \"#utility.yul\":11989:12016   */\n      swap2\n      pop\n        /* \"#utility.yul\":11957:12018   */\n    tag_489:\n        /* \"#utility.yul\":12064:12066   */\n      0x20\n        /* \"#utility.yul\":12056:12062   */\n      dup3\n        /* \"#utility.yul\":12053:12067   */\n      lt\n        /* \"#utility.yul\":12033:12051   */\n      dup2\n        /* \"#utility.yul\":12030:12068   */\n      sub\n        /* \"#utility.yul\":12027:12188   */\n      tag_158\n      jumpi\n        /* \"#utility.yul\":12110:12120   */\n      0x4e487b71\n        /* \"#utility.yul\":12105:12108   */\n      0xe0\n        /* \"#utility.yul\":12101:12121   */\n      shl\n        /* \"#utility.yul\":12098:12099   */\n      0x00\n        /* \"#utility.yul\":12091:12122   */\n      mstore\n        /* \"#utility.yul\":12145:12149   */\n      0x22\n        /* \"#utility.yul\":12142:12143   */\n      0x04\n        /* \"#utility.yul\":12135:12150   */\n      mstore\n        /* \"#utility.yul\":12173:12177   */\n      0x24\n        /* \"#utility.yul\":12170:12171   */\n      0x00\n        /* \"#utility.yul\":12163:12178   */\n      revert\n        /* \"#utility.yul\":12676:13194   */\n    tag_411:\n        /* \"#utility.yul\":12778:12780   */\n      0x1f\n        /* \"#utility.yul\":12773:12776   */\n      dup3\n        /* \"#utility.yul\":12770:12781   */\n      gt\n        /* \"#utility.yul\":12767:13188   */\n      iszero\n      tag_494\n      jumpi\n        /* \"#utility.yul\":12814:12819   */\n      dup1\n        /* \"#utility.yul\":12811:12812   */\n      0x00\n        /* \"#utility.yul\":12804:12820   */\n      mstore\n        /* \"#utility.yul\":12858:12862   */\n      0x20\n        /* \"#utility.yul\":12855:12856   */\n      0x00\n        /* \"#utility.yul\":12845:12863   */\n      keccak256\n        /* \"#utility.yul\":12928:12930   */\n      0x1f\n        /* \"#utility.yul\":12916:12926   */\n      dup5\n        /* \"#utility.yul\":12912:12931   */\n      add\n        /* \"#utility.yul\":12909:12910   */\n      0x05\n        /* \"#utility.yul\":12905:12932   */\n      shr\n        /* \"#utility.yul\":12899:12903   */\n      dup2\n        /* \"#utility.yul\":12895:12933   */\n      add\n        /* \"#utility.yul\":12964:12968   */\n      0x20\n        /* \"#utility.yul\":12952:12962   */\n      dup6\n        /* \"#utility.yul\":12949:12969   */\n      lt\n        /* \"#utility.yul\":12946:12993   */\n      iszero\n      tag_495\n      jumpi\n      pop\n        /* \"#utility.yul\":12987:12991   */\n      dup1\n        /* \"#utility.yul\":12946:12993   */\n    tag_495:\n        /* \"#utility.yul\":13042:13044   */\n      0x1f\n        /* \"#utility.yul\":13037:13040   */\n      dup5\n        /* \"#utility.yul\":13033:13045   */\n      add\n        /* \"#utility.yul\":13030:13031   */\n      0x05\n        /* \"#utility.yul\":13026:13046   */\n      shr\n        /* \"#utility.yul\":13020:13024   */\n      dup3\n        /* \"#utility.yul\":13016:13047   */\n      add\n        /* \"#utility.yul\":13006:13047   */\n      swap2\n      pop\n        /* \"#utility.yul\":13097:13178   */\n    tag_496:\n        /* \"#utility.yul\":13115:13117   */\n      dup2\n        /* \"#utility.yul\":13108:13113   */\n      dup2\n        /* \"#utility.yul\":13105:13118   */\n      lt\n        /* \"#utility.yul\":13097:13178   */\n      iszero\n      tag_498\n      jumpi\n        /* \"#utility.yul\":13174:13175   */\n      0x00\n        /* \"#utility.yul\":13160:13176   */\n      dup2\n      sstore\n        /* \"#utility.yul\":13141:13142   */\n      0x01\n        /* \"#utility.yul\":13130:13143   */\n      add\n        /* \"#utility.yul\":13097:13178   */\n      jump(tag_496)\n    tag_498:\n        /* \"#utility.yul\":13101:13104   */\n      pop\n      pop\n        /* \"#utility.yul\":12767:13188   */\n    tag_494:\n        /* \"#utility.yul\":12676:13194   */\n      pop\n      pop\n      pop\n      jump\t// out\n        /* \"#utility.yul\":13370:14715   */\n    tag_254:\n        /* \"#utility.yul\":13496:13499   */\n      dup2\n        /* \"#utility.yul\":13490:13500   */\n      mload\n        /* \"#utility.yul\":13523:13541   */\n      0xffffffffffffffff\n        /* \"#utility.yul\":13515:13521   */\n      dup2\n        /* \"#utility.yul\":13512:13542   */\n      gt\n        /* \"#utility.yul\":13509:13565   */\n      iszero\n      tag_502\n      jumpi\n        /* \"#utility.yul\":13545:13563   */\n      tag_502\n      tag_152\n      jump\t// in\n    tag_502:\n        /* \"#utility.yul\":13574:13671   */\n      tag_503\n        /* \"#utility.yul\":13664:13670   */\n      dup2\n        /* \"#utility.yul\":13624:13662   */\n      tag_504\n        /* \"#utility.yul\":13656:13660   */\n      dup5\n        /* \"#utility.yul\":13650:13661   */\n      sload\n        /* \"#utility.yul\":13624:13662   */\n      tag_164\n      jump\t// in\n    tag_504:\n        /* \"#utility.yul\":13618:13622   */\n      dup5\n        /* \"#utility.yul\":13574:13671   */\n      tag_411\n      jump\t// in\n    tag_503:\n        /* \"#utility.yul\":13726:13730   */\n      0x20\n      dup1\n        /* \"#utility.yul\":13783:13785   */\n      0x1f\n        /* \"#utility.yul\":13772:13786   */\n      dup4\n      gt\n        /* \"#utility.yul\":13800:13801   */\n      0x01\n        /* \"#utility.yul\":13795:14458   */\n      dup2\n      eq\n      tag_506\n      jumpi\n        /* \"#utility.yul\":14502:14503   */\n      0x00\n        /* \"#utility.yul\":14519:14525   */\n      dup5\n        /* \"#utility.yul\":14516:14605   */\n      iszero\n      tag_507\n      jumpi\n      pop\n        /* \"#utility.yul\":14571:14590   */\n      dup6\n      dup4\n      add\n        /* \"#utility.yul\":14565:14591   */\n      mload\n        /* \"#utility.yul\":14516:14605   */\n    tag_507:\n      not(0x00)\n        /* \"#utility.yul\":13327:13328   */\n      0x03\n        /* \"#utility.yul\":13323:13334   */\n      dup7\n      swap1\n      shl\n        /* \"#utility.yul\":13319:13343   */\n      shr\n        /* \"#utility.yul\":13315:13344   */\n      not\n        /* \"#utility.yul\":13305:13345   */\n      and\n        /* \"#utility.yul\":13351:13352   */\n      0x01\n        /* \"#utility.yul\":13347:13358   */\n      dup6\n      swap1\n      shl\n        /* \"#utility.yul\":13302:13359   */\n      or\n        /* \"#utility.yul\":14618:14699   */\n      dup6\n      sstore\n        /* \"#utility.yul\":13765:14709   */\n      jump(tag_505)\n        /* \"#utility.yul\":13795:14458   */\n    tag_506:\n        /* \"#utility.yul\":12623:12624   */\n      0x00\n        /* \"#utility.yul\":12616:12630   */\n      dup6\n      dup2\n      mstore\n        /* \"#utility.yul\":12660:12664   */\n      0x20\n        /* \"#utility.yul\":12647:12665   */\n      dup2\n      keccak256\n      not(0x1f)\n        /* \"#utility.yul\":13831:13851   */\n      dup7\n      and\n      swap2\n        /* \"#utility.yul\":13949:14185   */\n    tag_510:\n        /* \"#utility.yul\":13963:13970   */\n      dup3\n        /* \"#utility.yul\":13960:13961   */\n      dup2\n        /* \"#utility.yul\":13957:13971   */\n      lt\n        /* \"#utility.yul\":13949:14185   */\n      iszero\n      tag_512\n      jumpi\n        /* \"#utility.yul\":14052:14071   */\n      dup9\n      dup7\n      add\n        /* \"#utility.yul\":14046:14072   */\n      mload\n        /* \"#utility.yul\":14031:14073   */\n      dup3\n      sstore\n        /* \"#utility.yul\":14144:14171   */\n      swap5\n      dup5\n      add\n      swap5\n        /* \"#utility.yul\":14112:14113   */\n      0x01\n        /* \"#utility.yul\":14100:14114   */\n      swap1\n      swap2\n      add\n      swap1\n        /* \"#utility.yul\":13979:13998   */\n      dup5\n      add\n        /* \"#utility.yul\":13949:14185   */\n      jump(tag_510)\n    tag_512:\n        /* \"#utility.yul\":13953:13956   */\n      pop\n        /* \"#utility.yul\":14213:14219   */\n      dup6\n        /* \"#utility.yul\":14204:14211   */\n      dup3\n        /* \"#utility.yul\":14201:14220   */\n      lt\n        /* \"#utility.yul\":14198:14399   */\n      iszero\n      tag_513\n      jumpi\n        /* \"#utility.yul\":14274:14293   */\n      dup8\n      dup6\n      add\n        /* \"#utility.yul\":14268:14294   */\n      mload\n      not(0x00)\n        /* \"#utility.yul\":14357:14358   */\n      0x03\n        /* \"#utility.yul\":14353:14367   */\n      dup9\n      swap1\n      shl\n        /* \"#utility.yul\":14369:14372   */\n      0xf8\n        /* \"#utility.yul\":14349:14373   */\n      and\n        /* \"#utility.yul\":14345:14382   */\n      shr\n        /* \"#utility.yul\":14341:14383   */\n      not\n        /* \"#utility.yul\":14326:14384   */\n      and\n        /* \"#utility.yul\":14311:14385   */\n      dup2\n      sstore\n        /* \"#utility.yul\":14198:14399   */\n    tag_513:\n      pop\n      pop\n        /* \"#utility.yul\":14445:14446   */\n      0x01\n        /* \"#utility.yul\":14436:14442   */\n      dup5\n        /* \"#utility.yul\":14433:14434   */\n      0x01\n        /* \"#utility.yul\":14429:14443   */\n      shl\n        /* \"#utility.yul\":14425:14447   */\n      add\n        /* \"#utility.yul\":14419:14423   */\n      dup6\n        /* \"#utility.yul\":14412:14448   */\n      sstore\n        /* \"#utility.yul\":13765:14709   */\n    tag_505:\n      pop\n      pop\n      pop\n      pop\n        /* \"#utility.yul\":13370:14715   */\n      pop\n      pop\n      jump\t// out\n\n    auxdata: 0xa2646970667358221220ff09b8dac8c1c81109deb33a0702c2b5aa0fda17b47ec16215cb2a0bd799334764736f6c63430008190033\n}\n",
    "bytecode": {
      "linkReferences": {},
      "object": "6080604052600180553480156012575f80fd5b505f805460ff19169055611fe1806100295f395ff3fe608060405234801561000f575f80fd5b5060043610610115575f3560e01c806362d73eb8116100ad57806391a593031161007d578063d5f0355511610063578063d5f0355514610227578063f68a3b101461022f578063ffc97b2014610237575f80fd5b806391a59303146102015780639eb88db614610214575f80fd5b806362d73eb8146101bf57806367a51396146101c757806387ddc0ec146101d95780638e7ea5b2146101ec575f80fd5b80632e6997fe116100e85780632e6997fe1461017857806333db3eb61461018d57806335bbe70e146101a257806359f78468146101b7575f80fd5b806309e9d7e214610119578063122902a61461012e5780632280043d1461014c5780632c0a3f8914610165575b5f80fd5b61012c610127366004611971565b61023f565b005b6101366103db565b60405161014391906119b6565b60405180910390f35b5f546101589060ff1681565b60405161014391906119e3565b61012c610173366004611a09565b6104be565b610180610697565b6040516101439190611a29565b610195610837565b6040516101439190611aaa565b6101aa6109d1565b6040516101439190611b1f565b61012c610cf8565b61012c610f36565b6006545b604051908152602001610143565b61012c6101e7366004611971565b610ff7565b6101f461118e565b6040516101439190611bec565b61012c61020f366004611d1b565b6113c7565b6101cb610222366004611dc6565b611650565b6005546101cb565b61012c61176a565b6101806118ac565b5f805460ff166002811115610256576102566119cf565b1461029e5760405162461bcd60e51b8152602060048201526013602482015272149959da5cdd1c985d1a5bdb8818db1bdcd959606a1b60448201526064015b60405180910390fd5b5f818152600360208190526040909120015460ff166102ff5760405162461bcd60e51b815260206004820152601160248201527f496e76616c69642063616e6469646174650000000000000000000000000000006044820152606401610295565b5f8181526003602052604081208181559061031d60018301826118bb565b505f600282018190556003909101805460ff191690555b6005548110156103d757816005828154811061035257610352611e00565b905f5260205f200154036103cf576005805461037090600190611e28565b8154811061038057610380611e00565b905f5260205f2001546005828154811061039c5761039c611e00565b5f9182526020909120015560058054806103b8576103b8611e41565b600190038181905f5260205f20015f905590555050565b600101610334565b5050565b60605f805460ff1660028111156103f4576103f46119cf565b03610431575060408051808201909152601281527f526567697374726174696f6e2050686173650000000000000000000000000000602082015290565b60015f5460ff166002811115610449576104496119cf565b03610486575060408051808201909152600c81527f566f74696e672050686173650000000000000000000000000000000000000000602082015290565b5060408051808201909152600e81527f456c656374696f6e20456e646564000000000000000000000000000000000000602082015290565b60015f5460ff1660028111156104d6576104d66119cf565b146105235760405162461bcd60e51b815260206004820152601660248201527f566f74696e67206e6f7420616c6c6f776564206e6f77000000000000000000006044820152606401610295565b5f82815260046020819052604090912001546301000000900460ff1661058b5760405162461bcd60e51b815260206004820152601460248201527f566f746572206e6f7420726567697374657265640000000000000000000000006044820152606401610295565b5f828152600460208190526040909120015462010000900460ff16156105f35760405162461bcd60e51b815260206004820152600d60248201527f416c726561647920766f746564000000000000000000000000000000000000006044820152606401610295565b5f818152600360208190526040909120015460ff166106545760405162461bcd60e51b815260206004820152601160248201527f496e76616c69642063616e6469646174650000000000000000000000000000006044820152606401610295565b5f828152600460208181526040808420909201805462ff000019166201000017905583835260039052812060020180549161068e83611e55565b91905055505050565b6005546060905f9067ffffffffffffffff8111156106b7576106b7611c6f565b60405190808252806020026020018201604052801561070a57816020015b6106f760405180606001604052805f8152602001606081526020015f81525090565b8152602001906001900390816106d55790505b5090505f5b600554811015610831575f6005828154811061072d5761072d611e00565b5f918252602080832090910154604080516060810182528285526003808552918520805482529483905290835260019093018054919450918301919061077290611e6d565b80601f016020809104026020016040519081016040528092919081815260200182805461079e90611e6d565b80156107e95780601f106107c0576101008083540402835291602001916107e9565b820191905f5260205f20905b8154815290600101906020018083116107cc57829003601f168201915b5050505050815260200160035f8481526020019081526020015f206002015481525083838151811061081d5761081d611e00565b60209081029190910101525060010161070f565b50919050565b6006546060905f9067ffffffffffffffff81111561085757610857611c6f565b6040519080825280602002602001820160405280156108ac57816020015b61089960405180606001604052805f8152602001606081526020015f151581525090565b8152602001906001900390816108755790505b5090505f5b600654811015610831575f600682815481106108cf576108cf611e00565b905f5260205f2001549050604051806060016040528082815260200160045f8481526020019081526020015f20600101805461090a90611e6d565b80601f016020809104026020016040519081016040528092919081815260200182805461093690611e6d565b80156109815780601f1061095857610100808354040283529160200191610981565b820191905f5260205f20905b81548152906001019060200180831161096457829003601f168201915b50505091835250505f838152600460208181526040909220015462010000900460ff16151591015283518490849081106109bd576109bd611e00565b6020908102919091010152506001016108b1565b6006546060905f9067ffffffffffffffff8111156109f1576109f1611c6f565b604051908082528060200260200182016040528015610a6457816020015b610a516040518060e001604052805f81526020016060815260200160608152602001606081526020015f151581526020015f151581526020015f151581525090565b815260200190600190039081610a0f5790505b5090505f5b600654811015610831575f60068281548110610a8757610a87611e00565b5f9182526020808320909101546040805160e08101825282855260048085529185208054825294839052908352600190930180549194509183019190610acc90611e6d565b80601f0160208091040260200160405190810160405280929190818152602001828054610af890611e6d565b8015610b435780601f10610b1a57610100808354040283529160200191610b43565b820191905f5260205f20905b815481529060010190602001808311610b2657829003601f168201915b5050505050815260200160045f8481526020019081526020015f206002018054610b6c90611e6d565b80601f0160208091040260200160405190810160405280929190818152602001828054610b9890611e6d565b8015610be35780601f10610bba57610100808354040283529160200191610be3565b820191905f5260205f20905b815481529060010190602001808311610bc657829003601f168201915b5050505050815260200160045f8481526020019081526020015f206003018054610c0c90611e6d565b80601f0160208091040260200160405190810160405280929190818152602001828054610c3890611e6d565b8015610c835780601f10610c5a57610100808354040283529160200191610c83565b820191905f5260205f20905b815481529060010190602001808311610c6657829003601f168201915b50505091835250505f83815260046020818152604080842083015460ff8082161515848801526101008204811615159287019290925293879052919052620100009091041615156060909101528351849084908110610ce457610ce4611e00565b602090810291909101015250600101610a69565b60015f5460ff166002811115610d1057610d106119cf565b14610d5d5760405162461bcd60e51b815260206004820152601660248201527f566f74696e67206e6f7420696e2070726f6772657373000000000000000000006044820152606401610295565b5f805460ff19166002178155805b600554811015610dcd575f60058281548110610d8957610d89611e00565b905f5260205f20015490508260035f8381526020019081526020015f20600201541115610dc4575f8181526003602052604090206002015492505b50600101610d6b565b50610dd960025f6118f5565b5f5b6005548110156103d7575f60058281548110610df957610df9611e00565b905f5260205f20015490508260035f8381526020019081526020015f206002015403610f2d576002604051806060016040528083815260200160035f8581526020019081526020015f206001018054610e5190611e6d565b80601f0160208091040260200160405190810160405280929190818152602001828054610e7d90611e6d565b8015610ec85780601f10610e9f57610100808354040283529160200191610ec8565b820191905f5260205f20905b815481529060010190602001808311610eab57829003601f168201915b50505091835250506040805160208181019092525f808252928201528354600181810186559483529181902083516003909302019182558201519192909190820190610f149082611eeb565b5060408201516002820190610f299082611eeb565b5050505b50600101610ddb565b5f805460ff166002811115610f4d57610f4d6119cf565b14610f9a5760405162461bcd60e51b815260206004820152601960248201527f4e6f7420696e20726567697374726174696f6e207068617365000000000000006044820152606401610295565b600554610fe95760405162461bcd60e51b815260206004820152601860248201527f4e6f2063616e64696461746573207265676973746572656400000000000000006044820152606401610295565b5f805460ff19166001179055565b5f805460ff16600281111561100e5761100e6119cf565b146110515760405162461bcd60e51b8152602060048201526013602482015272149959da5cdd1c985d1a5bdb8818db1bdcd959606a1b6044820152606401610295565b5f81815260046020819052604090912001546301000000900460ff166110b95760405162461bcd60e51b815260206004820152600f60248201527f566f746572206e6f7420666f756e6400000000000000000000000000000000006044820152606401610295565b5f818152600460205260408120818155906110d760018301826118bb565b6110e4600283015f6118bb565b6110f1600383015f6118bb565b50600401805463ffffffff191690555f5b6006548110156103d757816006828154811061112057611120611e00565b905f5260205f20015403611186576006805461113e90600190611e28565b8154811061114e5761114e611e00565b905f5260205f2001546006828154811061116a5761116a611e00565b5f9182526020909120015560068054806103b8576103b8611e41565b600101611102565b606060025f5460ff1660028111156111a8576111a86119cf565b146111f55760405162461bcd60e51b815260206004820152601260248201527f456c656374696f6e206e6f7420656e64656400000000000000000000000000006044820152606401610295565b6002546112445760405162461bcd60e51b815260206004820152600e60248201527f4e6f2077696e6e657273207965740000000000000000000000000000000000006044820152606401610295565b6002805480602002602001604051908101604052809291908181526020015f905b828210156113be578382905f5260205f2090600302016040518060600160405290815f820154815260200160018201805461129f90611e6d565b80601f01602080910402602001604051908101604052809291908181526020018280546112cb90611e6d565b80156113165780601f106112ed57610100808354040283529160200191611316565b820191905f5260205f20905b8154815290600101906020018083116112f957829003601f168201915b5050505050815260200160028201805461132f90611e6d565b80601f016020809104026020016040519081016040528092919081815260200182805461135b90611e6d565b80156113a65780601f1061137d576101008083540402835291602001916113a6565b820191905f5260205f20905b81548152906001019060200180831161138957829003601f168201915b50505050508152505081526020019060010190611265565b50505050905090565b5f805460ff1660028111156113de576113de6119cf565b146114215760405162461bcd60e51b8152602060048201526013602482015272149959da5cdd1c985d1a5bdb8818db1bdcd959606a1b6044820152606401610295565b81801561142b5750805b156114785760405162461bcd60e51b815260206004820152601b60248201527f4e656564206174206c65617374206f6e652062696f6d657472696300000000006044820152606401610295565b5f85815260046020819052604090912001546301000000900460ff16156114e15760405162461bcd60e51b815260206004820152601860248201527f566f74657220616c7265616479207265676973746572656400000000000000006044820152606401610295565b604051806101000160405280868152602001878152602001836115045785611514565b60405180602001604052805f8152505b8152602001826115245784611534565b60405180602001604052805f8152505b81528315156020808301919091528315156040808401919091525f606084018190526001608090940184905289815260048352208351815590830151909182019061157f9082611eeb565b50604082015160028201906115949082611eeb565b50606082015160038201906115a99082611eeb565b506080820151600491909101805460a084015160c085015160e09095015161ffff1990921693151561ff00191693909317610100931515939093029290921763ffff00001916620100009315159390930263ff0000001916929092176301000000911515919091021790555050600680546001810182555f919091527ff652222313e28459528d920b65115c16c04f3efc82aaedc97be59f3f377c0d3f0192909255505050565b5f805f5460ff166002811115611668576116686119cf565b146116ab5760405162461bcd60e51b8152602060048201526013602482015272149959da5cdd1c985d1a5bdb8818db1bdcd959606a1b6044820152606401610295565b600180545f91826116bb83611e55565b909155506040805160808101825282815260208082018781525f8385018190526001606085018190528682526003909352939093208251815592519394509092908201906117099082611eeb565b50604082015160028201556060909101516003909101805460ff1916911515919091179055600580546001810182555f919091527f036b6384b5eca791c62761152d0c79bb0604c104a5fb6f4eb0703f3154bb3db00181905590505b919050565b60025f5460ff166002811115611782576117826119cf565b146117cf5760405162461bcd60e51b815260206004820152601a60248201527f43757272656e7420656c656374696f6e206e6f7420656e6465640000000000006044820152606401610295565b5f5b6005548110156118375760035f600583815481106117f1576117f1611e00565b905f5260205f20015481526020019081526020015f205f8082015f9055600182015f61181d91906118bb565b505f6002820155600301805460ff191690556001016117d1565b5061184360055f611913565b5f5b600654811015611891575f6006828154811061186357611863611e00565b5f9182526020808320909101548252600490819052604090912001805462ff00001916905550600101611845565b5061189d60025f6118f5565b5f805460ff1916905560018055565b60606118b6610697565b905090565b5080546118c790611e6d565b5f825580601f106118d6575050565b601f0160209004905f5260205f20908101906118f2919061192a565b50565b5080545f8255600302905f5260205f20908101906118f29190611942565b5080545f8255905f5260205f20908101906118f291905b5b8082111561193e575f815560010161192b565b5090565b8082111561193e575f80825561195b60018301826118bb565b611968600283015f6118bb565b50600301611942565b5f60208284031215611981575f80fd5b5035919050565b5f81518084528060208401602086015e5f602082860101526020601f19601f83011685010191505092915050565b602081525f6119c86020830184611988565b9392505050565b634e487b7160e01b5f52602160045260245ffd5b6020810160038310611a0357634e487b7160e01b5f52602160045260245ffd5b91905290565b5f8060408385031215611a1a575f80fd5b50508035926020909101359150565b5f60208083018184528085518083526040925060408601915060408160051b8701018488015f5b83811015611a9c57603f19898403018552815160608151855288820151818a870152611a7e82870182611988565b92890151958901959095525094870194925090860190600101611a50565b509098975050505050505050565b5f60208083018184528085518083526040925060408601915060408160051b8701018488015f5b83811015611a9c57603f19898403018552815160608151855288820151818a870152611aff82870182611988565b928901511515958901959095525094870194925090860190600101611ad1565b5f60208083018184528085518083526040925060408601915060408160051b8701018488015f5b83811015611a9c57603f19898403018552815160e08151855288820151818a870152611b7482870182611988565b9150508782015185820389870152611b8c8282611988565b91505060608083015186830382880152611ba68382611988565b60808581015115159089015260a08086015115159089015260c094850151801515868a0152949093509150611bd89050565b509588019593505090860190600101611b46565b5f60208083018184528085518083526040925060408601915060408160051b8701018488015f5b83811015611a9c57603f19898403018552815160608151855288820151818a870152611c4182870182611988565b91505087820151915084810388860152611c5b8183611988565b968901969450505090860190600101611c13565b634e487b7160e01b5f52604160045260245ffd5b5f82601f830112611c92575f80fd5b813567ffffffffffffffff80821115611cad57611cad611c6f565b604051601f8301601f19908116603f01168101908282118183101715611cd557611cd5611c6f565b81604052838152866020858801011115611ced575f80fd5b836020870160208301375f602085830101528094505050505092915050565b80358015158114611765575f80fd5b5f805f805f8060c08789031215611d30575f80fd5b863567ffffffffffffffff80821115611d47575f80fd5b611d538a838b01611c83565b9750602089013596506040890135915080821115611d6f575f80fd5b611d7b8a838b01611c83565b95506060890135915080821115611d90575f80fd5b50611d9d89828a01611c83565b935050611dac60808801611d0c565b9150611dba60a08801611d0c565b90509295509295509295565b5f60208284031215611dd6575f80fd5b813567ffffffffffffffff811115611dec575f80fd5b611df884828501611c83565b949350505050565b634e487b7160e01b5f52603260045260245ffd5b634e487b7160e01b5f52601160045260245ffd5b81810381811115611e3b57611e3b611e14565b92915050565b634e487b7160e01b5f52603160045260245ffd5b5f60018201611e6657611e66611e14565b5060010190565b600181811c90821680611e8157607f821691505b60208210810361083157634e487b7160e01b5f52602260045260245ffd5b601f821115611ee657805f5260205f20601f840160051c81016020851015611ec45750805b601f840160051c820191505b81811015611ee3575f8155600101611ed0565b50505b505050565b815167ffffffffffffffff811115611f0557611f05611c6f565b611f1981611f138454611e6d565b84611e9f565b602080601f831160018114611f4c575f8415611f355750858301515b5f19600386901b1c1916600185901b178555611fa3565b5f85815260208120601f198616915b82811015611f7a57888601518255948401946001909101908401611f5b565b5085821015611f9757878501515f19600388901b60f8161c191681555b505060018460011b0185555b50505050505056fea2646970667358221220ff09b8dac8c1c81109deb33a0702c2b5aa0fda17b47ec16215cb2a0bd799334764736f6c63430008190033",
      "opcodes": "PUSH1 0x80 PUSH1 0x40 MSTORE PUSH1 0x1 DUP1 SSTORE CALLVALUE DUP1 ISZERO PUSH1 0x12 JUMPI PUSH0 DUP1 REVERT JUMPDEST POP PUSH0 DUP1 SLOAD PUSH1 0xFF NOT AND SWAP1 SSTORE PUSH2 0x1FE1 DUP1 PUSH2 0x29 PUSH0 CODECOPY PUSH0 RETURN INVALID PUSH1 0x80 PUSH1 0x40 MSTORE CALLVALUE DUP1 ISZERO PUSH2 0xF JUMPI PUSH0 DUP1 REVERT JUMPDEST POP PUSH1 0x4 CALLDATASIZE LT PUSH2 0x115 JUMPI PUSH0 CALLDATALOAD PUSH1 0xE0 SHR DUP1 PUSH4 0x62D73EB8 GT PUSH2 0xAD JUMPI DUP1 PUSH4 0x91A59303 GT PUSH2 0x7D JUMPI DUP1 PUSH4 0xD5F03555 GT PUSH2 0x63 JUMPI DUP1 PUSH4 0xD5F03555 EQ PUSH2 0x227 JUMPI DUP1 PUSH4 0xF68A3B10 EQ PUSH2 0x22F JUMPI DUP1 PUSH4 0xFFC97B20 EQ PUSH2 0x237 JUMPI PUSH0 DUP1 REVERT JUMPDEST DUP1 PUSH4 0x91A59303 EQ PUSH2 0x201 JUMPI DUP1 PUSH4 0x9EB88DB6 EQ PUSH2 0x214 JUMPI PUSH0 DUP1 REVERT JUMPDEST DUP1 PUSH4 0x62D73EB8 EQ PUSH2 0x1BF JUMPI DUP1 PUSH4 0x67A51396 EQ PUSH2 0x1C7 JUMPI DUP1 PUSH4 0x87DDC0EC EQ PUSH2 0x1D9 JUMPI DUP1 PUSH4 0x8E7EA5B2 EQ PUSH2 0x1EC JUMPI PUSH0 DUP1 REVERT JUMPDEST DUP1 PUSH4 0x2E6997FE GT PUSH2 0xE8 JUMPI DUP1 PUSH4 0x2E6997FE EQ PUSH2 0x178 JUMPI DUP1 PUSH4 0x33DB3EB6 EQ PUSH2 0x18D JUMPI DUP1 PUSH4 0x35BBE70E EQ PUSH2 0x1A2 JUMPI DUP1 PUSH4 0x59F78468 EQ PUSH2 0x1B7 JUMPI PUSH0 DUP1 REVERT JUMPDEST DUP1 PUSH4 0x9E9D7E2 EQ PUSH2 0x119 JUMPI DUP1 PUSH4 0x122902A6 EQ PUSH2 0x12E JUMPI DUP1 PUSH4 0x2280043D EQ PUSH2 0x14C JUMPI DUP1 PUSH4 0x2C0A3F89 EQ PUSH2 0x165 JUMPI JUMPDEST PUSH0 DUP1 REVERT JUMPDEST PUSH2 0x12C PUSH2 0x127 CALLDATASIZE PUSH1 0x4 PUSH2 0x1971 JUMP JUMPDEST PUSH2 0x23F JUMP JUMPDEST STOP JUMPDEST PUSH2 0x136 PUSH2 0x3DB JUMP JUMPDEST PUSH1 0x40 MLOAD PUSH2 0x143 SWAP2 SWAP1 PUSH2 0x19B6 JUMP JUMPDEST PUSH1 0x40 MLOAD DUP1 SWAP2 SUB SWAP1 RETURN JUMPDEST PUSH0 SLOAD PUSH2 0x158 SWAP1 PUSH1 0xFF AND DUP2 JUMP JUMPDEST PUSH1 0x40 MLOAD PUSH2 0x143 SWAP2 SWAP1 PUSH2 0x19E3 JUMP JUMPDEST PUSH2 0x12C PUSH2 0x173 CALLDATASIZE PUSH1 0x4 PUSH2 0x1A09 JUMP JUMPDEST PUSH2 0x4BE JUMP JUMPDEST PUSH2 0x180 PUSH2 0x697 JUMP JUMPDEST PUSH1 0x40 MLOAD PUSH2 0x143 SWAP2 SWAP1 PUSH2 0x1A29 JUMP JUMPDEST PUSH2 0x195 PUSH2 0x837 JUMP JUMPDEST PUSH1 0x40 MLOAD PUSH2 0x143 SWAP2 SWAP1 PUSH2 0x1AAA JUMP JUMPDEST PUSH2 0x1AA PUSH2 0x9D1 JUMP JUMPDEST PUSH1 0x40 MLOAD PUSH2 0x143 SWAP2 SWAP1 PUSH2 0x1B1F JUMP JUMPDEST PUSH2 0x12C PUSH2 0xCF8 JUMP JUMPDEST PUSH2 0x12C PUSH2 0xF36 JUMP JUMPDEST PUSH1 0x6 SLOAD JUMPDEST PUSH1 0x40 MLOAD SWAP1 DUP2 MSTORE PUSH1 0x20 ADD PUSH2 0x143 JUMP JUMPDEST PUSH2 0x12C PUSH2 0x1E7 CALLDATASIZE PUSH1 0x4 PUSH2 0x1971 JUMP JUMPDEST PUSH2 0xFF7 JUMP JUMPDEST PUSH2 0x1F4 PUSH2 0x118E JUMP JUMPDEST PUSH1 0x40 MLOAD PUSH2 0x143 SWAP2 SWAP1 PUSH2 0x1BEC JUMP JUMPDEST PUSH2 0x12C PUSH2 0x20F CALLDATASIZE PUSH1 0x4 PUSH2 0x1D1B JUMP JUMPDEST PUSH2 0x13C7 JUMP JUMPDEST PUSH2 0x1CB PUSH2 0x222 CALLDATASIZE PUSH1 0x4 PUSH2 0x1DC6 JUMP JUMPDEST PUSH2 0x1650 JUMP JUMPDEST PUSH1 0x5 SLOAD PUSH2 0x1CB JUMP JUMPDEST PUSH2 0x12C PUSH2 0x176A JUMP JUMPDEST PUSH2 0x180 PUSH2 0x18AC JUMP JUMPDEST PUSH0 DUP1 SLOAD PUSH1 0xFF AND PUSH1 0x2 DUP2 GT ISZERO PUSH2 0x256 JUMPI PUSH2 0x256 PUSH2 0x19CF JUMP JUMPDEST EQ PUSH2 0x29E JUMPI PUSH1 0x40 MLOAD PUSH3 0x461BCD PUSH1 0xE5 SHL DUP2 MSTORE PUSH1 0x20 PUSH1 0x4 DUP3 ADD MSTORE PUSH1 0x13 PUSH1 0x24 DUP3 ADD MSTORE PUSH19 0x149959DA5CDD1C985D1A5BDB8818DB1BDCD959 PUSH1 0x6A SHL PUSH1 0x44 DUP3 ADD MSTORE PUSH1 0x64 ADD JUMPDEST PUSH1 0x40 MLOAD DUP1 SWAP2 SUB SWAP1 REVERT JUMPDEST PUSH0 DUP2 DUP2 MSTORE PUSH1 0x3 PUSH1 0x20 DUP2 SWAP1 MSTORE PUSH1 0x40 SWAP1 SWAP2 KECCAK256 ADD SLOAD PUSH1 0xFF AND PUSH2 0x2FF JUMPI PUSH1 0x40 MLOAD PUSH3 0x461BCD PUSH1 0xE5 SHL DUP2 MSTORE PUSH1 0x20 PUSH1 0x4 DUP3 ADD MSTORE PUSH1 0x11 PUSH1 0x24 DUP3 ADD MSTORE PUSH32 0x496E76616C69642063616E646964617465000000000000000000000000000000 PUSH1 0x44 DUP3 ADD MSTORE PUSH1 0x64 ADD PUSH2 0x295 JUMP JUMPDEST PUSH0 DUP2 DUP2 MSTORE PUSH1 0x3 PUSH1 0x20 MSTORE PUSH1 0x40 DUP2 KECCAK256 DUP2 DUP2 SSTORE SWAP1 PUSH2 0x31D PUSH1 0x1 DUP4 ADD DUP3 PUSH2 0x18BB JUMP JUMPDEST POP PUSH0 PUSH1 0x2 DUP3 ADD DUP2 SWAP1 SSTORE PUSH1 0x3 SWAP1 SWAP2 ADD DUP1 SLOAD PUSH1 0xFF NOT AND SWAP1 SSTORE JUMPDEST PUSH1 0x5 SLOAD DUP2 LT ISZERO PUSH2 0x3D7 JUMPI DUP2 PUSH1 0x5 DUP3 DUP2 SLOAD DUP2 LT PUSH2 0x352 JUMPI PUSH2 0x352 PUSH2 0x1E00 JUMP JUMPDEST SWAP1 PUSH0 MSTORE PUSH1 0x20 PUSH0 KECCAK256 ADD SLOAD SUB PUSH2 0x3CF JUMPI PUSH1 0x5 DUP1 SLOAD PUSH2 0x370 SWAP1 PUSH1 0x1 SWAP1 PUSH2 0x1E28 JUMP JUMPDEST DUP2 SLOAD DUP2 LT PUSH2 0x380 JUMPI PUSH2 0x380 PUSH2 0x1E00 JUMP JUMPDEST SWAP1 PUSH0 MSTORE PUSH1 0x20 PUSH0 KECCAK256 ADD SLOAD PUSH1 0x5 DUP3 DUP2 SLOAD DUP2 LT PUSH2 0x39C JUMPI PUSH2 0x39C PUSH2 0x1E00 JUMP JUMPDEST PUSH0 SWAP2 DUP3 MSTORE PUSH1 0x20 SWAP1 SWAP2 KECCAK256 ADD SSTORE PUSH1 0x5 DUP1 SLOAD DUP1 PUSH2 0x3B8 JUMPI PUSH2 0x3B8 PUSH2 0x1E41 JUMP JUMPDEST PUSH1 0x1 SWAP1 SUB DUP2 DUP2 SWAP1 PUSH0 MSTORE PUSH1 0x20 PUSH0 KECCAK256 ADD PUSH0 SWAP1 SSTORE SWAP1 SSTORE POP POP JUMP JUMPDEST PUSH1 0x1 ADD PUSH2 0x334 JUMP JUMPDEST POP POP JUMP JUMPDEST PUSH1 0x60 PUSH0 DUP1 SLOAD PUSH1 0xFF AND PUSH1 0x2 DUP2 GT ISZERO PUSH2 0x3F4 JUMPI PUSH2 0x3F4 PUSH2 0x19CF JUMP JUMPDEST SUB PUSH2 0x431 JUMPI POP PUSH1 0x40 DUP1 MLOAD DUP1 DUP3 ADD SWAP1 SWAP2 MSTORE PUSH1 0x12 DUP2 MSTORE PUSH32 0x526567697374726174696F6E2050686173650000000000000000000000000000 PUSH1 0x20 DUP3 ADD MSTORE SWAP1 JUMP JUMPDEST PUSH1 0x1 PUSH0 SLOAD PUSH1 0xFF AND PUSH1 0x2 DUP2 GT ISZERO PUSH2 0x449 JUMPI PUSH2 0x449 PUSH2 0x19CF JUMP JUMPDEST SUB PUSH2 0x486 JUMPI POP PUSH1 0x40 DUP1 MLOAD DUP1 DUP3 ADD SWAP1 SWAP2 MSTORE PUSH1 0xC DUP2 MSTORE PUSH32 0x566F74696E672050686173650000000000000000000000000000000000000000 PUSH1 0x20 DUP3 ADD MSTORE SWAP1 JUMP JUMPDEST POP PUSH1 0x40 DUP1 MLOAD DUP1 DUP3 ADD SWAP1 SWAP2 MSTORE PUSH1 0xE DUP2 MSTORE PUSH32 0x456C656374696F6E20456E646564000000000000000000000000000000000000 PUSH1 0x20 DUP3 ADD MSTORE SWAP1 JUMP JUMPDEST PUSH1 0x1 PUSH0 SLOAD PUSH1 0xFF AND PUSH1 0x2 DUP2 GT ISZERO PUSH2 0x4D6 JUMPI PUSH2 0x4D6 PUSH2 0x19CF JUMP JUMPDEST EQ PUSH2 0x523 JUMPI PUSH1 0x40 MLOAD PUSH3 0x461BCD PUSH1 0xE5 SHL DUP2 MSTORE PUSH1 0x20 PUSH1 0x4 DUP3 ADD MSTORE PUSH1 0x16 PUSH1 0x24 DUP3 ADD MSTORE PUSH32 0x566F74696E67206E6F7420616C6C6F776564206E6F7700000000000000000000 PUSH1 0x44 DUP3 ADD MSTORE PUSH1 0x64 ADD PUSH2 0x295 JUMP JUMPDEST PUSH0 DUP3 DUP2 MSTORE PUSH1 0x4 PUSH1 0x20 DUP2 SWAP1 MSTORE PUSH1 0x40 SWAP1 SWAP2 KECCAK256 ADD SLOAD PUSH4 0x1000000 SWAP1 DIV PUSH1 0xFF AND PUSH2 0x58B JUMPI PUSH1 0x40 MLOAD PUSH3 0x461BCD PUSH1 0xE5 SHL DUP2 MSTORE PUSH1 0x20 PUSH1 0x4 DUP3 ADD MSTORE PUSH1 0x14 PUSH1 0x24 DUP3 ADD MSTORE PUSH32 0x566F746572206E6F742072656769737465726564000000000000000000000000 PUSH1 0x44 DUP3 ADD MSTORE PUSH1 0x64 ADD PUSH2 0x295 JUMP JUMPDEST PUSH0 DUP3 DUP2 MSTORE PUSH1 0x4 PUSH1 0x20 DUP2 SWAP1 MSTORE PUSH1 0x40 SWAP1 SWAP2 KECCAK256 ADD SLOAD PUSH3 0x10000 SWAP1 DIV PUSH1 0xFF AND ISZERO PUSH2 0x5F3 JUMPI PUSH1 0x40 MLOAD PUSH3 0x461BCD PUSH1 0xE5 SHL DUP2 MSTORE PUSH1 0x20 PUSH1 0x4 DUP3 ADD MSTORE PUSH1 0xD PUSH1 0x24 DUP3 ADD MSTORE PUSH32 0x416C726561647920766F74656400000000000000000000000000000000000000 PUSH1 0x44 DUP3 ADD MSTORE PUSH1 0x64 ADD PUSH2 0x295 JUMP JUMPDEST PUSH0 DUP2 DUP2 MSTORE PUSH1 0x3 PUSH1 0x20 DUP2 SWAP1 MSTORE PUSH1 0x40 SWAP1 SWAP2 KECCAK256 ADD SLOAD PUSH1 0xFF AND PUSH2 0x654 JUMPI PUSH1 0x40 MLOAD PUSH3 0x461BCD PUSH1 0xE5 SHL DUP2 MSTORE PUSH1 0x20 PUSH1 0x4 DUP3 ADD MSTORE PUSH1 0x11 PUSH1 0x24 DUP3 ADD MSTORE PUSH32 0x496E76616C69642063616E646964617465000000000000000000000000000000 PUSH1 0x44 DUP3 ADD MSTORE PUSH1 0x64 ADD PUSH2 0x295 JUMP JUMPDEST PUSH0 DUP3 DUP2 MSTORE PUSH1 0x4 PUSH1 0x20 DUP2 DUP2 MSTORE PUSH1 0x40 DUP1 DUP5 KECCAK256 SWAP1 SWAP3 ADD DUP1 SLOAD PUSH3 0xFF0000 NOT AND PUSH3 0x10000 OR SWAP1 SSTORE DUP4 DUP4 MSTORE PUSH1 0x3 SWAP1 MSTORE DUP2 KECCAK256 PUSH1 0x2 ADD DUP1 SLOAD SWAP2 PUSH2 0x68E DUP4 PUSH2 0x1E55 JUMP JUMPDEST SWAP2 SWAP1 POP SSTORE POP POP POP JUMP JUMPDEST PUSH1 0x5 SLOAD PUSH1 0x60 SWAP1 PUSH0 SWAP1 PUSH8 0xFFFFFFFFFFFFFFFF DUP2 GT ISZERO PUSH2 0x6B7 JUMPI PUSH2 0x6B7 PUSH2 0x1C6F JUMP JUMPDEST PUSH1 0x40 MLOAD SWAP1 DUP1 DUP3 MSTORE DUP1 PUSH1 0x20 MUL PUSH1 0x20 ADD DUP3 ADD PUSH1 0x40 MSTORE DUP1 ISZERO PUSH2 0x70A JUMPI DUP2 PUSH1 0x20 ADD JUMPDEST PUSH2 0x6F7 PUSH1 0x40 MLOAD DUP1 PUSH1 0x60 ADD PUSH1 0x40 MSTORE DUP1 PUSH0 DUP2 MSTORE PUSH1 0x20 ADD PUSH1 0x60 DUP2 MSTORE PUSH1 0x20 ADD PUSH0 DUP2 MSTORE POP SWAP1 JUMP JUMPDEST DUP2 MSTORE PUSH1 0x20 ADD SWAP1 PUSH1 0x1 SWAP1 SUB SWAP1 DUP2 PUSH2 0x6D5 JUMPI SWAP1 POP JUMPDEST POP SWAP1 POP PUSH0 JUMPDEST PUSH1 0x5 SLOAD DUP2 LT ISZERO PUSH2 0x831 JUMPI PUSH0 PUSH1 0x5 DUP3 DUP2 SLOAD DUP2 LT PUSH2 0x72D JUMPI PUSH2 0x72D PUSH2 0x1E00 JUMP JUMPDEST PUSH0 SWAP2 DUP3 MSTORE PUSH1 0x20 DUP1 DUP4 KECCAK256 SWAP1 SWAP2 ADD SLOAD PUSH1 0x40 DUP1 MLOAD PUSH1 0x60 DUP2 ADD DUP3 MSTORE DUP3 DUP6 MSTORE PUSH1 0x3 DUP1 DUP6 MSTORE SWAP2 DUP6 KECCAK256 DUP1 SLOAD DUP3 MSTORE SWAP5 DUP4 SWAP1 MSTORE SWAP1 DUP4 MSTORE PUSH1 0x1 SWAP1 SWAP4 ADD DUP1 SLOAD SWAP2 SWAP5 POP SWAP2 DUP4 ADD SWAP2 SWAP1 PUSH2 0x772 SWAP1 PUSH2 0x1E6D JUMP JUMPDEST DUP1 PUSH1 0x1F ADD PUSH1 0x20 DUP1 SWAP2 DIV MUL PUSH1 0x20 ADD PUSH1 0x40 MLOAD SWAP1 DUP2 ADD PUSH1 0x40 MSTORE DUP1 SWAP3 SWAP2 SWAP1 DUP2 DUP2 MSTORE PUSH1 0x20 ADD DUP3 DUP1 SLOAD PUSH2 0x79E SWAP1 PUSH2 0x1E6D JUMP JUMPDEST DUP1 ISZERO PUSH2 0x7E9 JUMPI DUP1 PUSH1 0x1F LT PUSH2 0x7C0 JUMPI PUSH2 0x100 DUP1 DUP4 SLOAD DIV MUL DUP4 MSTORE SWAP2 PUSH1 0x20 ADD SWAP2 PUSH2 0x7E9 JUMP JUMPDEST DUP3 ADD SWAP2 SWAP1 PUSH0 MSTORE PUSH1 0x20 PUSH0 KECCAK256 SWAP1 JUMPDEST DUP2 SLOAD DUP2 MSTORE SWAP1 PUSH1 0x1 ADD SWAP1 PUSH1 0x20 ADD DUP1 DUP4 GT PUSH2 0x7CC JUMPI DUP3 SWAP1 SUB PUSH1 0x1F AND DUP3 ADD SWAP2 JUMPDEST POP POP POP POP POP DUP2 MSTORE PUSH1 0x20 ADD PUSH1 0x3 PUSH0 DUP5 DUP2 MSTORE PUSH1 0x20 ADD SWAP1 DUP2 MSTORE PUSH1 0x20 ADD PUSH0 KECCAK256 PUSH1 0x2 ADD SLOAD DUP2 MSTORE POP DUP4 DUP4 DUP2 MLOAD DUP2 LT PUSH2 0x81D JUMPI PUSH2 0x81D PUSH2 0x1E00 JUMP JUMPDEST PUSH1 0x20 SWAP1 DUP2 MUL SWAP2 SWAP1 SWAP2 ADD ADD MSTORE POP PUSH1 0x1 ADD PUSH2 0x70F JUMP JUMPDEST POP SWAP2 SWAP1 POP JUMP JUMPDEST PUSH1 0x6 SLOAD PUSH1 0x60 SWAP1 PUSH0 SWAP1 PUSH8 0xFFFFFFFFFFFFFFFF DUP2 GT ISZERO PUSH2 0x857 JUMPI PUSH2 0x857 PUSH2 0x1C6F JUMP JUMPDEST PUSH1 0x40 MLOAD SWAP1 DUP1 DUP3 MSTORE DUP1 PUSH1 0x20 MUL PUSH1 0x20 ADD DUP3 ADD PUSH1 0x40 MSTORE DUP1 ISZERO PUSH2 0x8AC JUMPI DUP2 PUSH1 0x20 ADD JUMPDEST PUSH2 0x899 PUSH1 0x40 MLOAD DUP1 PUSH1 0x60 ADD PUSH1 0x40 MSTORE DUP1 PUSH0 DUP2 MSTORE PUSH1 0x20 ADD PUSH1 0x60 DUP2 MSTORE PUSH1 0x20 ADD PUSH0 ISZERO ISZERO DUP2 MSTORE POP SWAP1 JUMP JUMPDEST DUP2 MSTORE PUSH1 0x20 ADD SWAP1 PUSH1 0x1 SWAP1 SUB SWAP1 DUP2 PUSH2 0x875 JUMPI SWAP1 POP JUMPDEST POP SWAP1 POP PUSH0 JUMPDEST PUSH1 0x6 SLOAD DUP2 LT ISZERO PUSH2 0x831 JUMPI PUSH0 PUSH1 0x6 DUP3 DUP2 SLOAD DUP2 LT PUSH2 0x8CF JUMPI PUSH2 0x8CF PUSH2 0x1E00 JUMP JUMPDEST SWAP1 PUSH0 MSTORE PUSH1 0x20 PUSH0 KECCAK256 ADD SLOAD SWAP1 POP PUSH1 0x40 MLOAD DUP1 PUSH1 0x60 ADD PUSH1 0x40 MSTORE DUP1 DUP3 DUP2 MSTORE PUSH1 0x20 ADD PUSH1 0x4 PUSH0 DUP5 DUP2 MSTORE PUSH1 0x20 ADD SWAP1 DUP2 MSTORE PUSH1 0x20 ADD PUSH0 KECCAK256 PUSH1 0x1 ADD DUP1 SLOAD PUSH2 0x90A SWAP1 PUSH2 0x1E6D JUMP JUMPDEST DUP1 PUSH1 0x1F ADD PUSH1 0x20 DUP1 SWAP2 DIV MUL PUSH1 0x20 ADD PUSH1 0x40 MLOAD SWAP1 DUP2 ADD PUSH1 0x40 MSTORE DUP1 SWAP3 SWAP2 SWAP1 DUP2 DUP2 MSTORE PUSH1 0x20 ADD DUP3 DUP1 SLOAD PUSH2 0x936 SWAP1 PUSH2 0x1E6D JUMP JUMPDEST DUP1 ISZERO PUSH2 0x981 JUMPI DUP1 PUSH1 0x1F LT PUSH2 0x958 JUMPI PUSH2 0x100 DUP1 DUP4 SLOAD DIV MUL DUP4 MSTORE SWAP2 PUSH1 0x20 ADD SWAP2 PUSH2 0x981 JUMP JUMPDEST DUP3 ADD SWAP2 SWAP1 PUSH0 MSTORE PUSH1 0x20 PUSH0 KECCAK256 SWAP1 JUMPDEST DUP2 SLOAD DUP2 MSTORE SWAP1 PUSH1 0x1 ADD SWAP1 PUSH1 0x20 ADD DUP1 DUP4 GT PUSH2 0x964 JUMPI DUP3 SWAP1 SUB PUSH1 0x1F AND DUP3 ADD SWAP2 JUMPDEST POP POP POP SWAP2 DUP4 MSTORE POP POP PUSH0 DUP4 DUP2 MSTORE PUSH1 0x4 PUSH1 0x20 DUP2 DUP2 MSTORE PUSH1 0x40 SWAP1 SWAP3 KECCAK256 ADD SLOAD PUSH3 0x10000 SWAP1 DIV PUSH1 0xFF AND ISZERO ISZERO SWAP2 ADD MSTORE DUP4 MLOAD DUP5 SWAP1 DUP5 SWAP1 DUP2 LT PUSH2 0x9BD JUMPI PUSH2 0x9BD PUSH2 0x1E00 JUMP JUMPDEST PUSH1 0x20 SWAP1 DUP2 MUL SWAP2 SWAP1 SWAP2 ADD ADD MSTORE POP PUSH1 0x1 ADD PUSH2 0x8B1 JUMP JUMPDEST PUSH1 0x6 SLOAD PUSH1 0x60 SWAP1 PUSH0 SWAP1 PUSH8 0xFFFFFFFFFFFFFFFF DUP2 GT ISZERO PUSH2 0x9F1 JUMPI PUSH2 0x9F1 PUSH2 0x1C6F JUMP JUMPDEST PUSH1 0x40 MLOAD SWAP1 DUP1 DUP3 MSTORE DUP1 PUSH1 0x20 MUL PUSH1 0x20 ADD DUP3 ADD PUSH1 0x40 MSTORE DUP1 ISZERO PUSH2 0xA64 JUMPI DUP2 PUSH1 0x20 ADD JUMPDEST PUSH2 0xA51 PUSH1 0x40 MLOAD DUP1 PUSH1 0xE0 ADD PUSH1 0x40 MSTORE DUP1 PUSH0 DUP2 MSTORE PUSH1 0x20 ADD PUSH1 0x60 DUP2 MSTORE PUSH1 0x20 ADD PUSH1 0x60 DUP2 MSTORE PUSH1 0x20 ADD PUSH1 0x60 DUP2 MSTORE PUSH1 0x20 ADD PUSH0 ISZERO ISZERO DUP2 MSTORE PUSH1 0x20 ADD PUSH0 ISZERO ISZERO DUP2 MSTORE PUSH1 0x20 ADD PUSH0 ISZERO ISZERO DUP2 MSTORE POP SWAP1 JUMP JUMPDEST DUP2 MSTORE PUSH1 0x20 ADD SWAP1 PUSH1 0x1 SWAP1 SUB SWAP1 DUP2 PUSH2 0xA0F JUMPI SWAP1 POP JUMPDEST POP SWAP1 POP PUSH0 JUMPDEST PUSH1 0x6 SLOAD DUP2 LT ISZERO PUSH2 0x831 JUMPI PUSH0 PUSH1 0x6 DUP3 DUP2 SLOAD DUP2 LT PUSH2 0xA87 JUMPI PUSH2 0xA87 PUSH2 0x1E00 JUMP JUMPDEST PUSH0 SWAP2 DUP3 MSTORE PUSH1 0x20 DUP1 DUP4 KECCAK256 SWAP1 SWAP2 ADD SLOAD PUSH1 0x40 DUP1 MLOAD PUSH1 0xE0 DUP2 ADD DUP3 MSTORE DUP3 DUP6 MSTORE PUSH1 0x4 DUP1 DUP6 MSTORE SWAP2 DUP6 KECCAK256 DUP1 SLOAD DUP3 MSTORE SWAP5 DUP4 SWAP1 MSTORE SWAP1 DUP4 MSTORE PUSH1 0x1 SWAP1 SWAP4 ADD DUP1 SLOAD SWAP2 SWAP5 POP SWAP2 DUP4 ADD SWAP2 SWAP1 PUSH2 0xACC SWAP1 PUSH2 0x1E6D JUMP JUMPDEST DUP1 PUSH1 0x1F ADD PUSH1 0x20 DUP1 SWAP2 DIV MUL PUSH1 0x20 ADD PUSH1 0x40 MLOAD SWAP1 DUP2 ADD PUSH1 0x40 MSTORE DUP1 SWAP3 SWAP2 SWAP1 DUP2 DUP2 MSTORE PUSH1 0x20 ADD DUP3 DUP1 SLOAD PUSH2 0xAF8 SWAP1 PUSH2 0x1E6D JUMP JUMPDEST DUP1 ISZERO PUSH2 0xB43 JUMPI DUP1 PUSH1 0x1F LT PUSH2 0xB1A JUMPI PUSH2 0x100 DUP1 DUP4 SLOAD DIV MUL DUP4 MSTORE SWAP2 PUSH1 0x20 ADD SWAP2 PUSH2 0xB43 JUMP JUMPDEST DUP3 ADD SWAP2 SWAP1 PUSH0 MSTORE PUSH1 0x20 PUSH0 KECCAK256 SWAP1 JUMPDEST DUP2 SLOAD DUP2 MSTORE SWAP1 PUSH1 0x1 ADD SWAP1 PUSH1 0x20 ADD DUP1 DUP4 GT PUSH2 0xB26 JUMPI DUP3 SWAP1 SUB PUSH1 0x1F AND DUP3 ADD SWAP2 JUMPDEST POP POP POP POP POP DUP2 MSTORE PUSH1 0x20 ADD PUSH1 0x4 PUSH0 DUP5 DUP2 MSTORE PUSH1 0x20 ADD SWAP1 DUP2 MSTORE PUSH1 0x20 ADD PUSH0 KECCAK256 PUSH1 0x2 ADD DUP1 SLOAD PUSH2 0xB6C SWAP1 PUSH2 0x1E6D JUMP JUMPDEST DUP1 PUSH1 0x1F ADD PUSH1 0x20 DUP1 SWAP2 DIV MUL PUSH1 0x20 ADD PUSH1 0x40 MLOAD SWAP1 DUP2 ADD PUSH1 0x40 MSTORE DUP1 SWAP3 SWAP2 SWAP1 DUP2 DUP2 MSTORE PUSH1 0x20 ADD DUP3 DUP1 SLOAD PUSH2 0xB98 SWAP1 PUSH2 0x1E6D JUMP JUMPDEST DUP1 ISZERO PUSH2 0xBE3 JUMPI DUP1 PUSH1 0x1F LT PUSH2 0xBBA JUMPI PUSH2 0x100 DUP1 DUP4 SLOAD DIV MUL DUP4 MSTORE SWAP2 PUSH1 0x20 ADD SWAP2 PUSH2 0xBE3 JUMP JUMPDEST DUP3 ADD SWAP2 SWAP1 PUSH0 MSTORE PUSH1 0x20 PUSH0 KECCAK256 SWAP1 JUMPDEST DUP2 SLOAD DUP2 MSTORE SWAP1 PUSH1 0x1 ADD SWAP1 PUSH1 0x20 ADD DUP1 DUP4 GT PUSH2 0xBC6 JUMPI DUP3 SWAP1 SUB PUSH1 0x1F AND DUP3 ADD SWAP2 JUMPDEST POP POP POP POP POP DUP2 MSTORE PUSH1 0x20 ADD PUSH1 0x4 PUSH0 DUP5 DUP2 MSTORE PUSH1 0x20 ADD SWAP1 DUP2 MSTORE PUSH1 0x20 ADD PUSH0 KECCAK256 PUSH1 0x3 ADD DUP1 SLOAD PUSH2 0xC0C SWAP1 PUSH2 0x1E6D JUMP JUMPDEST DUP1 PUSH1 0x1F ADD PUSH1 0x20 DUP1 SWAP2 DIV MUL PUSH1 0x20 ADD PUSH1 0x40 MLOAD SWAP1 DUP2 ADD PUSH1 0x40 MSTORE DUP1 SWAP3 SWAP2 SWAP1 DUP2 DUP2 MSTORE PUSH1 0x20 ADD DUP3 DUP1 SLOAD PUSH2 0xC38 SWAP1 PUSH2 0x1E6D JUMP JUMPDEST DUP1 ISZERO PUSH2 0xC83 JUMPI DUP1 PUSH1 0x1F LT PUSH2 0xC5A JUMPI PUSH2 0x100 DUP1 DUP4 SLOAD DIV MUL DUP4 MSTORE SWAP2 PUSH1 0x20 ADD SWAP2 PUSH2 0xC83 JUMP JUMPDEST DUP3 ADD SWAP2 SWAP1 PUSH0 MSTORE PUSH1 0x20 PUSH0 KECCAK256 SWAP1 JUMPDEST DUP2 SLOAD DUP2 MSTORE SWAP1 PUSH1 0x1 ADD SWAP1 PUSH1 0x20 ADD DUP1 DUP4 GT PUSH2 0xC66 JUMPI DUP3 SWAP1 SUB PUSH1 0x1F AND DUP3 ADD SWAP2 JUMPDEST POP POP POP SWAP2 DUP4 MSTORE POP POP PUSH0 DUP4 DUP2 MSTORE PUSH1 0x4 PUSH1 0x20 DUP2 DUP2 MSTORE PUSH1 0x40 DUP1 DUP5 KECCAK256 DUP4 ADD SLOAD PUSH1 0xFF DUP1 DUP3 AND ISZERO ISZERO DUP5 DUP9 ADD MSTORE PUSH2 0x100 DUP3 DIV DUP2 AND ISZERO ISZERO SWAP3 DUP8 ADD SWAP3 SWAP1 SWAP3 MSTORE SWAP4 DUP8 SWAP1 MSTORE SWAP2 SWAP1 MSTORE PUSH3 0x10000 SWAP1 SWAP2 DIV AND ISZERO ISZERO PUSH1 0x60 SWAP1 SWAP2 ADD MSTORE DUP4 MLOAD DUP5 SWAP1 DUP5 SWAP1 DUP2 LT PUSH2 0xCE4 JUMPI PUSH2 0xCE4 PUSH2 0x1E00 JUMP JUMPDEST PUSH1 0x20 SWAP1 DUP2 MUL SWAP2 SWAP1 SWAP2 ADD ADD MSTORE POP PUSH1 0x1 ADD PUSH2 0xA69 JUMP JUMPDEST PUSH1 0x1 PUSH0 SLOAD PUSH1 0xFF AND PUSH1 0x2 DUP2 GT ISZERO PUSH2 0xD10 JUMPI PUSH2 0xD10 PUSH2 0x19CF JUMP JUMPDEST EQ PUSH2 0xD5D JUMPI PUSH1 0x40 MLOAD PUSH3 0x461BCD PUSH1 0xE5 SHL DUP2 MSTORE PUSH1 0x20 PUSH1 0x4 DUP3 ADD MSTORE PUSH1 0x16 PUSH1 0x24 DUP3 ADD MSTORE PUSH32 0x566F74696E67206E6F7420696E2070726F677265737300000000000000000000 PUSH1 0x44 DUP3 ADD MSTORE PUSH1 0x64 ADD PUSH2 0x295 JUMP JUMPDEST PUSH0 DUP1 SLOAD PUSH1 0xFF NOT AND PUSH1 0x2 OR DUP2 SSTORE DUP1 JUMPDEST PUSH1 0x5 SLOAD DUP2 LT ISZERO PUSH2 0xDCD JUMPI PUSH0 PUSH1 0x5 DUP3 DUP2 SLOAD DUP2 LT PUSH2 0xD89 JUMPI PUSH2 0xD89 PUSH2 0x1E00 JUMP JUMPDEST SWAP1 PUSH0 MSTORE PUSH1 0x20 PUSH0 KECCAK256 ADD SLOAD SWAP1 POP DUP3 PUSH1 0x3 PUSH0 DUP4 DUP2 MSTORE PUSH1 0x20 ADD SWAP1 DUP2 MSTORE PUSH1 0x20 ADD PUSH0 KECCAK256 PUSH1 0x2 ADD SLOAD GT ISZERO PUSH2 0xDC4 JUMPI PUSH0 DUP2 DUP2 MSTORE PUSH1 0x3 PUSH1 0x20 MSTORE PUSH1 0x40 SWAP1 KECCAK256 PUSH1 0x2 ADD SLOAD SWAP3 POP JUMPDEST POP PUSH1 0x1 ADD PUSH2 0xD6B JUMP JUMPDEST POP PUSH2 0xDD9 PUSH1 0x2 PUSH0 PUSH2 0x18F5 JUMP JUMPDEST PUSH0 JUMPDEST PUSH1 0x5 SLOAD DUP2 LT ISZERO PUSH2 0x3D7 JUMPI PUSH0 PUSH1 0x5 DUP3 DUP2 SLOAD DUP2 LT PUSH2 0xDF9 JUMPI PUSH2 0xDF9 PUSH2 0x1E00 JUMP JUMPDEST SWAP1 PUSH0 MSTORE PUSH1 0x20 PUSH0 KECCAK256 ADD SLOAD SWAP1 POP DUP3 PUSH1 0x3 PUSH0 DUP4 DUP2 MSTORE PUSH1 0x20 ADD SWAP1 DUP2 MSTORE PUSH1 0x20 ADD PUSH0 KECCAK256 PUSH1 0x2 ADD SLOAD SUB PUSH2 0xF2D JUMPI PUSH1 0x2 PUSH1 0x40 MLOAD DUP1 PUSH1 0x60 ADD PUSH1 0x40 MSTORE DUP1 DUP4 DUP2 MSTORE PUSH1 0x20 ADD PUSH1 0x3 PUSH0 DUP6 DUP2 MSTORE PUSH1 0x20 ADD SWAP1 DUP2 MSTORE PUSH1 0x20 ADD PUSH0 KECCAK256 PUSH1 0x1 ADD DUP1 SLOAD PUSH2 0xE51 SWAP1 PUSH2 0x1E6D JUMP JUMPDEST DUP1 PUSH1 0x1F ADD PUSH1 0x20 DUP1 SWAP2 DIV MUL PUSH1 0x20 ADD PUSH1 0x40 MLOAD SWAP1 DUP2 ADD PUSH1 0x40 MSTORE DUP1 SWAP3 SWAP2 SWAP1 DUP2 DUP2 MSTORE PUSH1 0x20 ADD DUP3 DUP1 SLOAD PUSH2 0xE7D SWAP1 PUSH2 0x1E6D JUMP JUMPDEST DUP1 ISZERO PUSH2 0xEC8 JUMPI DUP1 PUSH1 0x1F LT PUSH2 0xE9F JUMPI PUSH2 0x100 DUP1 DUP4 SLOAD DIV MUL DUP4 MSTORE SWAP2 PUSH1 0x20 ADD SWAP2 PUSH2 0xEC8 JUMP JUMPDEST DUP3 ADD SWAP2 SWAP1 PUSH0 MSTORE PUSH1 0x20 PUSH0 KECCAK256 SWAP1 JUMPDEST DUP2 SLOAD DUP2 MSTORE SWAP1 PUSH1 0x1 ADD SWAP1 PUSH1 0x20 ADD DUP1 DUP4 GT PUSH2 0xEAB JUMPI DUP3 SWAP1 SUB PUSH1 0x1F AND DUP3 ADD SWAP2 JUMPDEST POP POP POP SWAP2 DUP4 MSTORE POP POP PUSH1 0x40 DUP1 MLOAD PUSH1 0x20 DUP2 DUP2 ADD SWAP1 SWAP3 MSTORE PUSH0 DUP1 DUP3 MSTORE SWAP3 DUP3 ADD MSTORE DUP4 SLOAD PUSH1 0x1 DUP2 DUP2 ADD DUP7 SSTORE SWAP5 DUP4 MSTORE SWAP2 DUP2 SWAP1 KECCAK256 DUP4 MLOAD PUSH1 0x3 SWAP1 SWAP4 MUL ADD SWAP2 DUP3 SSTORE DUP3 ADD MLOAD SWAP2 SWAP3 SWAP1 SWAP2 SWAP1 DUP3 ADD SWAP1 PUSH2 0xF14 SWAP1 DUP3 PUSH2 0x1EEB JUMP JUMPDEST POP PUSH1 0x40 DUP3 ADD MLOAD PUSH1 0x2 DUP3 ADD SWAP1 PUSH2 0xF29 SWAP1 DUP3 PUSH2 0x1EEB JUMP JUMPDEST POP POP POP JUMPDEST POP PUSH1 0x1 ADD PUSH2 0xDDB JUMP JUMPDEST PUSH0 DUP1 SLOAD PUSH1 0xFF AND PUSH1 0x2 DUP2 GT ISZERO PUSH2 0xF4D JUMPI PUSH2 0xF4D PUSH2 0x19CF JUMP JUMPDEST EQ PUSH2 0xF9A JUMPI PUSH1 0x40 MLOAD PUSH3 0x461BCD PUSH1 0xE5 SHL DUP2 MSTORE PUSH1 0x20 PUSH1 0x4 DUP3 ADD MSTORE PUSH1 0x19 PUSH1 0x24 DUP3 ADD MSTORE PUSH32 0x4E6F7420696E20726567697374726174696F6E20706861736500000000000000 PUSH1 0x44 DUP3 ADD MSTORE PUSH1 0x64 ADD PUSH2 0x295 JUMP JUMPDEST PUSH1 0x5 SLOAD PUSH2 0xFE9 JUMPI PUSH1 0x40 MLOAD PUSH3 0x461BCD PUSH1 0xE5 SHL DUP2 MSTORE PUSH1 0x20 PUSH1 0x4 DUP3 ADD MSTORE PUSH1 0x18 PUSH1 0x24 DUP3 ADD MSTORE PUSH32 0x4E6F2063616E6469646174657320726567697374657265640000000000000000 PUSH1 0x44 DUP3 ADD MSTORE PUSH1 0x64 ADD PUSH2 0x295 JUMP JUMPDEST PUSH0 DUP1 SLOAD PUSH1 0xFF NOT AND PUSH1 0x1 OR SWAP1 SSTORE JUMP JUMPDEST PUSH0 DUP1 SLOAD PUSH1 0xFF AND PUSH1 0x2 DUP2 GT ISZERO PUSH2 0x100E JUMPI PUSH2 0x100E PUSH2 0x19CF JUMP JUMPDEST EQ PUSH2 0x1051 JUMPI PUSH1 0x40 MLOAD PUSH3 0x461BCD PUSH1 0xE5 SHL DUP2 MSTORE PUSH1 0x20 PUSH1 0x4 DUP3 ADD MSTORE PUSH1 0x13 PUSH1 0x24 DUP3 ADD MSTORE PUSH19 0x149959DA5CDD1C985D1A5BDB8818DB1BDCD959 PUSH1 0x6A SHL PUSH1 0x44 DUP3 ADD MSTORE PUSH1 0x64 ADD PUSH2 0x295 JUMP JUMPDEST PUSH0 DUP2 DUP2 MSTORE PUSH1 0x4 PUSH1 0x20 DUP2 SWAP1 MSTORE PUSH1 0x40 SWAP1 SWAP2 KECCAK256 ADD SLOAD PUSH4 0x1000000 SWAP1 DIV PUSH1 0xFF AND PUSH2 0x10B9 JUMPI PUSH1 0x40 MLOAD PUSH3 0x461BCD PUSH1 0xE5 SHL DUP2 MSTORE PUSH1 0x20 PUSH1 0x4 DUP3 ADD MSTORE PUSH1 0xF PUSH1 0x24 DUP3 ADD MSTORE PUSH32 0x566F746572206E6F7420666F756E640000000000000000000000000000000000 PUSH1 0x44 DUP3 ADD MSTORE PUSH1 0x64 ADD PUSH2 0x295 JUMP JUMPDEST PUSH0 DUP2 DUP2 MSTORE PUSH1 0x4 PUSH1 0x20 MSTORE PUSH1 0x40 DUP2 KECCAK256 DUP2 DUP2 SSTORE SWAP1 PUSH2 0x10D7 PUSH1 0x1 DUP4 ADD DUP3 PUSH2 0x18BB JUMP JUMPDEST PUSH2 0x10E4 PUSH1 0x2 DUP4 ADD PUSH0 PUSH2 0x18BB JUMP JUMPDEST PUSH2 0x10F1 PUSH1 0x3 DUP4 ADD PUSH0 PUSH2 0x18BB JUMP JUMPDEST POP PUSH1 0x4 ADD DUP1 SLOAD PUSH4 0xFFFFFFFF NOT AND SWAP1 SSTORE PUSH0 JUMPDEST PUSH1 0x6 SLOAD DUP2 LT ISZERO PUSH2 0x3D7 JUMPI DUP2 PUSH1 0x6 DUP3 DUP2 SLOAD DUP2 LT PUSH2 0x1120 JUMPI PUSH2 0x1120 PUSH2 0x1E00 JUMP JUMPDEST SWAP1 PUSH0 MSTORE PUSH1 0x20 PUSH0 KECCAK256 ADD SLOAD SUB PUSH2 0x1186 JUMPI PUSH1 0x6 DUP1 SLOAD PUSH2 0x113E SWAP1 PUSH1 0x1 SWAP1 PUSH2 0x1E28 JUMP JUMPDEST DUP2 SLOAD DUP2 LT PUSH2 0x114E JUMPI PUSH2 0x114E PUSH2 0x1E00 JUMP JUMPDEST SWAP1 PUSH0 MSTORE PUSH1 0x20 PUSH0 KECCAK256 ADD SLOAD PUSH1 0x6 DUP3 DUP2 SLOAD DUP2 LT PUSH2 0x116A JUMPI PUSH2 0x116A PUSH2 0x1E00 JUMP JUMPDEST PUSH0 SWAP2 DUP3 MSTORE PUSH1 0x20 SWAP1 SWAP2 KECCAK256 ADD SSTORE PUSH1 0x6 DUP1 SLOAD DUP1 PUSH2 0x3B8 JUMPI PUSH2 0x3B8 PUSH2 0x1E41 JUMP JUMPDEST PUSH1 0x1 ADD PUSH2 0x1102 JUMP JUMPDEST PUSH1 0x60 PUSH1 0x2 PUSH0 SLOAD PUSH1 0xFF AND PUSH1 0x2 DUP2 GT ISZERO PUSH2 0x11A8 JUMPI PUSH2 0x11A8 PUSH2 0x19CF JUMP JUMPDEST EQ PUSH2 0x11F5 JUMPI PUSH1 0x40 MLOAD PUSH3 0x461BCD PUSH1 0xE5 SHL DUP2 MSTORE PUSH1 0x20 PUSH1 0x4 DUP3 ADD MSTORE PUSH1 0x12 PUSH1 0x24 DUP3 ADD MSTORE PUSH32 0x456C656374696F6E206E6F7420656E6465640000000000000000000000000000 PUSH1 0x44 DUP3 ADD MSTORE PUSH1 0x64 ADD PUSH2 0x295 JUMP JUMPDEST PUSH1 0x2 SLOAD PUSH2 0x1244 JUMPI PUSH1 0x40 MLOAD PUSH3 0x461BCD PUSH1 0xE5 SHL DUP2 MSTORE PUSH1 0x20 PUSH1 0x4 DUP3 ADD MSTORE PUSH1 0xE PUSH1 0x24 DUP3 ADD MSTORE PUSH32 0x4E6F2077696E6E65727320796574000000000000000000000000000000000000 PUSH1 0x44 DUP3 ADD MSTORE PUSH1 0x64 ADD PUSH2 0x295 JUMP JUMPDEST PUSH1 0x2 DUP1 SLOAD DUP1 PUSH1 0x20 MUL PUSH1 0x20 ADD PUSH1 0x40 MLOAD SWAP1 DUP2 ADD PUSH1 0x40 MSTORE DUP1 SWAP3 SWAP2 SWAP1 DUP2 DUP2 MSTORE PUSH1 0x20 ADD PUSH0 SWAP1 JUMPDEST DUP3 DUP3 LT ISZERO PUSH2 0x13BE JUMPI DUP4 DUP3 SWAP1 PUSH0 MSTORE PUSH1 0x20 PUSH0 KECCAK256 SWAP1 PUSH1 0x3 MUL ADD PUSH1 0x40 MLOAD DUP1 PUSH1 0x60 ADD PUSH1 0x40 MSTORE SWAP1 DUP2 PUSH0 DUP3 ADD SLOAD DUP2 MSTORE PUSH1 0x20 ADD PUSH1 0x1 DUP3 ADD DUP1 SLOAD PUSH2 0x129F SWAP1 PUSH2 0x1E6D JUMP JUMPDEST DUP1 PUSH1 0x1F ADD PUSH1 0x20 DUP1 SWAP2 DIV MUL PUSH1 0x20 ADD PUSH1 0x40 MLOAD SWAP1 DUP2 ADD PUSH1 0x40 MSTORE DUP1 SWAP3 SWAP2 SWAP1 DUP2 DUP2 MSTORE PUSH1 0x20 ADD DUP3 DUP1 SLOAD PUSH2 0x12CB SWAP1 PUSH2 0x1E6D JUMP JUMPDEST DUP1 ISZERO PUSH2 0x1316 JUMPI DUP1 PUSH1 0x1F LT PUSH2 0x12ED JUMPI PUSH2 0x100 DUP1 DUP4 SLOAD DIV MUL DUP4 MSTORE SWAP2 PUSH1 0x20 ADD SWAP2 PUSH2 0x1316 JUMP JUMPDEST DUP3 ADD SWAP2 SWAP1 PUSH0 MSTORE PUSH1 0x20 PUSH0 KECCAK256 SWAP1 JUMPDEST DUP2 SLOAD DUP2 MSTORE SWAP1 PUSH1 0x1 ADD SWAP1 PUSH1 0x20 ADD DUP1 DUP4 GT PUSH2 0x12F9 JUMPI DUP3 SWAP1 SUB PUSH1 0x1F AND DUP3 ADD SWAP2 JUMPDEST POP POP POP POP POP DUP2 MSTORE PUSH1 0x20 ADD PUSH1 0x2 DUP3 ADD DUP1 SLOAD PUSH2 0x132F SWAP1 PUSH2 0x1E6D JUMP JUMPDEST DUP1 PUSH1 0x1F ADD PUSH1 0x20 DUP1 SWAP2 DIV MUL PUSH1 0x20 ADD PUSH1 0x40 MLOAD SWAP1 DUP2 ADD PUSH1 0x40 MSTORE DUP1 SWAP3 SWAP2 SWAP1 DUP2 DUP2 MSTORE PUSH1 0x20 ADD DUP3 DUP1 SLOAD PUSH2 0x135B SWAP1 PUSH2 0x1E6D JUMP JUMPDEST DUP1 ISZERO PUSH2 0x13A6 JUMPI DUP1 PUSH1 0x1F LT PUSH2 0x137D JUMPI PUSH2 0x100 DUP1 DUP4 SLOAD DIV MUL DUP4 MSTORE SWAP2 PUSH1 0x20 ADD SWAP2 PUSH2 0x13A6 JUMP JUMPDEST DUP3 ADD SWAP2 SWAP1 PUSH0 MSTORE PUSH1 0x20 PUSH0 KECCAK256 SWAP1 JUMPDEST DUP2 SLOAD DUP2 MSTORE SWAP1 PUSH1 0x1 ADD SWAP1 PUSH1 0x20 ADD DUP1 DUP4 GT PUSH2 0x1389 JUMPI DUP3 SWAP1 SUB PUSH1 0x1F AND DUP3 ADD SWAP2 JUMPDEST POP POP POP POP POP DUP2 MSTORE POP POP DUP2 MSTORE PUSH1 0x20 ADD SWAP1 PUSH1 0x1 ADD SWAP1 PUSH2 0x1265 JUMP JUMPDEST POP POP POP POP SWAP1 POP SWAP1 JUMP JUMPDEST PUSH0 DUP1 SLOAD PUSH1 0xFF AND PUSH1 0x2 DUP2 GT ISZERO PUSH2 0x13DE JUMPI PUSH2 0x13DE PUSH2 0x19CF JUMP JUMPDEST EQ PUSH2 0x1421 JUMPI PUSH1 0x40 MLOAD PUSH3 0x461BCD PUSH1 0xE5 SHL DUP2 MSTORE PUSH1 0x20 PUSH1 0x4 DUP3 ADD MSTORE PUSH1 0x13 PUSH1 0x24 DUP3 ADD MSTORE PUSH19 0x149959DA5CDD1C985D1A5BDB8818DB1BDCD959 PUSH1 0x6A SHL PUSH1 0x44 DUP3 ADD MSTORE PUSH1 0x64 ADD PUSH2 0x295 JUMP JUMPDEST DUP2 DUP1 ISZERO PUSH2 0x142B JUMPI POP DUP1 JUMPDEST ISZERO PUSH2 0x1478 JUMPI PUSH1 0x40 MLOAD PUSH3 0x461BCD PUSH1 0xE5 SHL DUP2 MSTORE PUSH1 0x20 PUSH1 0x4 DUP3 ADD MSTORE PUSH1 0x1B PUSH1 0x24 DUP3 ADD MSTORE PUSH32 0x4E656564206174206C65617374206F6E652062696F6D65747269630000000000 PUSH1 0x44 DUP3 ADD MSTORE PUSH1 0x64 ADD PUSH2 0x295 JUMP JUMPDEST PUSH0 DUP6 DUP2 MSTORE PUSH1 0x4 PUSH1 0x20 DUP2 SWAP1 MSTORE PUSH1 0x40 SWAP1 SWAP2 KECCAK256 ADD SLOAD PUSH4 0x1000000 SWAP1 DIV PUSH1 0xFF AND ISZERO PUSH2 0x14E1 JUMPI PUSH1 0x40 MLOAD PUSH3 0x461BCD PUSH1 0xE5 SHL DUP2 MSTORE PUSH1 0x20 PUSH1 0x4 DUP3 ADD MSTORE PUSH1 0x18 PUSH1 0x24 DUP3 ADD MSTORE PUSH32 0x566F74657220616C726561647920726567697374657265640000000000000000 PUSH1 0x44 DUP3 ADD MSTORE PUSH1 0x64 ADD PUSH2 0x295 JUMP JUMPDEST PUSH1 0x40 MLOAD DUP1 PUSH2 0x100 ADD PUSH1 0x40 MSTORE DUP1 DUP7 DUP2 MSTORE PUSH1 0x20 ADD DUP8 DUP2 MSTORE PUSH1 0x20 ADD DUP4 PUSH2 0x1504 JUMPI DUP6 PUSH2 0x1514 JUMP JUMPDEST PUSH1 0x40 MLOAD DUP1 PUSH1 0x20 ADD PUSH1 0x40 MSTORE DUP1 PUSH0 DUP2 MSTORE POP JUMPDEST DUP2 MSTORE PUSH1 0x20 ADD DUP3 PUSH2 0x1524 JUMPI DUP5 PUSH2 0x1534 JUMP JUMPDEST PUSH1 0x40 MLOAD DUP1 PUSH1 0x20 ADD PUSH1 0x40 MSTORE DUP1 PUSH0 DUP2 MSTORE POP JUMPDEST DUP2 MSTORE DUP4 ISZERO ISZERO PUSH1 0x20 DUP1 DUP4 ADD SWAP2 SWAP1 SWAP2 MSTORE DUP4 ISZERO ISZERO PUSH1 0x40 DUP1 DUP5 ADD SWAP2 SWAP1 SWAP2 MSTORE PUSH0 PUSH1 0x60 DUP5 ADD DUP2 SWAP1 MSTORE PUSH1 0x1 PUSH1 0x80 SWAP1 SWAP5 ADD DUP5 SWAP1 MSTORE DUP10 DUP2 MSTORE PUSH1 0x4 DUP4 MSTORE KECCAK256 DUP4 MLOAD DUP2 SSTORE SWAP1 DUP4 ADD MLOAD SWAP1 SWAP2 DUP3 ADD SWAP1 PUSH2 0x157F SWAP1 DUP3 PUSH2 0x1EEB JUMP JUMPDEST POP PUSH1 0x40 DUP3 ADD MLOAD PUSH1 0x2 DUP3 ADD SWAP1 PUSH2 0x1594 SWAP1 DUP3 PUSH2 0x1EEB JUMP JUMPDEST POP PUSH1 0x60 DUP3 ADD MLOAD PUSH1 0x3 DUP3 ADD SWAP1 PUSH2 0x15A9 SWAP1 DUP3 PUSH2 0x1EEB JUMP JUMPDEST POP PUSH1 0x80 DUP3 ADD MLOAD PUSH1 0x4 SWAP2 SWAP1 SWAP2 ADD DUP1 SLOAD PUSH1 0xA0 DUP5 ADD MLOAD PUSH1 0xC0 DUP6 ADD MLOAD PUSH1 0xE0 SWAP1 SWAP6 ADD MLOAD PUSH2 0xFFFF NOT SWAP1 SWAP3 AND SWAP4 ISZERO ISZERO PUSH2 0xFF00 NOT AND SWAP4 SWAP1 SWAP4 OR PUSH2 0x100 SWAP4 ISZERO ISZERO SWAP4 SWAP1 SWAP4 MUL SWAP3 SWAP1 SWAP3 OR PUSH4 0xFFFF0000 NOT AND PUSH3 0x10000 SWAP4 ISZERO ISZERO SWAP4 SWAP1 SWAP4 MUL PUSH4 0xFF000000 NOT AND SWAP3 SWAP1 SWAP3 OR PUSH4 0x1000000 SWAP2 ISZERO ISZERO SWAP2 SWAP1 SWAP2 MUL OR SWAP1 SSTORE POP POP PUSH1 0x6 DUP1 SLOAD PUSH1 0x1 DUP2 ADD DUP3 SSTORE PUSH0 SWAP2 SWAP1 SWAP2 MSTORE PUSH32 0xF652222313E28459528D920B65115C16C04F3EFC82AAEDC97BE59F3F377C0D3F ADD SWAP3 SWAP1 SWAP3 SSTORE POP POP POP JUMP JUMPDEST PUSH0 DUP1 PUSH0 SLOAD PUSH1 0xFF AND PUSH1 0x2 DUP2 GT ISZERO PUSH2 0x1668 JUMPI PUSH2 0x1668 PUSH2 0x19CF JUMP JUMPDEST EQ PUSH2 0x16AB JUMPI PUSH1 0x40 MLOAD PUSH3 0x461BCD PUSH1 0xE5 SHL DUP2 MSTORE PUSH1 0x20 PUSH1 0x4 DUP3 ADD MSTORE PUSH1 0x13 PUSH1 0x24 DUP3 ADD MSTORE PUSH19 0x149959DA5CDD1C985D1A5BDB8818DB1BDCD959 PUSH1 0x6A SHL PUSH1 0x44 DUP3 ADD MSTORE PUSH1 0x64 ADD PUSH2 0x295 JUMP JUMPDEST PUSH1 0x1 DUP1 SLOAD PUSH0 SWAP2 DUP3 PUSH2 0x16BB DUP4 PUSH2 0x1E55 JUMP JUMPDEST SWAP1 SWAP2 SSTORE POP PUSH1 0x40 DUP1 MLOAD PUSH1 0x80 DUP2 ADD DUP3 MSTORE DUP3 DUP2 MSTORE PUSH1 0x20 DUP1 DUP3 ADD DUP8 DUP2 MSTORE PUSH0 DUP4 DUP6 ADD DUP2 SWAP1 MSTORE PUSH1 0x1 PUSH1 0x60 DUP6 ADD DUP2 SWAP1 MSTORE DUP7 DUP3 MSTORE PUSH1 0x3 SWAP1 SWAP4 MSTORE SWAP4 SWAP1 SWAP4 KECCAK256 DUP3 MLOAD DUP2 SSTORE SWAP3 MLOAD SWAP4 SWAP5 POP SWAP1 SWAP3 SWAP1 DUP3 ADD SWAP1 PUSH2 0x1709 SWAP1 DUP3 PUSH2 0x1EEB JUMP JUMPDEST POP PUSH1 0x40 DUP3 ADD MLOAD PUSH1 0x2 DUP3 ADD SSTORE PUSH1 0x60 SWAP1 SWAP2 ADD MLOAD PUSH1 0x3 SWAP1 SWAP2 ADD DUP1 SLOAD PUSH1 0xFF NOT AND SWAP2 ISZERO ISZERO SWAP2 SWAP1 SWAP2 OR SWAP1 SSTORE PUSH1 0x5 DUP1 SLOAD PUSH1 0x1 DUP2 ADD DUP3 SSTORE PUSH0 SWAP2 SWAP1 SWAP2 MSTORE PUSH32 0x36B6384B5ECA791C62761152D0C79BB0604C104A5FB6F4EB0703F3154BB3DB0 ADD DUP2 SWAP1 SSTORE SWAP1 POP JUMPDEST SWAP2 SWAP1 POP JUMP JUMPDEST PUSH1 0x2 PUSH0 SLOAD PUSH1 0xFF AND PUSH1 0x2 DUP2 GT ISZERO PUSH2 0x1782 JUMPI PUSH2 0x1782 PUSH2 0x19CF JUMP JUMPDEST EQ PUSH2 0x17CF JUMPI PUSH1 0x40 MLOAD PUSH3 0x461BCD PUSH1 0xE5 SHL DUP2 MSTORE PUSH1 0x20 PUSH1 0x4 DUP3 ADD MSTORE PUSH1 0x1A PUSH1 0x24 DUP3 ADD MSTORE PUSH32 0x43757272656E7420656C656374696F6E206E6F7420656E646564000000000000 PUSH1 0x44 DUP3 ADD MSTORE PUSH1 0x64 ADD PUSH2 0x295 JUMP JUMPDEST PUSH0 JUMPDEST PUSH1 0x5 SLOAD DUP2 LT ISZERO PUSH2 0x1837 JUMPI PUSH1 0x3 PUSH0 PUSH1 0x5 DUP4 DUP2 SLOAD DUP2 LT PUSH2 0x17F1 JUMPI PUSH2 0x17F1 PUSH2 0x1E00 JUMP JUMPDEST SWAP1 PUSH0 MSTORE PUSH1 0x20 PUSH0 KECCAK256 ADD SLOAD DUP2 MSTORE PUSH1 0x20 ADD SWAP1 DUP2 MSTORE PUSH1 0x20 ADD PUSH0 KECCAK256 PUSH0 DUP1 DUP3 ADD PUSH0 SWAP1 SSTORE PUSH1 0x1 DUP3 ADD PUSH0 PUSH2 0x181D SWAP2 SWAP1 PUSH2 0x18BB JUMP JUMPDEST POP PUSH0 PUSH1 0x2 DUP3 ADD SSTORE PUSH1 0x3 ADD DUP1 SLOAD PUSH1 0xFF NOT AND SWAP1 SSTORE PUSH1 0x1 ADD PUSH2 0x17D1 JUMP JUMPDEST POP PUSH2 0x1843 PUSH1 0x5 PUSH0 PUSH2 0x1913 JUMP JUMPDEST PUSH0 JUMPDEST PUSH1 0x6 SLOAD DUP2 LT ISZERO PUSH2 0x1891 JUMPI PUSH0 PUSH1 0x6 DUP3 DUP2 SLOAD DUP2 LT PUSH2 0x1863 JUMPI PUSH2 0x1863 PUSH2 0x1E00 JUMP JUMPDEST PUSH0 SWAP2 DUP3 MSTORE PUSH1 0x20 DUP1 DUP4 KECCAK256 SWAP1 SWAP2 ADD SLOAD DUP3 MSTORE PUSH1 0x4 SWAP1 DUP2 SWAP1 MSTORE PUSH1 0x40 SWAP1 SWAP2 KECCAK256 ADD DUP1 SLOAD PUSH3 0xFF0000 NOT AND SWAP1 SSTORE POP PUSH1 0x1 ADD PUSH2 0x1845 JUMP JUMPDEST POP PUSH2 0x189D PUSH1 0x2 PUSH0 PUSH2 0x18F5 JUMP JUMPDEST PUSH0 DUP1 SLOAD PUSH1 0xFF NOT AND SWAP1 SSTORE PUSH1 0x1 DUP1 SSTORE JUMP JUMPDEST PUSH1 0x60 PUSH2 0x18B6 PUSH2 0x697 JUMP JUMPDEST SWAP1 POP SWAP1 JUMP JUMPDEST POP DUP1 SLOAD PUSH2 0x18C7 SWAP1 PUSH2 0x1E6D JUMP JUMPDEST PUSH0 DUP3 SSTORE DUP1 PUSH1 0x1F LT PUSH2 0x18D6 JUMPI POP POP JUMP JUMPDEST PUSH1 0x1F ADD PUSH1 0x20 SWAP1 DIV SWAP1 PUSH0 MSTORE PUSH1 0x20 PUSH0 KECCAK256 SWAP1 DUP2 ADD SWAP1 PUSH2 0x18F2 SWAP2 SWAP1 PUSH2 0x192A JUMP JUMPDEST POP JUMP JUMPDEST POP DUP1 SLOAD PUSH0 DUP3 SSTORE PUSH1 0x3 MUL SWAP1 PUSH0 MSTORE PUSH1 0x20 PUSH0 KECCAK256 SWAP1 DUP2 ADD SWAP1 PUSH2 0x18F2 SWAP2 SWAP1 PUSH2 0x1942 JUMP JUMPDEST POP DUP1 SLOAD PUSH0 DUP3 SSTORE SWAP1 PUSH0 MSTORE PUSH1 0x20 PUSH0 KECCAK256 SWAP1 DUP2 ADD SWAP1 PUSH2 0x18F2 SWAP2 SWAP1 JUMPDEST JUMPDEST DUP1 DUP3 GT ISZERO PUSH2 0x193E JUMPI PUSH0 DUP2 SSTORE PUSH1 0x1 ADD PUSH2 0x192B JUMP JUMPDEST POP SWAP1 JUMP JUMPDEST DUP1 DUP3 GT ISZERO PUSH2 0x193E JUMPI PUSH0 DUP1 DUP3 SSTORE PUSH2 0x195B PUSH1 0x1 DUP4 ADD DUP3 PUSH2 0x18BB JUMP JUMPDEST PUSH2 0x1968 PUSH1 0x2 DUP4 ADD PUSH0 PUSH2 0x18BB JUMP JUMPDEST POP PUSH1 0x3 ADD PUSH2 0x1942 JUMP JUMPDEST PUSH0 PUSH1 0x20 DUP3 DUP5 SUB SLT ISZERO PUSH2 0x1981 JUMPI PUSH0 DUP1 REVERT JUMPDEST POP CALLDATALOAD SWAP2 SWAP1 POP JUMP JUMPDEST PUSH0 DUP2 MLOAD DUP1 DUP5 MSTORE DUP1 PUSH1 0x20 DUP5 ADD PUSH1 0x20 DUP7 ADD MCOPY PUSH0 PUSH1 0x20 DUP3 DUP7 ADD ADD MSTORE PUSH1 0x20 PUSH1 0x1F NOT PUSH1 0x1F DUP4 ADD AND DUP6 ADD ADD SWAP2 POP POP SWAP3 SWAP2 POP POP JUMP JUMPDEST PUSH1 0x20 DUP2 MSTORE PUSH0 PUSH2 0x19C8 PUSH1 0x20 DUP4 ADD DUP5 PUSH2 0x1988 JUMP JUMPDEST SWAP4 SWAP3 POP POP POP JUMP JUMPDEST PUSH4 0x4E487B71 PUSH1 0xE0 SHL PUSH0 MSTORE PUSH1 0x21 PUSH1 0x4 MSTORE PUSH1 0x24 PUSH0 REVERT JUMPDEST PUSH1 0x20 DUP2 ADD PUSH1 0x3 DUP4 LT PUSH2 0x1A03 JUMPI PUSH4 0x4E487B71 PUSH1 0xE0 SHL PUSH0 MSTORE PUSH1 0x21 PUSH1 0x4 MSTORE PUSH1 0x24 PUSH0 REVERT JUMPDEST SWAP2 SWAP1 MSTORE SWAP1 JUMP JUMPDEST PUSH0 DUP1 PUSH1 0x40 DUP4 DUP6 SUB SLT ISZERO PUSH2 0x1A1A JUMPI PUSH0 DUP1 REVERT JUMPDEST POP POP DUP1 CALLDATALOAD SWAP3 PUSH1 0x20 SWAP1 SWAP2 ADD CALLDATALOAD SWAP2 POP JUMP JUMPDEST PUSH0 PUSH1 0x20 DUP1 DUP4 ADD DUP2 DUP5 MSTORE DUP1 DUP6 MLOAD DUP1 DUP4 MSTORE PUSH1 0x40 SWAP3 POP PUSH1 0x40 DUP7 ADD SWAP2 POP PUSH1 0x40 DUP2 PUSH1 0x5 SHL DUP8 ADD ADD DUP5 DUP9 ADD PUSH0 JUMPDEST DUP4 DUP2 LT ISZERO PUSH2 0x1A9C JUMPI PUSH1 0x3F NOT DUP10 DUP5 SUB ADD DUP6 MSTORE DUP2 MLOAD PUSH1 0x60 DUP2 MLOAD DUP6 MSTORE DUP9 DUP3 ADD MLOAD DUP2 DUP11 DUP8 ADD MSTORE PUSH2 0x1A7E DUP3 DUP8 ADD DUP3 PUSH2 0x1988 JUMP JUMPDEST SWAP3 DUP10 ADD MLOAD SWAP6 DUP10 ADD SWAP6 SWAP1 SWAP6 MSTORE POP SWAP5 DUP8 ADD SWAP5 SWAP3 POP SWAP1 DUP7 ADD SWAP1 PUSH1 0x1 ADD PUSH2 0x1A50 JUMP JUMPDEST POP SWAP1 SWAP9 SWAP8 POP POP POP POP POP POP POP POP JUMP JUMPDEST PUSH0 PUSH1 0x20 DUP1 DUP4 ADD DUP2 DUP5 MSTORE DUP1 DUP6 MLOAD DUP1 DUP4 MSTORE PUSH1 0x40 SWAP3 POP PUSH1 0x40 DUP7 ADD SWAP2 POP PUSH1 0x40 DUP2 PUSH1 0x5 SHL DUP8 ADD ADD DUP5 DUP9 ADD PUSH0 JUMPDEST DUP4 DUP2 LT ISZERO PUSH2 0x1A9C JUMPI PUSH1 0x3F NOT DUP10 DUP5 SUB ADD DUP6 MSTORE DUP2 MLOAD PUSH1 0x60 DUP2 MLOAD DUP6 MSTORE DUP9 DUP3 ADD MLOAD DUP2 DUP11 DUP8 ADD MSTORE PUSH2 0x1AFF DUP3 DUP8 ADD DUP3 PUSH2 0x1988 JUMP JUMPDEST SWAP3 DUP10 ADD MLOAD ISZERO ISZERO SWAP6 DUP10 ADD SWAP6 SWAP1 SWAP6 MSTORE POP SWAP5 DUP8 ADD SWAP5 SWAP3 POP SWAP1 DUP7 ADD SWAP1 PUSH1 0x1 ADD PUSH2 0x1AD1 JUMP JUMPDEST PUSH0 PUSH1 0x20 DUP1 DUP4 ADD DUP2 DUP5 MSTORE DUP1 DUP6 MLOAD DUP1 DUP4 MSTORE PUSH1 0x40 SWAP3 POP PUSH1 0x40 DUP7 ADD SWAP2 POP PUSH1 0x40 DUP2 PUSH1 0x5 SHL DUP8 ADD ADD DUP5 DUP9 ADD PUSH0 JUMPDEST DUP4 DUP2 LT ISZERO PUSH2 0x1A9C JUMPI PUSH1 0x3F NOT DUP10 DUP5 SUB ADD DUP6 MSTORE DUP2 MLOAD PUSH1 0xE0 DUP2 MLOAD DUP6 MSTORE DUP9 DUP3 ADD MLOAD DUP2 DUP11 DUP8 ADD MSTORE PUSH2 0x1B74 DUP3 DUP8 ADD DUP3 PUSH2 0x1988 JUMP JUMPDEST SWAP2 POP POP DUP8 DUP3 ADD MLOAD DUP6 DUP3 SUB DUP10 DUP8 ADD MSTORE PUSH2 0x1B8C DUP3 DUP3 PUSH2 0x1988 JUMP JUMPDEST SWAP2 POP POP PUSH1 0x60 DUP1 DUP4 ADD MLOAD DUP7 DUP4 SUB DUP3 DUP9 ADD MSTORE PUSH2 0x1BA6 DUP4 DUP3 PUSH2 0x1988 JUMP JUMPDEST PUSH1 0x80 DUP6 DUP2 ADD MLOAD ISZERO ISZERO SWAP1 DUP10 ADD MSTORE PUSH1 0xA0 DUP1 DUP7 ADD MLOAD ISZERO ISZERO SWAP1 DUP10 ADD MSTORE PUSH1 0xC0 SWAP5 DUP6 ADD MLOAD DUP1 ISZERO ISZERO DUP7 DUP11 ADD MSTORE SWAP5 SWAP1 SWAP4 POP SWAP2 POP PUSH2 0x1BD8 SWAP1 POP JUMP JUMPDEST POP SWAP6 DUP9 ADD SWAP6 SWAP4 POP POP SWAP1 DUP7 ADD SWAP1 PUSH1 0x1 ADD PUSH2 0x1B46 JUMP JUMPDEST PUSH0 PUSH1 0x20 DUP1 DUP4 ADD DUP2 DUP5 MSTORE DUP1 DUP6 MLOAD DUP1 DUP4 MSTORE PUSH1 0x40 SWAP3 POP PUSH1 0x40 DUP7 ADD SWAP2 POP PUSH1 0x40 DUP2 PUSH1 0x5 SHL DUP8 ADD ADD DUP5 DUP9 ADD PUSH0 JUMPDEST DUP4 DUP2 LT ISZERO PUSH2 0x1A9C JUMPI PUSH1 0x3F NOT DUP10 DUP5 SUB ADD DUP6 MSTORE DUP2 MLOAD PUSH1 0x60 DUP2 MLOAD DUP6 MSTORE DUP9 DUP3 ADD MLOAD DUP2 DUP11 DUP8 ADD MSTORE PUSH2 0x1C41 DUP3 DUP8 ADD DUP3 PUSH2 0x1988 JUMP JUMPDEST SWAP2 POP POP DUP8 DUP3 ADD MLOAD SWAP2 POP DUP5 DUP2 SUB DUP9 DUP7 ADD MSTORE PUSH2 0x1C5B DUP2 DUP4 PUSH2 0x1988 JUMP JUMPDEST SWAP7 DUP10 ADD SWAP7 SWAP5 POP POP POP SWAP1 DUP7 ADD SWAP1 PUSH1 0x1 ADD PUSH2 0x1C13 JUMP JUMPDEST PUSH4 0x4E487B71 PUSH1 0xE0 SHL PUSH0 MSTORE PUSH1 0x41 PUSH1 0x4 MSTORE PUSH1 0x24 PUSH0 REVERT JUMPDEST PUSH0 DUP3 PUSH1 0x1F DUP4 ADD SLT PUSH2 0x1C92 JUMPI PUSH0 DUP1 REVERT JUMPDEST DUP2 CALLDATALOAD PUSH8 0xFFFFFFFFFFFFFFFF DUP1 DUP3 GT ISZERO PUSH2 0x1CAD JUMPI PUSH2 0x1CAD PUSH2 0x1C6F JUMP JUMPDEST PUSH1 0x40 MLOAD PUSH1 0x1F DUP4 ADD PUSH1 0x1F NOT SWAP1 DUP2 AND PUSH1 0x3F ADD AND DUP2 ADD SWAP1 DUP3 DUP3 GT DUP2 DUP4 LT OR ISZERO PUSH2 0x1CD5 JUMPI PUSH2 0x1CD5 PUSH2 0x1C6F JUMP JUMPDEST DUP2 PUSH1 0x40 MSTORE DUP4 DUP2 MSTORE DUP7 PUSH1 0x20 DUP6 DUP9 ADD ADD GT ISZERO PUSH2 0x1CED JUMPI PUSH0 DUP1 REVERT JUMPDEST DUP4 PUSH1 0x20 DUP8 ADD PUSH1 0x20 DUP4 ADD CALLDATACOPY PUSH0 PUSH1 0x20 DUP6 DUP4 ADD ADD MSTORE DUP1 SWAP5 POP POP POP POP POP SWAP3 SWAP2 POP POP JUMP JUMPDEST DUP1 CALLDATALOAD DUP1 ISZERO ISZERO DUP2 EQ PUSH2 0x1765 JUMPI PUSH0 DUP1 REVERT JUMPDEST PUSH0 DUP1 PUSH0 DUP1 PUSH0 DUP1 PUSH1 0xC0 DUP8 DUP10 SUB SLT ISZERO PUSH2 0x1D30 JUMPI PUSH0 DUP1 REVERT JUMPDEST DUP7 CALLDATALOAD PUSH8 0xFFFFFFFFFFFFFFFF DUP1 DUP3 GT ISZERO PUSH2 0x1D47 JUMPI PUSH0 DUP1 REVERT JUMPDEST PUSH2 0x1D53 DUP11 DUP4 DUP12 ADD PUSH2 0x1C83 JUMP JUMPDEST SWAP8 POP PUSH1 0x20 DUP10 ADD CALLDATALOAD SWAP7 POP PUSH1 0x40 DUP10 ADD CALLDATALOAD SWAP2 POP DUP1 DUP3 GT ISZERO PUSH2 0x1D6F JUMPI PUSH0 DUP1 REVERT JUMPDEST PUSH2 0x1D7B DUP11 DUP4 DUP12 ADD PUSH2 0x1C83 JUMP JUMPDEST SWAP6 POP PUSH1 0x60 DUP10 ADD CALLDATALOAD SWAP2 POP DUP1 DUP3 GT ISZERO PUSH2 0x1D90 JUMPI PUSH0 DUP1 REVERT JUMPDEST POP PUSH2 0x1D9D DUP10 DUP3 DUP11 ADD PUSH2 0x1C83 JUMP JUMPDEST SWAP4 POP POP PUSH2 0x1DAC PUSH1 0x80 DUP9 ADD PUSH2 0x1D0C JUMP JUMPDEST SWAP2 POP PUSH2 0x1DBA PUSH1 0xA0 DUP9 ADD PUSH2 0x1D0C JUMP JUMPDEST SWAP1 POP SWAP3 SWAP6 POP SWAP3 SWAP6 POP SWAP3 SWAP6 JUMP JUMPDEST PUSH0 PUSH1 0x20 DUP3 DUP5 SUB SLT ISZERO PUSH2 0x1DD6 JUMPI PUSH0 DUP1 REVERT JUMPDEST DUP2 CALLDATALOAD PUSH8 0xFFFFFFFFFFFFFFFF DUP2 GT ISZERO PUSH2 0x1DEC JUMPI PUSH0 DUP1 REVERT JUMPDEST PUSH2 0x1DF8 DUP5 DUP3 DUP6 ADD PUSH2 0x1C83 JUMP JUMPDEST SWAP5 SWAP4 POP POP POP POP JUMP JUMPDEST PUSH4 0x4E487B71 PUSH1 0xE0 SHL PUSH0 MSTORE PUSH1 0x32 PUSH1 0x4 MSTORE PUSH1 0x24 PUSH0 REVERT JUMPDEST PUSH4 0x4E487B71 PUSH1 0xE0 SHL PUSH0 MSTORE PUSH1 0x11 PUSH1 0x4 MSTORE PUSH1 0x24 PUSH0 REVERT JUMPDEST DUP2 DUP2 SUB DUP2 DUP2 GT ISZERO PUSH2 0x1E3B JUMPI PUSH2 0x1E3B PUSH2 0x1E14 JUMP JUMPDEST SWAP3 SWAP2 POP POP JUMP JUMPDEST PUSH4 0x4E487B71 PUSH1 0xE0 SHL PUSH0 MSTORE PUSH1 0x31 PUSH1 0x4 MSTORE PUSH1 0x24 PUSH0 REVERT JUMPDEST PUSH0 PUSH1 0x1 DUP3 ADD PUSH2 0x1E66 JUMPI PUSH2 0x1E66 PUSH2 0x1E14 JUMP JUMPDEST POP PUSH1 0x1 ADD SWAP1 JUMP JUMPDEST PUSH1 0x1 DUP2 DUP2 SHR SWAP1 DUP3 AND DUP1 PUSH2 0x1E81 JUMPI PUSH1 0x7F DUP3 AND SWAP2 POP JUMPDEST PUSH1 0x20 DUP3 LT DUP2 SUB PUSH2 0x831 JUMPI PUSH4 0x4E487B71 PUSH1 0xE0 SHL PUSH0 MSTORE PUSH1 0x22 PUSH1 0x4 MSTORE PUSH1 0x24 PUSH0 REVERT JUMPDEST PUSH1 0x1F DUP3 GT ISZERO PUSH2 0x1EE6 JUMPI DUP1 PUSH0 MSTORE PUSH1 0x20 PUSH0 KECCAK256 PUSH1 0x1F DUP5 ADD PUSH1 0x5 SHR DUP2 ADD PUSH1 0x20 DUP6 LT ISZERO PUSH2 0x1EC4 JUMPI POP DUP1 JUMPDEST PUSH1 0x1F DUP5 ADD PUSH1 0x5 SHR DUP3 ADD SWAP2 POP JUMPDEST DUP2 DUP2 LT ISZERO PUSH2 0x1EE3 JUMPI PUSH0 DUP2 SSTORE PUSH1 0x1 ADD PUSH2 0x1ED0 JUMP JUMPDEST POP POP JUMPDEST POP POP POP JUMP JUMPDEST DUP2 MLOAD PUSH8 0xFFFFFFFFFFFFFFFF DUP2 GT ISZERO PUSH2 0x1F05 JUMPI PUSH2 0x1F05 PUSH2 0x1C6F JUMP JUMPDEST PUSH2 0x1F19 DUP2 PUSH2 0x1F13 DUP5 SLOAD PUSH2 0x1E6D JUMP JUMPDEST DUP5 PUSH2 0x1E9F JUMP JUMPDEST PUSH1 0x20 DUP1 PUSH1 0x1F DUP4 GT PUSH1 0x1 DUP2 EQ PUSH2 0x1F4C JUMPI PUSH0 DUP5 ISZERO PUSH2 0x1F35 JUMPI POP DUP6 DUP4 ADD MLOAD JUMPDEST PUSH0 NOT PUSH1 0x3 DUP7 SWAP1 SHL SHR NOT AND PUSH1 0x1 DUP6 SWAP1 SHL OR DUP6 SSTORE PUSH2 0x1FA3 JUMP JUMPDEST PUSH0 DUP6 DUP2 MSTORE PUSH1 0x20 DUP2 KECCAK256 PUSH1 0x1F NOT DUP7 AND SWAP2 JUMPDEST DUP3 DUP2 LT ISZERO PUSH2 0x1F7A JUMPI DUP9 DUP7 ADD MLOAD DUP3 SSTORE SWAP5 DUP5 ADD SWAP5 PUSH1 0x1 SWAP1 SWAP2 ADD SWAP1 DUP5 ADD PUSH2 0x1F5B JUMP JUMPDEST POP DUP6 DUP3 LT ISZERO PUSH2 0x1F97 JUMPI DUP8 DUP6 ADD MLOAD PUSH0 NOT PUSH1 0x3 DUP9 SWAP1 SHL PUSH1 0xF8 AND SHR NOT AND DUP2 SSTORE JUMPDEST POP POP PUSH1 0x1 DUP5 PUSH1 0x1 SHL ADD DUP6 SSTORE JUMPDEST POP POP POP POP POP POP JUMP INVALID LOG2 PUSH5 0x6970667358 0x22 SLT KECCAK256 SELFDESTRUCT MULMOD 0xB8 0xDA 0xC8 0xC1 0xC8 GT MULMOD 0xDE 0xB3 GASPRICE SMOD MUL 0xC2 0xB5 0xAA 0xF 0xDA OR 0xB4 PUSH31 0xC16215CB2A0BD799334764736F6C6343000819003300000000000000000000 "
    },
    "gasEstimates": {
      "creation": {
        "codeDepositCost": "1632200",
        "executionCost": "48036",
        "totalCost": "1680236"
      },
      "external": {
        "castVote(uint256,uint256)": "57770",
        "electionState()": "2417",
        "endElection()": "infinite",
        "getAllCandidates()": "infinite",
        "getAllVoters()": "infinite",
        "getElectionStatus()": "infinite",
        "getTotalCandidateCount()": "2335",
        "getTotalVoterCount()": "2325",
        "getVoteCounts()": "infinite",
        "getVoterVotingStatus()": "infinite",
        "getWinner()": "infinite",
        "newElection()": "infinite",
        "registerCandidate(string)": "infinite",
        "registerVoter(string,uint256,string,string,bool,bool)": "infinite",
        "removeCandidate(uint256)": "infinite",
        "removeVoter(uint256)": "infinite",
        "startElection()": "28660"
      }
    },
    "methodIdentifiers": {
      "castVote(uint256,uint256)": "2c0a3f89",
      "electionState()": "2280043d",
      "endElection()": "59f78468",
      "getAllCandidates()": "2e6997fe",
      "getAllVoters()": "35bbe70e",
      "getElectionStatus()": "122902a6",
      "getTotalCandidateCount()": "d5f03555",
      "getTotalVoterCount()": "67a51396",
      "getVoteCounts()": "ffc97b20",
      "getVoterVotingStatus()": "33db3eb6",
      "getWinner()": "8e7ea5b2",
      "newElection()": "f68a3b10",
      "registerCandidate(string)": "9eb88db6",
      "registerVoter(string,uint256,string,string,bool,bool)": "91a59303",
      "removeCandidate(uint256)": "09e9d7e2",
      "removeVoter(uint256)": "87ddc0ec",
      "startElection()": "62d73eb8"
    }
  },
  "storageLayout": {
    "storage": [
      {
        "astId": 9,
        "contract": "blockchain.sol:BiometricVotingSystem",
        "label": "electionState",
        "offset": 0,
        "slot": "0",
        "type": "t_enum(ElectionState)6"
      },
      {
        "astId": 12,
        "contract": "blockchain.sol:BiometricVotingSystem",
        "label": "candidateIdCounter",
        "offset": 0,
        "slot": "1",
        "type": "t_uint256"
      },
      {
        "astId": 49,
        "contract": "blockchain.sol:BiometricVotingSystem",
        "label": "winners",
        "offset": 0,
        "slot": "2",
        "type": "t_array(t_struct(Winner)45_storage)dyn_storage"
      },
      {
        "astId": 54,
        "contract": "blockchain.sol:BiometricVotingSystem",
        "label": "candidates",
        "offset": 0,
        "slot": "3",
        "type": "t_mapping(t_uint256,t_struct(Candidate)21_storage)"
      },
      {
        "astId": 59,
        "contract": "blockchain.sol:BiometricVotingSystem",
        "label": "voters",
        "offset": 0,
        "slot": "4",
        "type": "t_mapping(t_uint256,t_struct(Voter)38_storage)"
      },
      {
        "astId": 62,
        "contract": "blockchain.sol:BiometricVotingSystem",
        "label": "candidateIds",
        "offset": 0,
        "slot": "5",
        "type": "t_array(t_uint256)dyn_storage"
      },
      {
        "astId": 65,
        "contract": "blockchain.sol:BiometricVotingSystem",
        "label": "voterIds",
        "offset": 0,
        "slot": "6",
        "type": "t_array(t_uint256)dyn_storage"
      }
    ],
    "types": {
      "t_array(t_struct(Winner)45_storage)dyn_storage": {
        "base": "t_struct(Winner)45_storage",
        "encoding": "dynamic_array",
        "label": "struct BiometricVotingSystem.Winner[]",
        "numberOfBytes": "32"
      },
      "t_array(t_uint256)dyn_storage": {
        "base": "t_uint256",
        "encoding": "dynamic_array",
        "label": "uint256[]",
        "numberOfBytes": "32"
      },
      "t_bool": {
        "encoding": "inplace",
        "label": "bool",
        "numberOfBytes": "1"
      },
      "t_enum(ElectionState)6": {
        "encoding": "inplace",
        "label": "enum BiometricVotingSystem.ElectionState",
        "numberOfBytes": "1"
      },
      "t_mapping(t_uint256,t_struct(Candidate)21_storage)": {
        "encoding": "mapping",
        "key": "t_uint256",
        "label": "mapping(uint256 => struct BiometricVotingSystem.Candidate)",
        "numberOfBytes": "32",
        "value": "t_struct(Candidate)21_storage"
      },
      "t_mapping(t_uint256,t_struct(Voter)38_storage)": {
        "encoding": "mapping",
        "key": "t_uint256",
        "label": "mapping(uint256 => struct BiometricVotingSystem.Voter)",
        "numberOfBytes": "32",
        "value": "t_struct(Voter)38_storage"
      },
      "t_string_storage": {
        "encoding": "bytes",
        "label": "string",
        "numberOfBytes": "32"
      },
      "t_struct(Candidate)21_storage": {
        "encoding": "inplace",
        "label": "struct BiometricVotingSystem.Candidate",
        "members": [
          {
            "astId": 14,
            "contract": "blockchain.sol:BiometricVotingSystem",
            "label": "id",
            "offset": 0,
            "slot": "0",
            "type": "t_uint256"
          },
          {
            "astId": 16,
            "contract": "blockchain.sol:BiometricVotingSystem",
            "label": "name",
            "offset": 0,
            "slot": "1",
            "type": "t_string_storage"
          },
          {
            "astId": 18,
            "contract": "blockchain.sol:BiometricVotingSystem",
            "label": "voteCount",
            "offset": 0,
            "slot": "2",
            "type": "t_uint256"
          },
          {
            "astId": 20,
            "contract": "blockchain.sol:BiometricVotingSystem",
            "label": "exists",
            "offset": 0,
            "slot": "3",
            "type": "t_bool"
          }
        ],
        "numberOfBytes": "128"
      },
      "t_struct(Voter)38_storage": {
        "encoding": "inplace",
        "label": "struct BiometricVotingSystem.Voter",
        "members": [
          {
            "astId": 23,
            "contract": "blockchain.sol:BiometricVotingSystem",
            "label": "id",
            "offset": 0,
            "slot": "0",
            "type": "t_uint256"
          },
          {
            "astId": 25,
            "contract": "blockchain.sol:BiometricVotingSystem",
            "label": "name",
            "offset": 0,
            "slot": "1",
            "type": "t_string_storage"
          },
          {
            "astId": 27,
            "contract": "blockchain.sol:BiometricVotingSystem",
            "label": "faceEncoding",
            "offset": 0,
            "slot": "2",
            "type": "t_string_storage"
          },
          {
            "astId": 29,
            "contract": "blockchain.sol:BiometricVotingSystem",
            "label": "fingerEncoding",
            "offset": 0,
            "slot": "3",
            "type": "t_string_storage"
          },
          {
            "astId": 31,
            "contract": "blockchain.sol:BiometricVotingSystem",
            "label": "faceDisabled",
            "offset": 0,
            "slot": "4",
            "type": "t_bool"
          },
          {
            "astId": 33,
            "contract": "blockchain.sol:BiometricVotingSystem",
            "label": "fingerDisabled",
            "offset": 1,
            "slot": "4",
            "type": "t_bool"
          },
          {
            "astId": 35,
            "contract": "blockchain.sol:BiometricVotingSystem",
            "label": "hasVoted",
            "offset": 2,
            "slot": "4",
            "type": "t_bool"
          },
          {
            "astId": 37,
            "contract": "blockchain.sol:BiometricVotingSystem",
            "label": "exists",
            "offset": 3,
            "slot": "4",
            "type": "t_bool"
          }
        ],
        "numberOfBytes": "160"
      },
      "t_struct(Winner)45_storage": {
        "encoding": "inplace",
        "label": "struct BiometricVotingSystem.Winner",
        "members": [
          {
            "astId": 40,
            "contract": "blockchain.sol:BiometricVotingSystem",
            "label": "id",
            "offset": 0,
            "slot": "0",
            "type": "t_uint256"
          },
          {
            "astId": 42,
            "contract": "blockchain.sol:BiometricVotingSystem",
            "label": "name",
            "offset": 0,
            "slot": "1",
            "type": "t_string_storage"
          },
          {
            "astId": 44,
            "contract": "blockchain.sol:BiometricVotingSystem",
            "label": "partyName",
            "offset": 0,
            "slot": "2",
            "type": "t_string_storage"
          }
        ],
        "numberOfBytes": "96"
      },
      "t_uint256": {
        "encoding": "inplace",
        "label": "uint256",
        "numberOfBytes": "32"
      }
    }
  },
  "userdoc": {
    "kind": "user",
    "methods": {},
    "version": 1
  }
}